{"contracts/PKDR.sol":{"PKDR":{"abi":[{"inputs":[],"stateMutability":"nonpayable","type":"constructor"},{"inputs":[{"internalType":"address","name":"","type":"address"}],"name":"MULTISIG_REQUIRED","type":"error"},{"inputs":[{"internalType":"address","name":"","type":"address"}],"name":"USER_NOT_VERIFIED","type":"error"},{"anonymous":false,"inputs":[{"indexed":false,"internalType":"uint256","name":"fallbackAmount","type":"uint256"}],"name":"AMOUNT_RECEIVED_THROUGH_FALLBACK","type":"event"},{"anonymous":false,"inputs":[{"indexed":false,"internalType":"uint256","name":"receiveAmount","type":"uint256"}],"name":"AMOUNT_RECEIVED_THROUGH_RECEIVE","type":"event"},{"anonymous":false,"inputs":[{"indexed":false,"internalType":"address","name":"previousAdmin","type":"address"},{"indexed":false,"internalType":"address","name":"newAdmin","type":"address"}],"name":"AdminChanged","type":"event"},{"anonymous":false,"inputs":[{"indexed":true,"internalType":"address","name":"owner","type":"address"},{"indexed":true,"internalType":"address","name":"spender","type":"address"},{"indexed":false,"internalType":"uint256","name":"value","type":"uint256"}],"name":"Approval","type":"event"},{"anonymous":false,"inputs":[{"indexed":true,"internalType":"address","name":"beacon","type":"address"}],"name":"BeaconUpgraded","type":"event"},{"anonymous":false,"inputs":[{"indexed":false,"internalType":"uint8","name":"version","type":"uint8"}],"name":"Initialized","type":"event"},{"anonymous":false,"inputs":[{"indexed":true,"internalType":"address","name":"previousOwner","type":"address"},{"indexed":true,"internalType":"address","name":"newOwner","type":"address"}],"name":"OwnershipTransferred","type":"event"},{"anonymous":false,"inputs":[{"indexed":false,"internalType":"address","name":"account","type":"address"}],"name":"Paused","type":"event"},{"anonymous":false,"inputs":[{"indexed":false,"internalType":"uint256","name":"id","type":"uint256"}],"name":"Snapshot","type":"event"},{"anonymous":false,"inputs":[{"indexed":false,"internalType":"address","name":"","type":"address"}],"name":"TRANSFER_REQUIRED_MULTI_SIGNATURE","type":"event"},{"anonymous":false,"inputs":[{"indexed":false,"internalType":"address","name":"","type":"address"}],"name":"TRANSFER_REQUIRED_VERIFICATION_I","type":"event"},{"anonymous":false,"inputs":[{"indexed":true,"internalType":"address","name":"from","type":"address"},{"indexed":true,"internalType":"address","name":"to","type":"address"},{"indexed":false,"internalType":"uint256","name":"value","type":"uint256"}],"name":"Transfer","type":"event"},{"anonymous":false,"inputs":[{"indexed":false,"internalType":"address","name":"account","type":"address"}],"name":"Unpaused","type":"event"},{"anonymous":false,"inputs":[{"indexed":true,"internalType":"address","name":"implementation","type":"address"}],"name":"Upgraded","type":"event"},{"stateMutability":"payable","type":"fallback"},{"inputs":[],"name":"DOMAIN_SEPARATOR","outputs":[{"internalType":"bytes32","name":"","type":"bytes32"}],"stateMutability":"view","type":"function"},{"inputs":[{"internalType":"address","name":"owner","type":"address"},{"internalType":"address","name":"spender","type":"address"}],"name":"allowance","outputs":[{"internalType":"uint256","name":"","type":"uint256"}],"stateMutability":"view","type":"function"},{"inputs":[{"internalType":"address","name":"spender","type":"address"},{"internalType":"uint256","name":"amount","type":"uint256"}],"name":"approve","outputs":[{"internalType":"bool","name":"","type":"bool"}],"stateMutability":"nonpayable","type":"function"},{"inputs":[{"internalType":"address","name":"account","type":"address"}],"name":"balanceOf","outputs":[{"internalType":"uint256","name":"","type":"uint256"}],"stateMutability":"view","type":"function"},{"inputs":[{"internalType":"address","name":"account","type":"address"},{"internalType":"uint256","name":"snapshotId","type":"uint256"}],"name":"balanceOfAt","outputs":[{"internalType":"uint256","name":"","type":"uint256"}],"stateMutability":"view","type":"function"},{"inputs":[{"internalType":"uint256","name":"amount","type":"uint256"}],"name":"burn","outputs":[],"stateMutability":"nonpayable","type":"function"},{"inputs":[{"internalType":"address","name":"account","type":"address"},{"internalType":"uint256","name":"amount","type":"uint256"}],"name":"burnFrom","outputs":[],"stateMutability":"nonpayable","type":"function"},{"inputs":[],"name":"decimals","outputs":[{"internalType":"uint8","name":"","type":"uint8"}],"stateMutability":"view","type":"function"},{"inputs":[{"internalType":"address","name":"spender","type":"address"},{"internalType":"uint256","name":"subtractedValue","type":"uint256"}],"name":"decreaseAllowance","outputs":[{"internalType":"bool","name":"","type":"bool"}],"stateMutability":"nonpayable","type":"function"},{"inputs":[],"name":"getProfileAddress","outputs":[{"internalType":"address","name":"","type":"address"}],"stateMutability":"view","type":"function"},{"inputs":[{"internalType":"address","name":"spender","type":"address"},{"internalType":"uint256","name":"addedValue","type":"uint256"}],"name":"increaseAllowance","outputs":[{"internalType":"bool","name":"","type":"bool"}],"stateMutability":"nonpayable","type":"function"},{"inputs":[],"name":"initialize","outputs":[],"stateMutability":"nonpayable","type":"function"},{"inputs":[{"internalType":"address","name":"to","type":"address"},{"internalType":"uint256","name":"amount","type":"uint256"}],"name":"mintTo","outputs":[],"stateMutability":"nonpayable","type":"function"},{"inputs":[],"name":"name","outputs":[{"internalType":"string","name":"","type":"string"}],"stateMutability":"view","type":"function"},{"inputs":[{"internalType":"address","name":"owner","type":"address"}],"name":"nonces","outputs":[{"internalType":"uint256","name":"","type":"uint256"}],"stateMutability":"view","type":"function"},{"inputs":[],"name":"owner","outputs":[{"internalType":"address","name":"","type":"address"}],"stateMutability":"view","type":"function"},{"inputs":[],"name":"paused","outputs":[{"internalType":"bool","name":"","type":"bool"}],"stateMutability":"view","type":"function"},{"inputs":[{"internalType":"address","name":"owner","type":"address"},{"internalType":"address","name":"spender","type":"address"},{"internalType":"uint256","name":"value","type":"uint256"},{"internalType":"uint256","name":"deadline","type":"uint256"},{"internalType":"uint8","name":"v","type":"uint8"},{"internalType":"bytes32","name":"r","type":"bytes32"},{"internalType":"bytes32","name":"s","type":"bytes32"}],"name":"permit","outputs":[],"stateMutability":"nonpayable","type":"function"},{"inputs":[],"name":"proxiableUUID","outputs":[{"internalType":"bytes32","name":"","type":"bytes32"}],"stateMutability":"view","type":"function"},{"inputs":[],"name":"renounceOwnership","outputs":[],"stateMutability":"nonpayable","type":"function"},{"inputs":[{"internalType":"address payable","name":"_profiles","type":"address"}],"name":"setProfileAddress","outputs":[],"stateMutability":"nonpayable","type":"function"},{"inputs":[],"name":"symbol","outputs":[{"internalType":"string","name":"","type":"string"}],"stateMutability":"view","type":"function"},{"inputs":[],"name":"totalSupply","outputs":[{"internalType":"uint256","name":"","type":"uint256"}],"stateMutability":"view","type":"function"},{"inputs":[{"internalType":"uint256","name":"snapshotId","type":"uint256"}],"name":"totalSupplyAt","outputs":[{"internalType":"uint256","name":"","type":"uint256"}],"stateMutability":"view","type":"function"},{"inputs":[{"internalType":"address","name":"to","type":"address"},{"internalType":"uint256","name":"amount","type":"uint256"}],"name":"transfer","outputs":[{"internalType":"bool","name":"","type":"bool"}],"stateMutability":"nonpayable","type":"function"},{"inputs":[{"internalType":"address","name":"from","type":"address"},{"internalType":"address","name":"to","type":"address"},{"internalType":"uint256","name":"amount","type":"uint256"}],"name":"transferFrom","outputs":[{"internalType":"bool","name":"","type":"bool"}],"stateMutability":"nonpayable","type":"function"},{"inputs":[{"internalType":"address","name":"newOwner","type":"address"}],"name":"transferOwnership","outputs":[],"stateMutability":"nonpayable","type":"function"},{"inputs":[{"internalType":"address","name":"newImplementation","type":"address"}],"name":"upgradeTo","outputs":[],"stateMutability":"nonpayable","type":"function"},{"inputs":[{"internalType":"address","name":"newImplementation","type":"address"},{"internalType":"bytes","name":"data","type":"bytes"}],"name":"upgradeToAndCall","outputs":[],"stateMutability":"payable","type":"function"},{"stateMutability":"payable","type":"receive"}],"devdoc":{"custom:security-contact":"zohaib10092001@gmail.com","kind":"dev","methods":{"DOMAIN_SEPARATOR()":{"details":"See {IERC20Permit-DOMAIN_SEPARATOR}."},"allowance(address,address)":{"details":"See {IERC20-allowance}."},"approve(address,uint256)":{"details":"See {IERC20-approve}. NOTE: If `amount` is the maximum `uint256`, the allowance is not updated on `transferFrom`. This is semantically equivalent to an infinite approval. Requirements: - `spender` cannot be the zero address."},"balanceOf(address)":{"details":"See {IERC20-balanceOf}."},"balanceOfAt(address,uint256)":{"details":"Retrieves the balance of `account` at the time `snapshotId` was created."},"burn(uint256)":{"details":"Destroys `amount` tokens from the caller. See {ERC20-_burn}."},"burnFrom(address,uint256)":{"details":"Destroys `amount` tokens from `account`, deducting from the caller's allowance. See {ERC20-_burn} and {ERC20-allowance}. Requirements: - the caller must have allowance for ``accounts``'s tokens of at least `amount`."},"constructor":{"custom:oz-upgrades-unsafe-allow":"constructor"},"decimals()":{"details":"Returns the number of decimals used to get its user representation. For example, if `decimals` equals `2`, a balance of `505` tokens should be displayed to a user as `5.05` (`505 / 10 ** 2`). Tokens usually opt for a value of 18, imitating the relationship between Ether and Wei. This is the value {ERC20} uses, unless this function is overridden; NOTE: This information is only used for _display_ purposes: it in no way affects any of the arithmetic of the contract, including {IERC20-balanceOf} and {IERC20-transfer}."},"decreaseAllowance(address,uint256)":{"details":"Atomically decreases the allowance granted to `spender` by the caller. This is an alternative to {approve} that can be used as a mitigation for problems described in {IERC20-approve}. Emits an {Approval} event indicating the updated allowance. Requirements: - `spender` cannot be the zero address. - `spender` must have allowance for the caller of at least `subtractedValue`."},"increaseAllowance(address,uint256)":{"details":"Atomically increases the allowance granted to `spender` by the caller. This is an alternative to {approve} that can be used as a mitigation for problems described in {IERC20-approve}. Emits an {Approval} event indicating the updated allowance. Requirements: - `spender` cannot be the zero address."},"name()":{"details":"Returns the name of the token."},"nonces(address)":{"details":"See {IERC20Permit-nonces}."},"owner()":{"details":"Returns the address of the current owner."},"paused()":{"details":"Returns true if the contract is paused, and false otherwise."},"permit(address,address,uint256,uint256,uint8,bytes32,bytes32)":{"details":"See {IERC20Permit-permit}."},"proxiableUUID()":{"details":"Implementation of the ERC1822 {proxiableUUID} function. This returns the storage slot used by the implementation. It is used to validate the implementation's compatibility when performing an upgrade. IMPORTANT: A proxy pointing at a proxiable contract should not be considered proxiable itself, because this risks bricking a proxy that upgrades to it, by delegating to itself until out of gas. Thus it is critical that this function revert if invoked through a proxy. This is guaranteed by the `notDelegated` modifier."},"renounceOwnership()":{"details":"Leaves the contract without owner. It will not be possible to call `onlyOwner` functions anymore. Can only be called by the current owner. NOTE: Renouncing ownership will leave the contract without an owner, thereby removing any functionality that is only available to the owner."},"symbol()":{"details":"Returns the symbol of the token, usually a shorter version of the name."},"totalSupply()":{"details":"See {IERC20-totalSupply}."},"totalSupplyAt(uint256)":{"details":"Retrieves the total supply at the time `snapshotId` was created."},"transfer(address,uint256)":{"details":"See {IERC20-transfer}. Requirements: - `to` cannot be the zero address. - the caller must have a balance of at least `amount`."},"transferFrom(address,address,uint256)":{"details":"See {IERC20-transferFrom}. Emits an {Approval} event indicating the updated allowance. This is not required by the EIP. See the note at the beginning of {ERC20}. NOTE: Does not update the allowance if the current allowance is the maximum `uint256`. Requirements: - `from` and `to` cannot be the zero address. - `from` must have a balance of at least `amount`. - the caller must have allowance for ``from``'s tokens of at least `amount`."},"transferOwnership(address)":{"details":"Transfers ownership of the contract to a new account (`newOwner`). Can only be called by the current owner."},"upgradeTo(address)":{"details":"Upgrade the implementation of the proxy to `newImplementation`. Calls {_authorizeUpgrade}. Emits an {Upgraded} event."},"upgradeToAndCall(address,bytes)":{"details":"Upgrade the implementation of the proxy to `newImplementation`, and subsequently execute the function call encoded in `data`. Calls {_authorizeUpgrade}. Emits an {Upgraded} event."}},"version":1},"evm":{"bytecode":{"linkReferences":{},"object":"60e06040523073ffffffffffffffffffffffffffffffffffffffff1660809073ffffffffffffffffffffffffffffffffffffffff1681525060006101f8556040516020016200004e90620001dd565b6040516020818303038152906040528051906020012060a0908152506040516020016200007b9062000244565b6040516020818303038152906040528051906020012060c090815250348015620000a457600080fd5b50620000b5620000bb60201b60201c565b6200033f565b600060019054906101000a900460ff16156200010e576040517f08c379a00000000000000000000000000000000000000000000000000000000081526004016200010590620002e2565b60405180910390fd5b60ff801660008054906101000a900460ff1660ff161015620001805760ff6000806101000a81548160ff021916908360ff1602179055507f7f26b83ff96e1f2b6a682f133852f6798a09c465da95921460cefb384740249860ff60405162000177919062000322565b60405180910390a15b565b600081905092915050565b7f415050524f564544000000000000000000000000000000000000000000000000600082015250565b6000620001c560088362000182565b9150620001d2826200018d565b600882019050919050565b6000620001ea82620001b6565b9150819050919050565b7f4e554c4c00000000000000000000000000000000000000000000000000000000600082015250565b60006200022c60048362000182565b91506200023982620001f4565b600482019050919050565b600062000251826200021d565b9150819050919050565b600082825260208201905092915050565b7f496e697469616c697a61626c653a20636f6e747261637420697320696e69746960008201527f616c697a696e6700000000000000000000000000000000000000000000000000602082015250565b6000620002ca6027836200025b565b9150620002d7826200026c565b604082019050919050565b60006020820190508181036000830152620002fd81620002bb565b9050919050565b600060ff82169050919050565b6200031c8162000304565b82525050565b600060208201905062000339600083018462000311565b92915050565b60805160a05160c0516151c2620003996000396000818161091d015261098b0152600081816113be0152611428015260008181610a5b01528181610aea01528181610cb501528181610d440152610df401526151c26000f3fe6080604052600436106101c65760003560e01c806359e78460116100f75780638da5cb5b11610095578063a9059cbb11610064578063a9059cbb146106f3578063d505accf14610730578063dd62ed3e14610759578063f2fde38b146107965761021e565b80638da5cb5b1461062357806395d89b411461064e578063981b24d014610679578063a457c2d7146106b65761021e565b8063715018a6116100d1578063715018a61461058f57806379cc6790146105a65780637ecebe00146105cf5780638129fc1c1461060c5761021e565b806359e78460146104fe5780635c975abb1461052757806370a08231146105525761021e565b80633659cfe611610164578063449a52f81161013e578063449a52f8146104515780634ee2cd7e1461047a5780634f1ef286146104b757806352d1902d146104d35761021e565b80633659cfe6146103c257806339509351146103eb57806342966c68146104285761021e565b806323b872dd116101a057806323b872dd14610304578063313ce56714610341578063345a903f1461036c5780633644e515146103975761021e565b806306fdde0314610271578063095ea7b31461029c57806318160ddd146102d95761021e565b3661021e57346101f860008282546101de9190613488565b925050819055507f42100f075a78c1dac886a43652b5c7c76cca3718758e13e7b726063cd20fe02c3460405161021491906134ed565b60405180910390a1005b346101f860008282546102319190613488565b925050819055507f6cb8a67804b99a2876f9d2f903120d1607df4c6bb33315433f4f5b9284ba15883460405161026791906134ed565b60405180910390a1005b34801561027d57600080fd5b506102866107bf565b60405161029391906135a1565b60405180910390f35b3480156102a857600080fd5b506102c360048036038101906102be9190613661565b610851565b6040516102d091906136bc565b60405180910390f35b3480156102e557600080fd5b506102ee610874565b6040516102fb91906134ed565b60405180910390f35b34801561031057600080fd5b5061032b600480360381019061032691906136d7565b61087e565b60405161033891906136bc565b60405180910390f35b34801561034d57600080fd5b50610356610a0e565b6040516103639190613746565b60405180910390f35b34801561037857600080fd5b50610381610a17565b60405161038e9190613770565b60405180910390f35b3480156103a357600080fd5b506103ac610a4a565b6040516103b991906137a4565b60405180910390f35b3480156103ce57600080fd5b506103e960048036038101906103e491906137bf565b610a59565b005b3480156103f757600080fd5b50610412600480360381019061040d9190613661565b610be2565b60405161041f91906136bc565b60405180910390f35b34801561043457600080fd5b5061044f600480360381019061044a91906137ec565b610c19565b005b34801561045d57600080fd5b5061047860048036038101906104739190613661565b610c2d565b005b34801561048657600080fd5b506104a1600480360381019061049c9190613661565b610c43565b6040516104ae91906134ed565b60405180910390f35b6104d160048036038101906104cc919061394e565b610cb3565b005b3480156104df57600080fd5b506104e8610df0565b6040516104f591906137a4565b60405180910390f35b34801561050a57600080fd5b50610525600480360381019061052091906139e8565b610ea9565b005b34801561053357600080fd5b5061053c610ef6565b60405161054991906136bc565b60405180910390f35b34801561055e57600080fd5b50610579600480360381019061057491906137bf565b610f0d565b60405161058691906134ed565b60405180910390f35b34801561059b57600080fd5b506105a4610f56565b005b3480156105b257600080fd5b506105cd60048036038101906105c89190613661565b610f6a565b005b3480156105db57600080fd5b506105f660048036038101906105f191906137bf565b610f80565b60405161060391906134ed565b60405180910390f35b34801561061857600080fd5b50610621610fd1565b005b34801561062f57600080fd5b506106386111e1565b6040516106459190613770565b60405180910390f35b34801561065a57600080fd5b506106636111f0565b60405161067091906135a1565b60405180910390f35b34801561068557600080fd5b506106a0600480360381019061069b91906137ec565b611282565b6040516106ad91906134ed565b60405180910390f35b3480156106c257600080fd5b506106dd60048036038101906106d89190613661565b6112b3565b6040516106ea91906136bc565b60405180910390f35b3480156106ff57600080fd5b5061071a60048036038101906107159190613661565b61132a565b60405161072791906136bc565b60405180910390f35b34801561073c57600080fd5b5061075760048036038101906107529190613a6d565b6114a2565b005b34801561076557600080fd5b50610780600480360381019061077b9190613b0f565b6115e4565b60405161078d91906134ed565b60405180910390f35b3480156107a257600080fd5b506107bd60048036038101906107b891906137bf565b61166b565b005b6060603680546107ce90613b7e565b80601f01602080910402602001604051908101604052809291908181526020018280546107fa90613b7e565b80156108475780601f1061081c57610100808354040283529160200191610847565b820191906000526020600020905b81548152906001019060200180831161082a57829003601f168201915b5050505050905090565b60008061085c6116ef565b90506108698185856116f7565b600191505092915050565b6000603554905090565b60006108886118c2565b8361089281611940565b6108d1576040517f08c379a00000000000000000000000000000000000000000000000000000000081526004016108c890613bfc565b60405180910390fd5b836108db81611940565b61091a576040517f08c379a000000000000000000000000000000000000000000000000000000000815260040161091190613bfc565b60405180910390fd5b857f0000000000000000000000000000000000000000000000000000000000000000610945826119fa565b141561098857806040517f80b9ec4500000000000000000000000000000000000000000000000000000000815260040161097f9190613770565b60405180910390fd5b857f00000000000000000000000000000000000000000000000000000000000000006109b3826119fa565b14156109f657806040517f80b9ec450000000000000000000000000000000000000000000000000000000081526004016109ed9190613770565b60405180910390fd5b610a01888888611aaf565b9450505050509392505050565b60006012905090565b6000610a216118c2565b6101f960009054906101000a900473ffffffffffffffffffffffffffffffffffffffff16905090565b6000610a54611ade565b905090565b7f000000000000000000000000000000000000000000000000000000000000000073ffffffffffffffffffffffffffffffffffffffff163073ffffffffffffffffffffffffffffffffffffffff161415610ae8576040517f08c379a0000000000000000000000000000000000000000000000000000000008152600401610adf90613c8e565b60405180910390fd5b7f000000000000000000000000000000000000000000000000000000000000000073ffffffffffffffffffffffffffffffffffffffff16610b27611b1e565b73ffffffffffffffffffffffffffffffffffffffff1614610b7d576040517f08c379a0000000000000000000000000000000000000000000000000000000008152600401610b7490613d20565b60405180910390fd5b610b8681611b75565b610bdf81600067ffffffffffffffff811115610ba557610ba4613823565b5b6040519080825280601f01601f191660200182016040528015610bd75781602001600182028036833780820191505090505b506000611b80565b50565b600080610bed6116ef565b9050610c0e818585610bff85896115e4565b610c099190613488565b6116f7565b600191505092915050565b610c216118c2565b610c2a81611cfd565b50565b610c356118c2565b610c3f8282611d11565b5050565b6000806000610c9084609760008873ffffffffffffffffffffffffffffffffffffffff1673ffffffffffffffffffffffffffffffffffffffff168152602001908152602001600020611d27565b9150915081610ca757610ca285610f0d565b610ca9565b805b9250505092915050565b7f000000000000000000000000000000000000000000000000000000000000000073ffffffffffffffffffffffffffffffffffffffff163073ffffffffffffffffffffffffffffffffffffffff161415610d42576040517f08c379a0000000000000000000000000000000000000000000000000000000008152600401610d3990613c8e565b60405180910390fd5b7f000000000000000000000000000000000000000000000000000000000000000073ffffffffffffffffffffffffffffffffffffffff16610d81611b1e565b73ffffffffffffffffffffffffffffffffffffffff1614610dd7576040517f08c379a0000000000000000000000000000000000000000000000000000000008152600401610dce90613d20565b60405180910390fd5b610de082611b75565b610dec82826001611b80565b5050565b60007f000000000000000000000000000000000000000000000000000000000000000073ffffffffffffffffffffffffffffffffffffffff163073ffffffffffffffffffffffffffffffffffffffff1614610e80576040517f08c379a0000000000000000000000000000000000000000000000000000000008152600401610e7790613db2565b60405180910390fd5b7f360894a13ba1a3210667c828492db98dca3e2076cc3735a920a3ca505d382bbc60001b905090565b610eb16118c2565b806101f960006101000a81548173ffffffffffffffffffffffffffffffffffffffff021916908373ffffffffffffffffffffffffffffffffffffffff16021790555050565b600060fb60009054906101000a900460ff16905090565b6000603360008373ffffffffffffffffffffffffffffffffffffffff1673ffffffffffffffffffffffffffffffffffffffff168152602001908152602001600020549050919050565b610f5e6118c2565b610f686000611e1d565b565b610f726118c2565b610f7c8282611ee3565b5050565b6000610fca61016160008473ffffffffffffffffffffffffffffffffffffffff1673ffffffffffffffffffffffffffffffffffffffff168152602001908152602001600020611f03565b9050919050565b60008060019054906101000a900460ff161590508080156110025750600160008054906101000a900460ff1660ff16105b8061102f575061101130611f11565b15801561102e5750600160008054906101000a900460ff1660ff16145b5b61106e576040517f08c379a000000000000000000000000000000000000000000000000000000000815260040161106590613e44565b60405180910390fd5b60016000806101000a81548160ff021916908360ff16021790555080156110ab576001600060016101000a81548160ff0219169083151502179055505b61111f6040518060400160405280600481526020017f504b4452000000000000000000000000000000000000000000000000000000008152506040518060400160405280600481526020017f504b445200000000000000000000000000000000000000000000000000000000815250611f34565b611127611f91565b61112f611fe2565b611137612033565b61113f61208c565b61117d6040518060400160405280600481526020017f504b4452000000000000000000000000000000000000000000000000000000008152506120e5565b611185612176565b80156111de5760008060016101000a81548160ff0219169083151502179055507f7f26b83ff96e1f2b6a682f133852f6798a09c465da95921460cefb384740249860016040516111d59190613ea9565b60405180910390a15b50565b60006111eb6121c7565b905090565b6060603780546111ff90613b7e565b80601f016020809104026020016040519081016040528092919081815260200182805461122b90613b7e565b80156112785780601f1061124d57610100808354040283529160200191611278565b820191906000526020600020905b81548152906001019060200180831161125b57829003601f168201915b5050505050905090565b6000806000611292846098611d27565b91509150816112a8576112a3610874565b6112aa565b805b92505050919050565b6000806112be6116ef565b905060006112cc82866115e4565b905083811015611311576040517f08c379a000000000000000000000000000000000000000000000000000000000815260040161130890613f36565b60405180910390fd5b61131e82868684036116f7565b60019250505092915050565b600061133533611940565b611374576040517f08c379a000000000000000000000000000000000000000000000000000000000815260040161136b90613fc8565b60405180910390fd5b61137d83611940565b6113bc576040517f08c379a00000000000000000000000000000000000000000000000000000000081526004016113b39061405a565b60405180910390fd5b7f00000000000000000000000000000000000000000000000000000000000000006113e6336119fa565b14611426576040517f08c379a000000000000000000000000000000000000000000000000000000000815260040161141d906140ec565b60405180910390fd5b7f0000000000000000000000000000000000000000000000000000000000000000611450846119fa565b14611490576040517f08c379a00000000000000000000000000000000000000000000000000000000081526004016114879061417e565b60405180910390fd5b61149a83836121f1565b905092915050565b834211156114e5576040517f08c379a00000000000000000000000000000000000000000000000000000000081526004016114dc906141ea565b60405180910390fd5b60007f6e71edae12b1b97f4d1f60370fef10105fa2faae0126114a169c64845d6126c98888886115148c612214565b8960405160200161152a9695949392919061420a565b604051602081830303815290604052805190602001209050600061154d82612273565b9050600061155d8287878761228d565b90508973ffffffffffffffffffffffffffffffffffffffff168173ffffffffffffffffffffffffffffffffffffffff16146115cd576040517f08c379a00000000000000000000000000000000000000000000000000000000081526004016115c4906142b7565b60405180910390fd5b6115d88a8a8a6116f7565b50505050505050505050565b6000603460008473ffffffffffffffffffffffffffffffffffffffff1673ffffffffffffffffffffffffffffffffffffffff16815260200190815260200160002060008373ffffffffffffffffffffffffffffffffffffffff1673ffffffffffffffffffffffffffffffffffffffff16815260200190815260200160002054905092915050565b6116736118c2565b600073ffffffffffffffffffffffffffffffffffffffff168173ffffffffffffffffffffffffffffffffffffffff1614156116e3576040517f08c379a00000000000000000000000000000000000000000000000000000000081526004016116da90614349565b60405180910390fd5b6116ec81611e1d565b50565b600033905090565b600073ffffffffffffffffffffffffffffffffffffffff168373ffffffffffffffffffffffffffffffffffffffff161415611767576040517f08c379a000000000000000000000000000000000000000000000000000000000815260040161175e906143db565b60405180910390fd5b600073ffffffffffffffffffffffffffffffffffffffff168273ffffffffffffffffffffffffffffffffffffffff1614156117d7576040517f08c379a00000000000000000000000000000000000000000000000000000000081526004016117ce9061446d565b60405180910390fd5b80603460008573ffffffffffffffffffffffffffffffffffffffff1673ffffffffffffffffffffffffffffffffffffffff16815260200190815260200160002060008473ffffffffffffffffffffffffffffffffffffffff1673ffffffffffffffffffffffffffffffffffffffff168152602001908152602001600020819055508173ffffffffffffffffffffffffffffffffffffffff168373ffffffffffffffffffffffffffffffffffffffff167f8c5be1e5ebec7d5bd14f71427d1e84f3dd0314c0f7b2291e5b200ac8c7c3b925836040516118b591906134ed565b60405180910390a3505050565b6118ca6116ef565b73ffffffffffffffffffffffffffffffffffffffff166118e86111e1565b73ffffffffffffffffffffffffffffffffffffffff161461193e576040517f08c379a0000000000000000000000000000000000000000000000000000000008152600401611935906144d9565b60405180910390fd5b565b6000806101f960009054906101000a900473ffffffffffffffffffffffffffffffffffffffff1673ffffffffffffffffffffffffffffffffffffffff1663d117fc99846040518263ffffffff1660e01b815260040161199f9190613770565b60206040518083038186803b1580156119b757600080fd5b505afa1580156119cb573d6000803e3d6000fd5b505050506040513d601f19601f820116820180604052508101906119ef9190614525565b905080915050919050565b60006101f960009054906101000a900473ffffffffffffffffffffffffffffffffffffffff1673ffffffffffffffffffffffffffffffffffffffff16631e9f3d5e836040518263ffffffff1660e01b8152600401611a589190613770565b60206040518083038186803b158015611a7057600080fd5b505afa158015611a84573d6000803e3d6000fd5b505050506040513d601f19601f82011682018060405250810190611aa89190614567565b9050919050565b600080611aba6116ef565b9050611ac78582856122b8565b611ad2858585612344565b60019150509392505050565b6000611b197f8b73c3c69bb8fe3d512ecc4cf759cc79239f7b179b0ffacaa9a75d522b39400f611b0c6125bf565b611b146125ca565b6125d5565b905090565b6000611b4c7f360894a13ba1a3210667c828492db98dca3e2076cc3735a920a3ca505d382bbc60001b61260f565b60000160009054906101000a900473ffffffffffffffffffffffffffffffffffffffff16905090565b611b7d6118c2565b50565b611bac7f4910fdfa16fed3260ed0e7147f7cc6da11a60208b5b9406d12a635614ffd914360001b612619565b60000160009054906101000a900460ff1615611bd057611bcb83612623565b611cf8565b8273ffffffffffffffffffffffffffffffffffffffff166352d1902d6040518163ffffffff1660e01b815260040160206040518083038186803b158015611c1657600080fd5b505afa925050508015611c4757506040513d601f19601f82011682018060405250810190611c449190614567565b60015b611c86576040517f08c379a0000000000000000000000000000000000000000000000000000000008152600401611c7d90614606565b60405180910390fd5b7f360894a13ba1a3210667c828492db98dca3e2076cc3735a920a3ca505d382bbc60001b8114611ceb576040517f08c379a0000000000000000000000000000000000000000000000000000000008152600401611ce290614698565b60405180910390fd5b50611cf78383836126dc565b5b505050565b611d0e611d086116ef565b82612708565b50565b611d196118c2565b611d2382826128d8565b5050565b60008060008411611d6d576040517f08c379a0000000000000000000000000000000000000000000000000000000008152600401611d6490614704565b60405180910390fd5b611d75612a30565b841115611db7576040517f08c379a0000000000000000000000000000000000000000000000000000000008152600401611dae90614770565b60405180910390fd5b6000611dcf8585600001612a4190919063ffffffff16565b90508360000180549050811415611ded576000809250925050611e16565b6001846001018281548110611e0557611e04614790565b5b906000526020600020015492509250505b9250929050565b600060c960009054906101000a900473ffffffffffffffffffffffffffffffffffffffff1690508160c960006101000a81548173ffffffffffffffffffffffffffffffffffffffff021916908373ffffffffffffffffffffffffffffffffffffffff1602179055508173ffffffffffffffffffffffffffffffffffffffff168173ffffffffffffffffffffffffffffffffffffffff167f8be0079c531659141344cd1fd0a4f28419497f9722a3daafe3b4186f6b6457e060405160405180910390a35050565b611ef582611eef6116ef565b836122b8565b611eff8282612708565b5050565b600081600001549050919050565b6000808273ffffffffffffffffffffffffffffffffffffffff163b119050919050565b600060019054906101000a900460ff16611f83576040517f08c379a0000000000000000000000000000000000000000000000000000000008152600401611f7a90614831565b60405180910390fd5b611f8d8282612afb565b5050565b600060019054906101000a900460ff16611fe0576040517f08c379a0000000000000000000000000000000000000000000000000000000008152600401611fd790614831565b60405180910390fd5b565b600060019054906101000a900460ff16612031576040517f08c379a000000000000000000000000000000000000000000000000000000000815260040161202890614831565b60405180910390fd5b565b600060019054906101000a900460ff16612082576040517f08c379a000000000000000000000000000000000000000000000000000000000815260040161207990614831565b60405180910390fd5b61208a612b7c565b565b600060019054906101000a900460ff166120db576040517f08c379a00000000000000000000000000000000000000000000000000000000081526004016120d290614831565b60405180910390fd5b6120e3612bdd565b565b600060019054906101000a900460ff16612134576040517f08c379a000000000000000000000000000000000000000000000000000000000815260040161212b90614831565b60405180910390fd5b612173816040518060400160405280600181526020017f3100000000000000000000000000000000000000000000000000000000000000815250612c49565b50565b600060019054906101000a900460ff166121c5576040517f08c379a00000000000000000000000000000000000000000000000000000000081526004016121bc90614831565b60405180910390fd5b565b600060c960009054906101000a900473ffffffffffffffffffffffffffffffffffffffff16905090565b6000806121fc6116ef565b9050612209818585612344565b600191505092915050565b60008061016160008473ffffffffffffffffffffffffffffffffffffffff1673ffffffffffffffffffffffffffffffffffffffff168152602001908152602001600020905061226281611f03565b915061226d81612cc6565b50919050565b6000612286612280611ade565b83612cdc565b9050919050565b600080600061229e87878787612d0f565b915091506122ab81612df2565b8192505050949350505050565b60006122c484846115e4565b90507fffffffffffffffffffffffffffffffffffffffffffffffffffffffffffffffff811461233e5781811015612330576040517f08c379a00000000000000000000000000000000000000000000000000000000081526004016123279061489d565b60405180910390fd5b61233d84848484036116f7565b5b50505050565b600073ffffffffffffffffffffffffffffffffffffffff168373ffffffffffffffffffffffffffffffffffffffff1614156123b4576040517f08c379a00000000000000000000000000000000000000000000000000000000081526004016123ab9061492f565b60405180910390fd5b600073ffffffffffffffffffffffffffffffffffffffff168273ffffffffffffffffffffffffffffffffffffffff161415612424576040517f08c379a000000000000000000000000000000000000000000000000000000000815260040161241b906149c1565b60405180910390fd5b61242f838383612f60565b6000603360008573ffffffffffffffffffffffffffffffffffffffff1673ffffffffffffffffffffffffffffffffffffffff168152602001908152602001600020549050818110156124b6576040517f08c379a00000000000000000000000000000000000000000000000000000000081526004016124ad90614a53565b60405180910390fd5b818103603360008673ffffffffffffffffffffffffffffffffffffffff1673ffffffffffffffffffffffffffffffffffffffff1681526020019081526020016000208190555081603360008573ffffffffffffffffffffffffffffffffffffffff1673ffffffffffffffffffffffffffffffffffffffff168152602001908152602001600020600082825401925050819055508273ffffffffffffffffffffffffffffffffffffffff168473ffffffffffffffffffffffffffffffffffffffff167fddf252ad1be2c89b69c2b068fc378daa952ba7f163c4a11628f55a4df523b3ef846040516125a691906134ed565b60405180910390a36125b9848484612f78565b50505050565b600061012d54905090565b600061012e54905090565b600083838346306040516020016125f0959493929190614a73565b6040516020818303038152906040528051906020012090509392505050565b6000819050919050565b6000819050919050565b61262c81611f11565b61266b576040517f08c379a000000000000000000000000000000000000000000000000000000000815260040161266290614b38565b60405180910390fd5b806126987f360894a13ba1a3210667c828492db98dca3e2076cc3735a920a3ca505d382bbc60001b61260f565b60000160006101000a81548173ffffffffffffffffffffffffffffffffffffffff021916908373ffffffffffffffffffffffffffffffffffffffff16021790555050565b6126e583612f7d565b6000825111806126f25750805b15612703576127018383612fcc565b505b505050565b600073ffffffffffffffffffffffffffffffffffffffff168273ffffffffffffffffffffffffffffffffffffffff161415612778576040517f08c379a000000000000000000000000000000000000000000000000000000000815260040161276f90614bca565b60405180910390fd5b61278482600083612f60565b6000603360008473ffffffffffffffffffffffffffffffffffffffff1673ffffffffffffffffffffffffffffffffffffffff1681526020019081526020016000205490508181101561280b576040517f08c379a000000000000000000000000000000000000000000000000000000000815260040161280290614c5c565b60405180910390fd5b818103603360008573ffffffffffffffffffffffffffffffffffffffff1673ffffffffffffffffffffffffffffffffffffffff1681526020019081526020016000208190555081603560008282540392505081905550600073ffffffffffffffffffffffffffffffffffffffff168373ffffffffffffffffffffffffffffffffffffffff167fddf252ad1be2c89b69c2b068fc378daa952ba7f163c4a11628f55a4df523b3ef846040516128bf91906134ed565b60405180910390a36128d383600084612f78565b505050565b600073ffffffffffffffffffffffffffffffffffffffff168273ffffffffffffffffffffffffffffffffffffffff161415612948576040517f08c379a000000000000000000000000000000000000000000000000000000000815260040161293f90614cc8565b60405180910390fd5b61295460008383612f60565b80603560008282546129669190613488565b9250508190555080603360008473ffffffffffffffffffffffffffffffffffffffff1673ffffffffffffffffffffffffffffffffffffffff168152602001908152602001600020600082825401925050819055508173ffffffffffffffffffffffffffffffffffffffff16600073ffffffffffffffffffffffffffffffffffffffff167fddf252ad1be2c89b69c2b068fc378daa952ba7f163c4a11628f55a4df523b3ef83604051612a1891906134ed565b60405180910390a3612a2c60008383612f78565b5050565b6000612a3c609a611f03565b905090565b60008083805490501415612a585760009050612af5565b600080848054905090505b80821015612aac576000612a7783836130b0565b905084612a8487836130d6565b600001541115612a9657809150612aa6565b600181612aa39190613488565b92505b50612a63565b600082118015612ad4575083612ace86600185612ac99190614ce8565b6130d6565b60000154145b15612aef57600182612ae69190614ce8565b92505050612af5565b81925050505b92915050565b600060019054906101000a900460ff16612b4a576040517f08c379a0000000000000000000000000000000000000000000000000000000008152600401612b4190614831565b60405180910390fd5b8160369080519060200190612b609291906133ac565b508060379080519060200190612b779291906133ac565b505050565b600060019054906101000a900460ff16612bcb576040517f08c379a0000000000000000000000000000000000000000000000000000000008152600401612bc290614831565b60405180910390fd5b612bdb612bd66116ef565b611e1d565b565b600060019054906101000a900460ff16612c2c576040517f08c379a0000000000000000000000000000000000000000000000000000000008152600401612c2390614831565b60405180910390fd5b600060fb60006101000a81548160ff021916908315150217905550565b600060019054906101000a900460ff16612c98576040517f08c379a0000000000000000000000000000000000000000000000000000000008152600401612c8f90614831565b60405180910390fd5b6000828051906020012090506000828051906020012090508161012d819055508061012e8190555050505050565b6001816000016000828254019250508190555050565b60008282604051602001612cf1929190614d94565b60405160208183030381529060405280519060200120905092915050565b6000807f7fffffffffffffffffffffffffffffff5d576e7357a4501ddfe92f46681b20a08360001c1115612d4a576000600391509150612de9565b600060018787878760405160008152602001604052604051612d6f9493929190614dcb565b6020604051602081039080840390855afa158015612d91573d6000803e3d6000fd5b505050602060405103519050600073ffffffffffffffffffffffffffffffffffffffff168173ffffffffffffffffffffffffffffffffffffffff161415612de057600060019250925050612de9565b80600092509250505b94509492505050565b60006004811115612e0657612e05614e10565b5b816004811115612e1957612e18614e10565b5b1415612e2457612f5d565b60016004811115612e3857612e37614e10565b5b816004811115612e4b57612e4a614e10565b5b1415612e8c576040517f08c379a0000000000000000000000000000000000000000000000000000000008152600401612e8390614e8b565b60405180910390fd5b60026004811115612ea057612e9f614e10565b5b816004811115612eb357612eb2614e10565b5b1415612ef4576040517f08c379a0000000000000000000000000000000000000000000000000000000008152600401612eeb90614ef7565b60405180910390fd5b60036004811115612f0857612f07614e10565b5b816004811115612f1b57612f1a614e10565b5b1415612f5c576040517f08c379a0000000000000000000000000000000000000000000000000000000008152600401612f5390614f89565b60405180910390fd5b5b50565b612f686130f8565b612f73838383613142565b505050565b505050565b612f8681612623565b8073ffffffffffffffffffffffffffffffffffffffff167fbc7cd75a20ee27fd9adebab32041f755214dbc6bffa90cc0225b39da2e5c2d3b60405160405180910390a250565b6060612fd783611f11565b613016576040517f08c379a000000000000000000000000000000000000000000000000000000000815260040161300d9061501b565b60405180910390fd5b6000808473ffffffffffffffffffffffffffffffffffffffff168460405161303e9190615082565b600060405180830381855af49150503d8060008114613079576040519150601f19603f3d011682016040523d82523d6000602084013e61307e565b606091505b50915091506130a68282604051806060016040528060278152602001615166602791396131fc565b9250505092915050565b600060028284186130c191906150c8565b8284166130ce9190613488565b905092915050565b600080836000528260206000200190506130ef8161321e565b91505092915050565b613100610ef6565b15613140576040517f08c379a000000000000000000000000000000000000000000000000000000000815260040161313790615145565b60405180910390fd5b565b61314d838383613228565b600073ffffffffffffffffffffffffffffffffffffffff168373ffffffffffffffffffffffffffffffffffffffff1614156131985761318b8261322d565b613193613280565b6131f7565b600073ffffffffffffffffffffffffffffffffffffffff168273ffffffffffffffffffffffffffffffffffffffff1614156131e3576131d68361322d565b6131de613280565b6131f6565b6131ec8361322d565b6131f58261322d565b5b5b505050565b6060831561320c57829050613217565b6132168383613294565b5b9392505050565b6000819050919050565b505050565b61327d609760008373ffffffffffffffffffffffffffffffffffffffff1673ffffffffffffffffffffffffffffffffffffffff16815260200190815260200160002061327883610f0d565b6132e4565b50565b613292609861328d610874565b6132e4565b565b6000825111156132a75781518083602001fd5b806040517f08c379a00000000000000000000000000000000000000000000000000000000081526004016132db91906135a1565b60405180910390fd5b60006132ee612a30565b9050806132fd8460000161335f565b101561335a5782600001819080600181540180825580915050600190039060005260206000200160009091909190915055826001018290806001815401808255809150506001900390600052602060002001600090919091909150555b505050565b6000808280549050141561337657600090506133a7565b81600183805490506133889190614ce8565b8154811061339957613398614790565b5b906000526020600020015490505b919050565b8280546133b890613b7e565b90600052602060002090601f0160209004810192826133da5760008555613421565b82601f106133f357805160ff1916838001178555613421565b82800160010185558215613421579182015b82811115613420578251825591602001919060010190613405565b5b50905061342e9190613432565b5090565b5b8082111561344b576000816000905550600101613433565b5090565b6000819050919050565b7f4e487b7100000000000000000000000000000000000000000000000000000000600052601160045260246000fd5b60006134938261344f565b915061349e8361344f565b9250827fffffffffffffffffffffffffffffffffffffffffffffffffffffffffffffffff038211156134d3576134d2613459565b5b828201905092915050565b6134e78161344f565b82525050565b600060208201905061350260008301846134de565b92915050565b600081519050919050565b600082825260208201905092915050565b60005b83811015613542578082015181840152602081019050613527565b83811115613551576000848401525b50505050565b6000601f19601f8301169050919050565b600061357382613508565b61357d8185613513565b935061358d818560208601613524565b61359681613557565b840191505092915050565b600060208201905081810360008301526135bb8184613568565b905092915050565b6000604051905090565b600080fd5b600080fd5b600073ffffffffffffffffffffffffffffffffffffffff82169050919050565b6000613602826135d7565b9050919050565b613612816135f7565b811461361d57600080fd5b50565b60008135905061362f81613609565b92915050565b61363e8161344f565b811461364957600080fd5b50565b60008135905061365b81613635565b92915050565b60008060408385031215613678576136776135cd565b5b600061368685828601613620565b92505060206136978582860161364c565b9150509250929050565b60008115159050919050565b6136b6816136a1565b82525050565b60006020820190506136d160008301846136ad565b92915050565b6000806000606084860312156136f0576136ef6135cd565b5b60006136fe86828701613620565b935050602061370f86828701613620565b92505060406137208682870161364c565b9150509250925092565b600060ff82169050919050565b6137408161372a565b82525050565b600060208201905061375b6000830184613737565b92915050565b61376a816135f7565b82525050565b60006020820190506137856000830184613761565b92915050565b6000819050919050565b61379e8161378b565b82525050565b60006020820190506137b96000830184613795565b92915050565b6000602082840312156137d5576137d46135cd565b5b60006137e384828501613620565b91505092915050565b600060208284031215613802576138016135cd565b5b60006138108482850161364c565b91505092915050565b600080fd5b600080fd5b7f4e487b7100000000000000000000000000000000000000000000000000000000600052604160045260246000fd5b61385b82613557565b810181811067ffffffffffffffff8211171561387a57613879613823565b5b80604052505050565b600061388d6135c3565b90506138998282613852565b919050565b600067ffffffffffffffff8211156138b9576138b8613823565b5b6138c282613557565b9050602081019050919050565b82818337600083830152505050565b60006138f16138ec8461389e565b613883565b90508281526020810184848401111561390d5761390c61381e565b5b6139188482856138cf565b509392505050565b600082601f83011261393557613934613819565b5b81356139458482602086016138de565b91505092915050565b60008060408385031215613965576139646135cd565b5b600061397385828601613620565b925050602083013567ffffffffffffffff811115613994576139936135d2565b5b6139a085828601613920565b9150509250929050565b60006139b5826135d7565b9050919050565b6139c5816139aa565b81146139d057600080fd5b50565b6000813590506139e2816139bc565b92915050565b6000602082840312156139fe576139fd6135cd565b5b6000613a0c848285016139d3565b91505092915050565b613a1e8161372a565b8114613a2957600080fd5b50565b600081359050613a3b81613a15565b92915050565b613a4a8161378b565b8114613a5557600080fd5b50565b600081359050613a6781613a41565b92915050565b600080600080600080600060e0888a031215613a8c57613a8b6135cd565b5b6000613a9a8a828b01613620565b9750506020613aab8a828b01613620565b9650506040613abc8a828b0161364c565b9550506060613acd8a828b0161364c565b9450506080613ade8a828b01613a2c565b93505060a0613aef8a828b01613a58565b92505060c0613b008a828b01613a58565b91505092959891949750929550565b60008060408385031215613b2657613b256135cd565b5b6000613b3485828601613620565b9250506020613b4585828601613620565b9150509250929050565b7f4e487b7100000000000000000000000000000000000000000000000000000000600052602260045260246000fd5b60006002820490506001821680613b9657607f821691505b60208210811415613baa57613ba9613b4f565b5b50919050565b7f555345525f4e4f545f5645524946494544000000000000000000000000000000600082015250565b6000613be6601183613513565b9150613bf182613bb0565b602082019050919050565b60006020820190508181036000830152613c1581613bd9565b9050919050565b7f46756e6374696f6e206d7573742062652063616c6c6564207468726f7567682060008201527f64656c656761746563616c6c0000000000000000000000000000000000000000602082015250565b6000613c78602c83613513565b9150613c8382613c1c565b604082019050919050565b60006020820190508181036000830152613ca781613c6b565b9050919050565b7f46756e6374696f6e206d7573742062652063616c6c6564207468726f7567682060008201527f6163746976652070726f78790000000000000000000000000000000000000000602082015250565b6000613d0a602c83613513565b9150613d1582613cae565b604082019050919050565b60006020820190508181036000830152613d3981613cfd565b9050919050565b7f555550535570677261646561626c653a206d757374206e6f742062652063616c60008201527f6c6564207468726f7567682064656c656761746563616c6c0000000000000000602082015250565b6000613d9c603883613513565b9150613da782613d40565b604082019050919050565b60006020820190508181036000830152613dcb81613d8f565b9050919050565b7f496e697469616c697a61626c653a20636f6e747261637420697320616c72656160008201527f647920696e697469616c697a6564000000000000000000000000000000000000602082015250565b6000613e2e602e83613513565b9150613e3982613dd2565b604082019050919050565b60006020820190508181036000830152613e5d81613e21565b9050919050565b6000819050919050565b6000819050919050565b6000613e93613e8e613e8984613e64565b613e6e565b61372a565b9050919050565b613ea381613e78565b82525050565b6000602082019050613ebe6000830184613e9a565b92915050565b7f45524332303a2064656372656173656420616c6c6f77616e63652062656c6f7760008201527f207a65726f000000000000000000000000000000000000000000000000000000602082015250565b6000613f20602583613513565b9150613f2b82613ec4565b604082019050919050565b60006020820190508181036000830152613f4f81613f13565b9050919050565b7f66726f6d3a205452414e534645525f52455155495245445f564552494649434160008201527f54494f4e5f490000000000000000000000000000000000000000000000000000602082015250565b6000613fb2602683613513565b9150613fbd82613f56565b604082019050919050565b60006020820190508181036000830152613fe181613fa5565b9050919050565b7f746f203a205452414e534645525f52455155495245445f56455249464943415460008201527f494f4e5f49000000000000000000000000000000000000000000000000000000602082015250565b6000614044602583613513565b915061404f82613fe8565b604082019050919050565b6000602082019050818103600083015261407381614037565b9050919050565b7f66726f6d3a205452414e534645525f52455155495245445f4d554c54495f534960008201527f474e415455524500000000000000000000000000000000000000000000000000602082015250565b60006140d6602783613513565b91506140e18261407a565b604082019050919050565b60006020820190508181036000830152614105816140c9565b9050919050565b7f746f3a205452414e534645525f52455155495245445f4d554c54495f5349474e60008201527f4154555245000000000000000000000000000000000000000000000000000000602082015250565b6000614168602583613513565b91506141738261410c565b604082019050919050565b600060208201905081810360008301526141978161415b565b9050919050565b7f45524332305065726d69743a206578706972656420646561646c696e65000000600082015250565b60006141d4601d83613513565b91506141df8261419e565b602082019050919050565b60006020820190508181036000830152614203816141c7565b9050919050565b600060c08201905061421f6000830189613795565b61422c6020830188613761565b6142396040830187613761565b61424660608301866134de565b61425360808301856134de565b61426060a08301846134de565b979650505050505050565b7f45524332305065726d69743a20696e76616c6964207369676e61747572650000600082015250565b60006142a1601e83613513565b91506142ac8261426b565b602082019050919050565b600060208201905081810360008301526142d081614294565b9050919050565b7f4f776e61626c653a206e6577206f776e657220697320746865207a65726f206160008201527f6464726573730000000000000000000000000000000000000000000000000000602082015250565b6000614333602683613513565b915061433e826142d7565b604082019050919050565b6000602082019050818103600083015261436281614326565b9050919050565b7f45524332303a20617070726f76652066726f6d20746865207a65726f2061646460008201527f7265737300000000000000000000000000000000000000000000000000000000602082015250565b60006143c5602483613513565b91506143d082614369565b604082019050919050565b600060208201905081810360008301526143f4816143b8565b9050919050565b7f45524332303a20617070726f766520746f20746865207a65726f20616464726560008201527f7373000000000000000000000000000000000000000000000000000000000000602082015250565b6000614457602283613513565b9150614462826143fb565b604082019050919050565b600060208201905081810360008301526144868161444a565b9050919050565b7f4f776e61626c653a2063616c6c6572206973206e6f7420746865206f776e6572600082015250565b60006144c3602083613513565b91506144ce8261448d565b602082019050919050565b600060208201905081810360008301526144f2816144b6565b9050919050565b614502816136a1565b811461450d57600080fd5b50565b60008151905061451f816144f9565b92915050565b60006020828403121561453b5761453a6135cd565b5b600061454984828501614510565b91505092915050565b60008151905061456181613a41565b92915050565b60006020828403121561457d5761457c6135cd565b5b600061458b84828501614552565b91505092915050565b7f45524331393637557067726164653a206e657720696d706c656d656e7461746960008201527f6f6e206973206e6f742055555053000000000000000000000000000000000000602082015250565b60006145f0602e83613513565b91506145fb82614594565b604082019050919050565b6000602082019050818103600083015261461f816145e3565b9050919050565b7f45524331393637557067726164653a20756e737570706f727465642070726f7860008201527f6961626c65555549440000000000000000000000000000000000000000000000602082015250565b6000614682602983613513565b915061468d82614626565b604082019050919050565b600060208201905081810360008301526146b181614675565b9050919050565b7f4552433230536e617073686f743a206964206973203000000000000000000000600082015250565b60006146ee601683613513565b91506146f9826146b8565b602082019050919050565b6000602082019050818103600083015261471d816146e1565b9050919050565b7f4552433230536e617073686f743a206e6f6e6578697374656e74206964000000600082015250565b600061475a601d83613513565b915061476582614724565b602082019050919050565b600060208201905081810360008301526147898161474d565b9050919050565b7f4e487b7100000000000000000000000000000000000000000000000000000000600052603260045260246000fd5b7f496e697469616c697a61626c653a20636f6e7472616374206973206e6f74206960008201527f6e697469616c697a696e67000000000000000000000000000000000000000000602082015250565b600061481b602b83613513565b9150614826826147bf565b604082019050919050565b6000602082019050818103600083015261484a8161480e565b9050919050565b7f45524332303a20696e73756666696369656e7420616c6c6f77616e6365000000600082015250565b6000614887601d83613513565b915061489282614851565b602082019050919050565b600060208201905081810360008301526148b68161487a565b9050919050565b7f45524332303a207472616e736665722066726f6d20746865207a65726f20616460008201527f6472657373000000000000000000000000000000000000000000000000000000602082015250565b6000614919602583613513565b9150614924826148bd565b604082019050919050565b600060208201905081810360008301526149488161490c565b9050919050565b7f45524332303a207472616e7366657220746f20746865207a65726f206164647260008201527f6573730000000000000000000000000000000000000000000000000000000000602082015250565b60006149ab602383613513565b91506149b68261494f565b604082019050919050565b600060208201905081810360008301526149da8161499e565b9050919050565b7f45524332303a207472616e7366657220616d6f756e742065786365656473206260008201527f616c616e63650000000000000000000000000000000000000000000000000000602082015250565b6000614a3d602683613513565b9150614a48826149e1565b604082019050919050565b60006020820190508181036000830152614a6c81614a30565b9050919050565b600060a082019050614a886000830188613795565b614a956020830187613795565b614aa26040830186613795565b614aaf60608301856134de565b614abc6080830184613761565b9695505050505050565b7f455243313936373a206e657720696d706c656d656e746174696f6e206973206e60008201527f6f74206120636f6e747261637400000000000000000000000000000000000000602082015250565b6000614b22602d83613513565b9150614b2d82614ac6565b604082019050919050565b60006020820190508181036000830152614b5181614b15565b9050919050565b7f45524332303a206275726e2066726f6d20746865207a65726f2061646472657360008201527f7300000000000000000000000000000000000000000000000000000000000000602082015250565b6000614bb4602183613513565b9150614bbf82614b58565b604082019050919050565b60006020820190508181036000830152614be381614ba7565b9050919050565b7f45524332303a206275726e20616d6f756e7420657863656564732062616c616e60008201527f6365000000000000000000000000000000000000000000000000000000000000602082015250565b6000614c46602283613513565b9150614c5182614bea565b604082019050919050565b60006020820190508181036000830152614c7581614c39565b9050919050565b7f45524332303a206d696e7420746f20746865207a65726f206164647265737300600082015250565b6000614cb2601f83613513565b9150614cbd82614c7c565b602082019050919050565b60006020820190508181036000830152614ce181614ca5565b9050919050565b6000614cf38261344f565b9150614cfe8361344f565b925082821015614d1157614d10613459565b5b828203905092915050565b600081905092915050565b7f1901000000000000000000000000000000000000000000000000000000000000600082015250565b6000614d5d600283614d1c565b9150614d6882614d27565b600282019050919050565b6000819050919050565b614d8e614d898261378b565b614d73565b82525050565b6000614d9f82614d50565b9150614dab8285614d7d565b602082019150614dbb8284614d7d565b6020820191508190509392505050565b6000608082019050614de06000830187613795565b614ded6020830186613737565b614dfa6040830185613795565b614e076060830184613795565b95945050505050565b7f4e487b7100000000000000000000000000000000000000000000000000000000600052602160045260246000fd5b7f45434453413a20696e76616c6964207369676e61747572650000000000000000600082015250565b6000614e75601883613513565b9150614e8082614e3f565b602082019050919050565b60006020820190508181036000830152614ea481614e68565b9050919050565b7f45434453413a20696e76616c6964207369676e6174757265206c656e67746800600082015250565b6000614ee1601f83613513565b9150614eec82614eab565b602082019050919050565b60006020820190508181036000830152614f1081614ed4565b9050919050565b7f45434453413a20696e76616c6964207369676e6174757265202773272076616c60008201527f7565000000000000000000000000000000000000000000000000000000000000602082015250565b6000614f73602283613513565b9150614f7e82614f17565b604082019050919050565b60006020820190508181036000830152614fa281614f66565b9050919050565b7f416464726573733a2064656c65676174652063616c6c20746f206e6f6e2d636f60008201527f6e74726163740000000000000000000000000000000000000000000000000000602082015250565b6000615005602683613513565b915061501082614fa9565b604082019050919050565b6000602082019050818103600083015261503481614ff8565b9050919050565b600081519050919050565b600081905092915050565b600061505c8261503b565b6150668185615046565b9350615076818560208601613524565b80840191505092915050565b600061508e8284615051565b915081905092915050565b7f4e487b7100000000000000000000000000000000000000000000000000000000600052601260045260246000fd5b60006150d38261344f565b91506150de8361344f565b9250826150ee576150ed615099565b5b828204905092915050565b7f5061757361626c653a2070617573656400000000000000000000000000000000600082015250565b600061512f601083613513565b915061513a826150f9565b602082019050919050565b6000602082019050818103600083015261515e81615122565b905091905056fe416464726573733a206c6f772d6c6576656c2064656c65676174652063616c6c206661696c6564a26469706673582212202088324724610c0bd6b9103a2779f50cd9631e49bf8aea6313043161256161b064736f6c63430008090033","opcodes":"PUSH1 0xE0 PUSH1 0x40 MSTORE ADDRESS PUSH20 0xFFFFFFFFFFFFFFFFFFFFFFFFFFFFFFFFFFFFFFFF AND PUSH1 0x80 SWAP1 PUSH20 0xFFFFFFFFFFFFFFFFFFFFFFFFFFFFFFFFFFFFFFFF AND DUP2 MSTORE POP PUSH1 0x0 PUSH2 0x1F8 SSTORE PUSH1 0x40 MLOAD PUSH1 0x20 ADD PUSH3 0x4E SWAP1 PUSH3 0x1DD JUMP JUMPDEST PUSH1 0x40 MLOAD PUSH1 0x20 DUP2 DUP4 SUB SUB DUP2 MSTORE SWAP1 PUSH1 0x40 MSTORE DUP1 MLOAD SWAP1 PUSH1 0x20 ADD KECCAK256 PUSH1 0xA0 SWAP1 DUP2 MSTORE POP PUSH1 0x40 MLOAD PUSH1 0x20 ADD PUSH3 0x7B SWAP1 PUSH3 0x244 JUMP JUMPDEST PUSH1 0x40 MLOAD PUSH1 0x20 DUP2 DUP4 SUB SUB DUP2 MSTORE SWAP1 PUSH1 0x40 MSTORE DUP1 MLOAD SWAP1 PUSH1 0x20 ADD KECCAK256 PUSH1 0xC0 SWAP1 DUP2 MSTORE POP CALLVALUE DUP1 ISZERO PUSH3 0xA4 JUMPI PUSH1 0x0 DUP1 REVERT JUMPDEST POP PUSH3 0xB5 PUSH3 0xBB PUSH1 0x20 SHL PUSH1 0x20 SHR JUMP JUMPDEST PUSH3 0x33F JUMP JUMPDEST PUSH1 0x0 PUSH1 0x1 SWAP1 SLOAD SWAP1 PUSH2 0x100 EXP SWAP1 DIV PUSH1 0xFF AND ISZERO PUSH3 0x10E JUMPI PUSH1 0x40 MLOAD PUSH32 0x8C379A000000000000000000000000000000000000000000000000000000000 DUP2 MSTORE PUSH1 0x4 ADD PUSH3 0x105 SWAP1 PUSH3 0x2E2 JUMP JUMPDEST PUSH1 0x40 MLOAD DUP1 SWAP2 SUB SWAP1 REVERT JUMPDEST PUSH1 0xFF DUP1 AND PUSH1 0x0 DUP1 SLOAD SWAP1 PUSH2 0x100 EXP SWAP1 DIV PUSH1 0xFF AND PUSH1 0xFF AND LT ISZERO PUSH3 0x180 JUMPI PUSH1 0xFF PUSH1 0x0 DUP1 PUSH2 0x100 EXP DUP2 SLOAD DUP2 PUSH1 0xFF MUL NOT AND SWAP1 DUP4 PUSH1 0xFF AND MUL OR SWAP1 SSTORE POP PUSH32 0x7F26B83FF96E1F2B6A682F133852F6798A09C465DA95921460CEFB3847402498 PUSH1 0xFF PUSH1 0x40 MLOAD PUSH3 0x177 SWAP2 SWAP1 PUSH3 0x322 JUMP JUMPDEST PUSH1 0x40 MLOAD DUP1 SWAP2 SUB SWAP1 LOG1 JUMPDEST JUMP JUMPDEST PUSH1 0x0 DUP2 SWAP1 POP SWAP3 SWAP2 POP POP JUMP JUMPDEST PUSH32 0x415050524F564544000000000000000000000000000000000000000000000000 PUSH1 0x0 DUP3 ADD MSTORE POP JUMP JUMPDEST PUSH1 0x0 PUSH3 0x1C5 PUSH1 0x8 DUP4 PUSH3 0x182 JUMP JUMPDEST SWAP2 POP PUSH3 0x1D2 DUP3 PUSH3 0x18D JUMP JUMPDEST PUSH1 0x8 DUP3 ADD SWAP1 POP SWAP2 SWAP1 POP JUMP JUMPDEST PUSH1 0x0 PUSH3 0x1EA DUP3 PUSH3 0x1B6 JUMP JUMPDEST SWAP2 POP DUP2 SWAP1 POP SWAP2 SWAP1 POP JUMP JUMPDEST PUSH32 0x4E554C4C00000000000000000000000000000000000000000000000000000000 PUSH1 0x0 DUP3 ADD MSTORE POP JUMP JUMPDEST PUSH1 0x0 PUSH3 0x22C PUSH1 0x4 DUP4 PUSH3 0x182 JUMP JUMPDEST SWAP2 POP PUSH3 0x239 DUP3 PUSH3 0x1F4 JUMP JUMPDEST PUSH1 0x4 DUP3 ADD SWAP1 POP SWAP2 SWAP1 POP JUMP JUMPDEST PUSH1 0x0 PUSH3 0x251 DUP3 PUSH3 0x21D JUMP JUMPDEST SWAP2 POP DUP2 SWAP1 POP SWAP2 SWAP1 POP JUMP JUMPDEST PUSH1 0x0 DUP3 DUP3 MSTORE PUSH1 0x20 DUP3 ADD SWAP1 POP SWAP3 SWAP2 POP POP JUMP JUMPDEST PUSH32 0x496E697469616C697A61626C653A20636F6E747261637420697320696E697469 PUSH1 0x0 DUP3 ADD MSTORE PUSH32 0x616C697A696E6700000000000000000000000000000000000000000000000000 PUSH1 0x20 DUP3 ADD MSTORE POP JUMP JUMPDEST PUSH1 0x0 PUSH3 0x2CA PUSH1 0x27 DUP4 PUSH3 0x25B JUMP JUMPDEST SWAP2 POP PUSH3 0x2D7 DUP3 PUSH3 0x26C JUMP JUMPDEST PUSH1 0x40 DUP3 ADD SWAP1 POP SWAP2 SWAP1 POP JUMP JUMPDEST PUSH1 0x0 PUSH1 0x20 DUP3 ADD SWAP1 POP DUP2 DUP2 SUB PUSH1 0x0 DUP4 ADD MSTORE PUSH3 0x2FD DUP2 PUSH3 0x2BB JUMP JUMPDEST SWAP1 POP SWAP2 SWAP1 POP JUMP JUMPDEST PUSH1 0x0 PUSH1 0xFF DUP3 AND SWAP1 POP SWAP2 SWAP1 POP JUMP JUMPDEST PUSH3 0x31C DUP2 PUSH3 0x304 JUMP JUMPDEST DUP3 MSTORE POP POP JUMP JUMPDEST PUSH1 0x0 PUSH1 0x20 DUP3 ADD SWAP1 POP PUSH3 0x339 PUSH1 0x0 DUP4 ADD DUP5 PUSH3 0x311 JUMP JUMPDEST SWAP3 SWAP2 POP POP JUMP JUMPDEST PUSH1 0x80 MLOAD PUSH1 0xA0 MLOAD PUSH1 0xC0 MLOAD PUSH2 0x51C2 PUSH3 0x399 PUSH1 0x0 CODECOPY PUSH1 0x0 DUP2 DUP2 PUSH2 0x91D ADD MSTORE PUSH2 0x98B ADD MSTORE PUSH1 0x0 DUP2 DUP2 PUSH2 0x13BE ADD MSTORE PUSH2 0x1428 ADD MSTORE PUSH1 0x0 DUP2 DUP2 PUSH2 0xA5B ADD MSTORE DUP2 DUP2 PUSH2 0xAEA ADD MSTORE DUP2 DUP2 PUSH2 0xCB5 ADD MSTORE DUP2 DUP2 PUSH2 0xD44 ADD MSTORE PUSH2 0xDF4 ADD MSTORE PUSH2 0x51C2 PUSH1 0x0 RETURN INVALID PUSH1 0x80 PUSH1 0x40 MSTORE PUSH1 0x4 CALLDATASIZE LT PUSH2 0x1C6 JUMPI PUSH1 0x0 CALLDATALOAD PUSH1 0xE0 SHR DUP1 PUSH4 0x59E78460 GT PUSH2 0xF7 JUMPI DUP1 PUSH4 0x8DA5CB5B GT PUSH2 0x95 JUMPI DUP1 PUSH4 0xA9059CBB GT PUSH2 0x64 JUMPI DUP1 PUSH4 0xA9059CBB EQ PUSH2 0x6F3 JUMPI DUP1 PUSH4 0xD505ACCF EQ PUSH2 0x730 JUMPI DUP1 PUSH4 0xDD62ED3E EQ PUSH2 0x759 JUMPI DUP1 PUSH4 0xF2FDE38B EQ PUSH2 0x796 JUMPI PUSH2 0x21E JUMP JUMPDEST DUP1 PUSH4 0x8DA5CB5B EQ PUSH2 0x623 JUMPI DUP1 PUSH4 0x95D89B41 EQ PUSH2 0x64E JUMPI DUP1 PUSH4 0x981B24D0 EQ PUSH2 0x679 JUMPI DUP1 PUSH4 0xA457C2D7 EQ PUSH2 0x6B6 JUMPI PUSH2 0x21E JUMP JUMPDEST DUP1 PUSH4 0x715018A6 GT PUSH2 0xD1 JUMPI DUP1 PUSH4 0x715018A6 EQ PUSH2 0x58F JUMPI DUP1 PUSH4 0x79CC6790 EQ PUSH2 0x5A6 JUMPI DUP1 PUSH4 0x7ECEBE00 EQ PUSH2 0x5CF JUMPI DUP1 PUSH4 0x8129FC1C EQ PUSH2 0x60C JUMPI PUSH2 0x21E JUMP JUMPDEST DUP1 PUSH4 0x59E78460 EQ PUSH2 0x4FE JUMPI DUP1 PUSH4 0x5C975ABB EQ PUSH2 0x527 JUMPI DUP1 PUSH4 0x70A08231 EQ PUSH2 0x552 JUMPI PUSH2 0x21E JUMP JUMPDEST DUP1 PUSH4 0x3659CFE6 GT PUSH2 0x164 JUMPI DUP1 PUSH4 0x449A52F8 GT PUSH2 0x13E JUMPI DUP1 PUSH4 0x449A52F8 EQ PUSH2 0x451 JUMPI DUP1 PUSH4 0x4EE2CD7E EQ PUSH2 0x47A JUMPI DUP1 PUSH4 0x4F1EF286 EQ PUSH2 0x4B7 JUMPI DUP1 PUSH4 0x52D1902D EQ PUSH2 0x4D3 JUMPI PUSH2 0x21E JUMP JUMPDEST DUP1 PUSH4 0x3659CFE6 EQ PUSH2 0x3C2 JUMPI DUP1 PUSH4 0x39509351 EQ PUSH2 0x3EB JUMPI DUP1 PUSH4 0x42966C68 EQ PUSH2 0x428 JUMPI PUSH2 0x21E JUMP JUMPDEST DUP1 PUSH4 0x23B872DD GT PUSH2 0x1A0 JUMPI DUP1 PUSH4 0x23B872DD EQ PUSH2 0x304 JUMPI DUP1 PUSH4 0x313CE567 EQ PUSH2 0x341 JUMPI DUP1 PUSH4 0x345A903F EQ PUSH2 0x36C JUMPI DUP1 PUSH4 0x3644E515 EQ PUSH2 0x397 JUMPI PUSH2 0x21E JUMP JUMPDEST DUP1 PUSH4 0x6FDDE03 EQ PUSH2 0x271 JUMPI DUP1 PUSH4 0x95EA7B3 EQ PUSH2 0x29C JUMPI DUP1 PUSH4 0x18160DDD EQ PUSH2 0x2D9 JUMPI PUSH2 0x21E JUMP JUMPDEST CALLDATASIZE PUSH2 0x21E JUMPI CALLVALUE PUSH2 0x1F8 PUSH1 0x0 DUP3 DUP3 SLOAD PUSH2 0x1DE SWAP2 SWAP1 PUSH2 0x3488 JUMP JUMPDEST SWAP3 POP POP DUP2 SWAP1 SSTORE POP PUSH32 0x42100F075A78C1DAC886A43652B5C7C76CCA3718758E13E7B726063CD20FE02C CALLVALUE PUSH1 0x40 MLOAD PUSH2 0x214 SWAP2 SWAP1 PUSH2 0x34ED JUMP JUMPDEST PUSH1 0x40 MLOAD DUP1 SWAP2 SUB SWAP1 LOG1 STOP JUMPDEST CALLVALUE PUSH2 0x1F8 PUSH1 0x0 DUP3 DUP3 SLOAD PUSH2 0x231 SWAP2 SWAP1 PUSH2 0x3488 JUMP JUMPDEST SWAP3 POP POP DUP2 SWAP1 SSTORE POP PUSH32 0x6CB8A67804B99A2876F9D2F903120D1607DF4C6BB33315433F4F5B9284BA1588 CALLVALUE PUSH1 0x40 MLOAD PUSH2 0x267 SWAP2 SWAP1 PUSH2 0x34ED JUMP JUMPDEST PUSH1 0x40 MLOAD DUP1 SWAP2 SUB SWAP1 LOG1 STOP JUMPDEST CALLVALUE DUP1 ISZERO PUSH2 0x27D JUMPI PUSH1 0x0 DUP1 REVERT JUMPDEST POP PUSH2 0x286 PUSH2 0x7BF JUMP JUMPDEST PUSH1 0x40 MLOAD PUSH2 0x293 SWAP2 SWAP1 PUSH2 0x35A1 JUMP JUMPDEST PUSH1 0x40 MLOAD DUP1 SWAP2 SUB SWAP1 RETURN JUMPDEST CALLVALUE DUP1 ISZERO PUSH2 0x2A8 JUMPI PUSH1 0x0 DUP1 REVERT JUMPDEST POP PUSH2 0x2C3 PUSH1 0x4 DUP1 CALLDATASIZE SUB DUP2 ADD SWAP1 PUSH2 0x2BE SWAP2 SWAP1 PUSH2 0x3661 JUMP JUMPDEST PUSH2 0x851 JUMP JUMPDEST PUSH1 0x40 MLOAD PUSH2 0x2D0 SWAP2 SWAP1 PUSH2 0x36BC JUMP JUMPDEST PUSH1 0x40 MLOAD DUP1 SWAP2 SUB SWAP1 RETURN JUMPDEST CALLVALUE DUP1 ISZERO PUSH2 0x2E5 JUMPI PUSH1 0x0 DUP1 REVERT JUMPDEST POP PUSH2 0x2EE PUSH2 0x874 JUMP JUMPDEST PUSH1 0x40 MLOAD PUSH2 0x2FB SWAP2 SWAP1 PUSH2 0x34ED JUMP JUMPDEST PUSH1 0x40 MLOAD DUP1 SWAP2 SUB SWAP1 RETURN JUMPDEST CALLVALUE DUP1 ISZERO PUSH2 0x310 JUMPI PUSH1 0x0 DUP1 REVERT JUMPDEST POP PUSH2 0x32B PUSH1 0x4 DUP1 CALLDATASIZE SUB DUP2 ADD SWAP1 PUSH2 0x326 SWAP2 SWAP1 PUSH2 0x36D7 JUMP JUMPDEST PUSH2 0x87E JUMP JUMPDEST PUSH1 0x40 MLOAD PUSH2 0x338 SWAP2 SWAP1 PUSH2 0x36BC JUMP JUMPDEST PUSH1 0x40 MLOAD DUP1 SWAP2 SUB SWAP1 RETURN JUMPDEST CALLVALUE DUP1 ISZERO PUSH2 0x34D JUMPI PUSH1 0x0 DUP1 REVERT JUMPDEST POP PUSH2 0x356 PUSH2 0xA0E JUMP JUMPDEST PUSH1 0x40 MLOAD PUSH2 0x363 SWAP2 SWAP1 PUSH2 0x3746 JUMP JUMPDEST PUSH1 0x40 MLOAD DUP1 SWAP2 SUB SWAP1 RETURN JUMPDEST CALLVALUE DUP1 ISZERO PUSH2 0x378 JUMPI PUSH1 0x0 DUP1 REVERT JUMPDEST POP PUSH2 0x381 PUSH2 0xA17 JUMP JUMPDEST PUSH1 0x40 MLOAD PUSH2 0x38E SWAP2 SWAP1 PUSH2 0x3770 JUMP JUMPDEST PUSH1 0x40 MLOAD DUP1 SWAP2 SUB SWAP1 RETURN JUMPDEST CALLVALUE DUP1 ISZERO PUSH2 0x3A3 JUMPI PUSH1 0x0 DUP1 REVERT JUMPDEST POP PUSH2 0x3AC PUSH2 0xA4A JUMP JUMPDEST PUSH1 0x40 MLOAD PUSH2 0x3B9 SWAP2 SWAP1 PUSH2 0x37A4 JUMP JUMPDEST PUSH1 0x40 MLOAD DUP1 SWAP2 SUB SWAP1 RETURN JUMPDEST CALLVALUE DUP1 ISZERO PUSH2 0x3CE JUMPI PUSH1 0x0 DUP1 REVERT JUMPDEST POP PUSH2 0x3E9 PUSH1 0x4 DUP1 CALLDATASIZE SUB DUP2 ADD SWAP1 PUSH2 0x3E4 SWAP2 SWAP1 PUSH2 0x37BF JUMP JUMPDEST PUSH2 0xA59 JUMP JUMPDEST STOP JUMPDEST CALLVALUE DUP1 ISZERO PUSH2 0x3F7 JUMPI PUSH1 0x0 DUP1 REVERT JUMPDEST POP PUSH2 0x412 PUSH1 0x4 DUP1 CALLDATASIZE SUB DUP2 ADD SWAP1 PUSH2 0x40D SWAP2 SWAP1 PUSH2 0x3661 JUMP JUMPDEST PUSH2 0xBE2 JUMP JUMPDEST PUSH1 0x40 MLOAD PUSH2 0x41F SWAP2 SWAP1 PUSH2 0x36BC JUMP JUMPDEST PUSH1 0x40 MLOAD DUP1 SWAP2 SUB SWAP1 RETURN JUMPDEST CALLVALUE DUP1 ISZERO PUSH2 0x434 JUMPI PUSH1 0x0 DUP1 REVERT JUMPDEST POP PUSH2 0x44F PUSH1 0x4 DUP1 CALLDATASIZE SUB DUP2 ADD SWAP1 PUSH2 0x44A SWAP2 SWAP1 PUSH2 0x37EC JUMP JUMPDEST PUSH2 0xC19 JUMP JUMPDEST STOP JUMPDEST CALLVALUE DUP1 ISZERO PUSH2 0x45D JUMPI PUSH1 0x0 DUP1 REVERT JUMPDEST POP PUSH2 0x478 PUSH1 0x4 DUP1 CALLDATASIZE SUB DUP2 ADD SWAP1 PUSH2 0x473 SWAP2 SWAP1 PUSH2 0x3661 JUMP JUMPDEST PUSH2 0xC2D JUMP JUMPDEST STOP JUMPDEST CALLVALUE DUP1 ISZERO PUSH2 0x486 JUMPI PUSH1 0x0 DUP1 REVERT JUMPDEST POP PUSH2 0x4A1 PUSH1 0x4 DUP1 CALLDATASIZE SUB DUP2 ADD SWAP1 PUSH2 0x49C SWAP2 SWAP1 PUSH2 0x3661 JUMP JUMPDEST PUSH2 0xC43 JUMP JUMPDEST PUSH1 0x40 MLOAD PUSH2 0x4AE SWAP2 SWAP1 PUSH2 0x34ED JUMP JUMPDEST PUSH1 0x40 MLOAD DUP1 SWAP2 SUB SWAP1 RETURN JUMPDEST PUSH2 0x4D1 PUSH1 0x4 DUP1 CALLDATASIZE SUB DUP2 ADD SWAP1 PUSH2 0x4CC SWAP2 SWAP1 PUSH2 0x394E JUMP JUMPDEST PUSH2 0xCB3 JUMP JUMPDEST STOP JUMPDEST CALLVALUE DUP1 ISZERO PUSH2 0x4DF JUMPI PUSH1 0x0 DUP1 REVERT JUMPDEST POP PUSH2 0x4E8 PUSH2 0xDF0 JUMP JUMPDEST PUSH1 0x40 MLOAD PUSH2 0x4F5 SWAP2 SWAP1 PUSH2 0x37A4 JUMP JUMPDEST PUSH1 0x40 MLOAD DUP1 SWAP2 SUB SWAP1 RETURN JUMPDEST CALLVALUE DUP1 ISZERO PUSH2 0x50A JUMPI PUSH1 0x0 DUP1 REVERT JUMPDEST POP PUSH2 0x525 PUSH1 0x4 DUP1 CALLDATASIZE SUB DUP2 ADD SWAP1 PUSH2 0x520 SWAP2 SWAP1 PUSH2 0x39E8 JUMP JUMPDEST PUSH2 0xEA9 JUMP JUMPDEST STOP JUMPDEST CALLVALUE DUP1 ISZERO PUSH2 0x533 JUMPI PUSH1 0x0 DUP1 REVERT JUMPDEST POP PUSH2 0x53C PUSH2 0xEF6 JUMP JUMPDEST PUSH1 0x40 MLOAD PUSH2 0x549 SWAP2 SWAP1 PUSH2 0x36BC JUMP JUMPDEST PUSH1 0x40 MLOAD DUP1 SWAP2 SUB SWAP1 RETURN JUMPDEST CALLVALUE DUP1 ISZERO PUSH2 0x55E JUMPI PUSH1 0x0 DUP1 REVERT JUMPDEST POP PUSH2 0x579 PUSH1 0x4 DUP1 CALLDATASIZE SUB DUP2 ADD SWAP1 PUSH2 0x574 SWAP2 SWAP1 PUSH2 0x37BF JUMP JUMPDEST PUSH2 0xF0D JUMP JUMPDEST PUSH1 0x40 MLOAD PUSH2 0x586 SWAP2 SWAP1 PUSH2 0x34ED JUMP JUMPDEST PUSH1 0x40 MLOAD DUP1 SWAP2 SUB SWAP1 RETURN JUMPDEST CALLVALUE DUP1 ISZERO PUSH2 0x59B JUMPI PUSH1 0x0 DUP1 REVERT JUMPDEST POP PUSH2 0x5A4 PUSH2 0xF56 JUMP JUMPDEST STOP JUMPDEST CALLVALUE DUP1 ISZERO PUSH2 0x5B2 JUMPI PUSH1 0x0 DUP1 REVERT JUMPDEST POP PUSH2 0x5CD PUSH1 0x4 DUP1 CALLDATASIZE SUB DUP2 ADD SWAP1 PUSH2 0x5C8 SWAP2 SWAP1 PUSH2 0x3661 JUMP JUMPDEST PUSH2 0xF6A JUMP JUMPDEST STOP JUMPDEST CALLVALUE DUP1 ISZERO PUSH2 0x5DB JUMPI PUSH1 0x0 DUP1 REVERT JUMPDEST POP PUSH2 0x5F6 PUSH1 0x4 DUP1 CALLDATASIZE SUB DUP2 ADD SWAP1 PUSH2 0x5F1 SWAP2 SWAP1 PUSH2 0x37BF JUMP JUMPDEST PUSH2 0xF80 JUMP JUMPDEST PUSH1 0x40 MLOAD PUSH2 0x603 SWAP2 SWAP1 PUSH2 0x34ED JUMP JUMPDEST PUSH1 0x40 MLOAD DUP1 SWAP2 SUB SWAP1 RETURN JUMPDEST CALLVALUE DUP1 ISZERO PUSH2 0x618 JUMPI PUSH1 0x0 DUP1 REVERT JUMPDEST POP PUSH2 0x621 PUSH2 0xFD1 JUMP JUMPDEST STOP JUMPDEST CALLVALUE DUP1 ISZERO PUSH2 0x62F JUMPI PUSH1 0x0 DUP1 REVERT JUMPDEST POP PUSH2 0x638 PUSH2 0x11E1 JUMP JUMPDEST PUSH1 0x40 MLOAD PUSH2 0x645 SWAP2 SWAP1 PUSH2 0x3770 JUMP JUMPDEST PUSH1 0x40 MLOAD DUP1 SWAP2 SUB SWAP1 RETURN JUMPDEST CALLVALUE DUP1 ISZERO PUSH2 0x65A JUMPI PUSH1 0x0 DUP1 REVERT JUMPDEST POP PUSH2 0x663 PUSH2 0x11F0 JUMP JUMPDEST PUSH1 0x40 MLOAD PUSH2 0x670 SWAP2 SWAP1 PUSH2 0x35A1 JUMP JUMPDEST PUSH1 0x40 MLOAD DUP1 SWAP2 SUB SWAP1 RETURN JUMPDEST CALLVALUE DUP1 ISZERO PUSH2 0x685 JUMPI PUSH1 0x0 DUP1 REVERT JUMPDEST POP PUSH2 0x6A0 PUSH1 0x4 DUP1 CALLDATASIZE SUB DUP2 ADD SWAP1 PUSH2 0x69B SWAP2 SWAP1 PUSH2 0x37EC JUMP JUMPDEST PUSH2 0x1282 JUMP JUMPDEST PUSH1 0x40 MLOAD PUSH2 0x6AD SWAP2 SWAP1 PUSH2 0x34ED JUMP JUMPDEST PUSH1 0x40 MLOAD DUP1 SWAP2 SUB SWAP1 RETURN JUMPDEST CALLVALUE DUP1 ISZERO PUSH2 0x6C2 JUMPI PUSH1 0x0 DUP1 REVERT JUMPDEST POP PUSH2 0x6DD PUSH1 0x4 DUP1 CALLDATASIZE SUB DUP2 ADD SWAP1 PUSH2 0x6D8 SWAP2 SWAP1 PUSH2 0x3661 JUMP JUMPDEST PUSH2 0x12B3 JUMP JUMPDEST PUSH1 0x40 MLOAD PUSH2 0x6EA SWAP2 SWAP1 PUSH2 0x36BC JUMP JUMPDEST PUSH1 0x40 MLOAD DUP1 SWAP2 SUB SWAP1 RETURN JUMPDEST CALLVALUE DUP1 ISZERO PUSH2 0x6FF JUMPI PUSH1 0x0 DUP1 REVERT JUMPDEST POP PUSH2 0x71A PUSH1 0x4 DUP1 CALLDATASIZE SUB DUP2 ADD SWAP1 PUSH2 0x715 SWAP2 SWAP1 PUSH2 0x3661 JUMP JUMPDEST PUSH2 0x132A JUMP JUMPDEST PUSH1 0x40 MLOAD PUSH2 0x727 SWAP2 SWAP1 PUSH2 0x36BC JUMP JUMPDEST PUSH1 0x40 MLOAD DUP1 SWAP2 SUB SWAP1 RETURN JUMPDEST CALLVALUE DUP1 ISZERO PUSH2 0x73C JUMPI PUSH1 0x0 DUP1 REVERT JUMPDEST POP PUSH2 0x757 PUSH1 0x4 DUP1 CALLDATASIZE SUB DUP2 ADD SWAP1 PUSH2 0x752 SWAP2 SWAP1 PUSH2 0x3A6D JUMP JUMPDEST PUSH2 0x14A2 JUMP JUMPDEST STOP JUMPDEST CALLVALUE DUP1 ISZERO PUSH2 0x765 JUMPI PUSH1 0x0 DUP1 REVERT JUMPDEST POP PUSH2 0x780 PUSH1 0x4 DUP1 CALLDATASIZE SUB DUP2 ADD SWAP1 PUSH2 0x77B SWAP2 SWAP1 PUSH2 0x3B0F JUMP JUMPDEST PUSH2 0x15E4 JUMP JUMPDEST PUSH1 0x40 MLOAD PUSH2 0x78D SWAP2 SWAP1 PUSH2 0x34ED JUMP JUMPDEST PUSH1 0x40 MLOAD DUP1 SWAP2 SUB SWAP1 RETURN JUMPDEST CALLVALUE DUP1 ISZERO PUSH2 0x7A2 JUMPI PUSH1 0x0 DUP1 REVERT JUMPDEST POP PUSH2 0x7BD PUSH1 0x4 DUP1 CALLDATASIZE SUB DUP2 ADD SWAP1 PUSH2 0x7B8 SWAP2 SWAP1 PUSH2 0x37BF JUMP JUMPDEST PUSH2 0x166B JUMP JUMPDEST STOP JUMPDEST PUSH1 0x60 PUSH1 0x36 DUP1 SLOAD PUSH2 0x7CE SWAP1 PUSH2 0x3B7E JUMP JUMPDEST DUP1 PUSH1 0x1F ADD PUSH1 0x20 DUP1 SWAP2 DIV MUL PUSH1 0x20 ADD PUSH1 0x40 MLOAD SWAP1 DUP2 ADD PUSH1 0x40 MSTORE DUP1 SWAP3 SWAP2 SWAP1 DUP2 DUP2 MSTORE PUSH1 0x20 ADD DUP3 DUP1 SLOAD PUSH2 0x7FA SWAP1 PUSH2 0x3B7E JUMP JUMPDEST DUP1 ISZERO PUSH2 0x847 JUMPI DUP1 PUSH1 0x1F LT PUSH2 0x81C JUMPI PUSH2 0x100 DUP1 DUP4 SLOAD DIV MUL DUP4 MSTORE SWAP2 PUSH1 0x20 ADD SWAP2 PUSH2 0x847 JUMP JUMPDEST DUP3 ADD SWAP2 SWAP1 PUSH1 0x0 MSTORE PUSH1 0x20 PUSH1 0x0 KECCAK256 SWAP1 JUMPDEST DUP2 SLOAD DUP2 MSTORE SWAP1 PUSH1 0x1 ADD SWAP1 PUSH1 0x20 ADD DUP1 DUP4 GT PUSH2 0x82A JUMPI DUP3 SWAP1 SUB PUSH1 0x1F AND DUP3 ADD SWAP2 JUMPDEST POP POP POP POP POP SWAP1 POP SWAP1 JUMP JUMPDEST PUSH1 0x0 DUP1 PUSH2 0x85C PUSH2 0x16EF JUMP JUMPDEST SWAP1 POP PUSH2 0x869 DUP2 DUP6 DUP6 PUSH2 0x16F7 JUMP JUMPDEST PUSH1 0x1 SWAP2 POP POP SWAP3 SWAP2 POP POP JUMP JUMPDEST PUSH1 0x0 PUSH1 0x35 SLOAD SWAP1 POP SWAP1 JUMP JUMPDEST PUSH1 0x0 PUSH2 0x888 PUSH2 0x18C2 JUMP JUMPDEST DUP4 PUSH2 0x892 DUP2 PUSH2 0x1940 JUMP JUMPDEST PUSH2 0x8D1 JUMPI PUSH1 0x40 MLOAD PUSH32 0x8C379A000000000000000000000000000000000000000000000000000000000 DUP2 MSTORE PUSH1 0x4 ADD PUSH2 0x8C8 SWAP1 PUSH2 0x3BFC JUMP JUMPDEST PUSH1 0x40 MLOAD DUP1 SWAP2 SUB SWAP1 REVERT JUMPDEST DUP4 PUSH2 0x8DB DUP2 PUSH2 0x1940 JUMP JUMPDEST PUSH2 0x91A JUMPI PUSH1 0x40 MLOAD PUSH32 0x8C379A000000000000000000000000000000000000000000000000000000000 DUP2 MSTORE PUSH1 0x4 ADD PUSH2 0x911 SWAP1 PUSH2 0x3BFC JUMP JUMPDEST PUSH1 0x40 MLOAD DUP1 SWAP2 SUB SWAP1 REVERT JUMPDEST DUP6 PUSH32 0x0 PUSH2 0x945 DUP3 PUSH2 0x19FA JUMP JUMPDEST EQ ISZERO PUSH2 0x988 JUMPI DUP1 PUSH1 0x40 MLOAD PUSH32 0x80B9EC4500000000000000000000000000000000000000000000000000000000 DUP2 MSTORE PUSH1 0x4 ADD PUSH2 0x97F SWAP2 SWAP1 PUSH2 0x3770 JUMP JUMPDEST PUSH1 0x40 MLOAD DUP1 SWAP2 SUB SWAP1 REVERT JUMPDEST DUP6 PUSH32 0x0 PUSH2 0x9B3 DUP3 PUSH2 0x19FA JUMP JUMPDEST EQ ISZERO PUSH2 0x9F6 JUMPI DUP1 PUSH1 0x40 MLOAD PUSH32 0x80B9EC4500000000000000000000000000000000000000000000000000000000 DUP2 MSTORE PUSH1 0x4 ADD PUSH2 0x9ED SWAP2 SWAP1 PUSH2 0x3770 JUMP JUMPDEST PUSH1 0x40 MLOAD DUP1 SWAP2 SUB SWAP1 REVERT JUMPDEST PUSH2 0xA01 DUP9 DUP9 DUP9 PUSH2 0x1AAF JUMP JUMPDEST SWAP5 POP POP POP POP POP SWAP4 SWAP3 POP POP POP JUMP JUMPDEST PUSH1 0x0 PUSH1 0x12 SWAP1 POP SWAP1 JUMP JUMPDEST PUSH1 0x0 PUSH2 0xA21 PUSH2 0x18C2 JUMP JUMPDEST PUSH2 0x1F9 PUSH1 0x0 SWAP1 SLOAD SWAP1 PUSH2 0x100 EXP SWAP1 DIV PUSH20 0xFFFFFFFFFFFFFFFFFFFFFFFFFFFFFFFFFFFFFFFF AND SWAP1 POP SWAP1 JUMP JUMPDEST PUSH1 0x0 PUSH2 0xA54 PUSH2 0x1ADE JUMP JUMPDEST SWAP1 POP SWAP1 JUMP JUMPDEST PUSH32 0x0 PUSH20 0xFFFFFFFFFFFFFFFFFFFFFFFFFFFFFFFFFFFFFFFF AND ADDRESS PUSH20 0xFFFFFFFFFFFFFFFFFFFFFFFFFFFFFFFFFFFFFFFF AND EQ ISZERO PUSH2 0xAE8 JUMPI PUSH1 0x40 MLOAD PUSH32 0x8C379A000000000000000000000000000000000000000000000000000000000 DUP2 MSTORE PUSH1 0x4 ADD PUSH2 0xADF SWAP1 PUSH2 0x3C8E JUMP JUMPDEST PUSH1 0x40 MLOAD DUP1 SWAP2 SUB SWAP1 REVERT JUMPDEST PUSH32 0x0 PUSH20 0xFFFFFFFFFFFFFFFFFFFFFFFFFFFFFFFFFFFFFFFF AND PUSH2 0xB27 PUSH2 0x1B1E JUMP JUMPDEST PUSH20 0xFFFFFFFFFFFFFFFFFFFFFFFFFFFFFFFFFFFFFFFF AND EQ PUSH2 0xB7D JUMPI PUSH1 0x40 MLOAD PUSH32 0x8C379A000000000000000000000000000000000000000000000000000000000 DUP2 MSTORE PUSH1 0x4 ADD PUSH2 0xB74 SWAP1 PUSH2 0x3D20 JUMP JUMPDEST PUSH1 0x40 MLOAD DUP1 SWAP2 SUB SWAP1 REVERT JUMPDEST PUSH2 0xB86 DUP2 PUSH2 0x1B75 JUMP JUMPDEST PUSH2 0xBDF DUP2 PUSH1 0x0 PUSH8 0xFFFFFFFFFFFFFFFF DUP2 GT ISZERO PUSH2 0xBA5 JUMPI PUSH2 0xBA4 PUSH2 0x3823 JUMP JUMPDEST JUMPDEST PUSH1 0x40 MLOAD SWAP1 DUP1 DUP3 MSTORE DUP1 PUSH1 0x1F ADD PUSH1 0x1F NOT AND PUSH1 0x20 ADD DUP3 ADD PUSH1 0x40 MSTORE DUP1 ISZERO PUSH2 0xBD7 JUMPI DUP2 PUSH1 0x20 ADD PUSH1 0x1 DUP3 MUL DUP1 CALLDATASIZE DUP4 CALLDATACOPY DUP1 DUP3 ADD SWAP2 POP POP SWAP1 POP JUMPDEST POP PUSH1 0x0 PUSH2 0x1B80 JUMP JUMPDEST POP JUMP JUMPDEST PUSH1 0x0 DUP1 PUSH2 0xBED PUSH2 0x16EF JUMP JUMPDEST SWAP1 POP PUSH2 0xC0E DUP2 DUP6 DUP6 PUSH2 0xBFF DUP6 DUP10 PUSH2 0x15E4 JUMP JUMPDEST PUSH2 0xC09 SWAP2 SWAP1 PUSH2 0x3488 JUMP JUMPDEST PUSH2 0x16F7 JUMP JUMPDEST PUSH1 0x1 SWAP2 POP POP SWAP3 SWAP2 POP POP JUMP JUMPDEST PUSH2 0xC21 PUSH2 0x18C2 JUMP JUMPDEST PUSH2 0xC2A DUP2 PUSH2 0x1CFD JUMP JUMPDEST POP JUMP JUMPDEST PUSH2 0xC35 PUSH2 0x18C2 JUMP JUMPDEST PUSH2 0xC3F DUP3 DUP3 PUSH2 0x1D11 JUMP JUMPDEST POP POP JUMP JUMPDEST PUSH1 0x0 DUP1 PUSH1 0x0 PUSH2 0xC90 DUP5 PUSH1 0x97 PUSH1 0x0 DUP9 PUSH20 0xFFFFFFFFFFFFFFFFFFFFFFFFFFFFFFFFFFFFFFFF AND PUSH20 0xFFFFFFFFFFFFFFFFFFFFFFFFFFFFFFFFFFFFFFFF AND DUP2 MSTORE PUSH1 0x20 ADD SWAP1 DUP2 MSTORE PUSH1 0x20 ADD PUSH1 0x0 KECCAK256 PUSH2 0x1D27 JUMP JUMPDEST SWAP2 POP SWAP2 POP DUP2 PUSH2 0xCA7 JUMPI PUSH2 0xCA2 DUP6 PUSH2 0xF0D JUMP JUMPDEST PUSH2 0xCA9 JUMP JUMPDEST DUP1 JUMPDEST SWAP3 POP POP POP SWAP3 SWAP2 POP POP JUMP JUMPDEST PUSH32 0x0 PUSH20 0xFFFFFFFFFFFFFFFFFFFFFFFFFFFFFFFFFFFFFFFF AND ADDRESS PUSH20 0xFFFFFFFFFFFFFFFFFFFFFFFFFFFFFFFFFFFFFFFF AND EQ ISZERO PUSH2 0xD42 JUMPI PUSH1 0x40 MLOAD PUSH32 0x8C379A000000000000000000000000000000000000000000000000000000000 DUP2 MSTORE PUSH1 0x4 ADD PUSH2 0xD39 SWAP1 PUSH2 0x3C8E JUMP JUMPDEST PUSH1 0x40 MLOAD DUP1 SWAP2 SUB SWAP1 REVERT JUMPDEST PUSH32 0x0 PUSH20 0xFFFFFFFFFFFFFFFFFFFFFFFFFFFFFFFFFFFFFFFF AND PUSH2 0xD81 PUSH2 0x1B1E JUMP JUMPDEST PUSH20 0xFFFFFFFFFFFFFFFFFFFFFFFFFFFFFFFFFFFFFFFF AND EQ PUSH2 0xDD7 JUMPI PUSH1 0x40 MLOAD PUSH32 0x8C379A000000000000000000000000000000000000000000000000000000000 DUP2 MSTORE PUSH1 0x4 ADD PUSH2 0xDCE SWAP1 PUSH2 0x3D20 JUMP JUMPDEST PUSH1 0x40 MLOAD DUP1 SWAP2 SUB SWAP1 REVERT JUMPDEST PUSH2 0xDE0 DUP3 PUSH2 0x1B75 JUMP JUMPDEST PUSH2 0xDEC DUP3 DUP3 PUSH1 0x1 PUSH2 0x1B80 JUMP JUMPDEST POP POP JUMP JUMPDEST PUSH1 0x0 PUSH32 0x0 PUSH20 0xFFFFFFFFFFFFFFFFFFFFFFFFFFFFFFFFFFFFFFFF AND ADDRESS PUSH20 0xFFFFFFFFFFFFFFFFFFFFFFFFFFFFFFFFFFFFFFFF AND EQ PUSH2 0xE80 JUMPI PUSH1 0x40 MLOAD PUSH32 0x8C379A000000000000000000000000000000000000000000000000000000000 DUP2 MSTORE PUSH1 0x4 ADD PUSH2 0xE77 SWAP1 PUSH2 0x3DB2 JUMP JUMPDEST PUSH1 0x40 MLOAD DUP1 SWAP2 SUB SWAP1 REVERT JUMPDEST PUSH32 0x360894A13BA1A3210667C828492DB98DCA3E2076CC3735A920A3CA505D382BBC PUSH1 0x0 SHL SWAP1 POP SWAP1 JUMP JUMPDEST PUSH2 0xEB1 PUSH2 0x18C2 JUMP JUMPDEST DUP1 PUSH2 0x1F9 PUSH1 0x0 PUSH2 0x100 EXP DUP2 SLOAD DUP2 PUSH20 0xFFFFFFFFFFFFFFFFFFFFFFFFFFFFFFFFFFFFFFFF MUL NOT AND SWAP1 DUP4 PUSH20 0xFFFFFFFFFFFFFFFFFFFFFFFFFFFFFFFFFFFFFFFF AND MUL OR SWAP1 SSTORE POP POP JUMP JUMPDEST PUSH1 0x0 PUSH1 0xFB PUSH1 0x0 SWAP1 SLOAD SWAP1 PUSH2 0x100 EXP SWAP1 DIV PUSH1 0xFF AND SWAP1 POP SWAP1 JUMP JUMPDEST PUSH1 0x0 PUSH1 0x33 PUSH1 0x0 DUP4 PUSH20 0xFFFFFFFFFFFFFFFFFFFFFFFFFFFFFFFFFFFFFFFF AND PUSH20 0xFFFFFFFFFFFFFFFFFFFFFFFFFFFFFFFFFFFFFFFF AND DUP2 MSTORE PUSH1 0x20 ADD SWAP1 DUP2 MSTORE PUSH1 0x20 ADD PUSH1 0x0 KECCAK256 SLOAD SWAP1 POP SWAP2 SWAP1 POP JUMP JUMPDEST PUSH2 0xF5E PUSH2 0x18C2 JUMP JUMPDEST PUSH2 0xF68 PUSH1 0x0 PUSH2 0x1E1D JUMP JUMPDEST JUMP JUMPDEST PUSH2 0xF72 PUSH2 0x18C2 JUMP JUMPDEST PUSH2 0xF7C DUP3 DUP3 PUSH2 0x1EE3 JUMP JUMPDEST POP POP JUMP JUMPDEST PUSH1 0x0 PUSH2 0xFCA PUSH2 0x161 PUSH1 0x0 DUP5 PUSH20 0xFFFFFFFFFFFFFFFFFFFFFFFFFFFFFFFFFFFFFFFF AND PUSH20 0xFFFFFFFFFFFFFFFFFFFFFFFFFFFFFFFFFFFFFFFF AND DUP2 MSTORE PUSH1 0x20 ADD SWAP1 DUP2 MSTORE PUSH1 0x20 ADD PUSH1 0x0 KECCAK256 PUSH2 0x1F03 JUMP JUMPDEST SWAP1 POP SWAP2 SWAP1 POP JUMP JUMPDEST PUSH1 0x0 DUP1 PUSH1 0x1 SWAP1 SLOAD SWAP1 PUSH2 0x100 EXP SWAP1 DIV PUSH1 0xFF AND ISZERO SWAP1 POP DUP1 DUP1 ISZERO PUSH2 0x1002 JUMPI POP PUSH1 0x1 PUSH1 0x0 DUP1 SLOAD SWAP1 PUSH2 0x100 EXP SWAP1 DIV PUSH1 0xFF AND PUSH1 0xFF AND LT JUMPDEST DUP1 PUSH2 0x102F JUMPI POP PUSH2 0x1011 ADDRESS PUSH2 0x1F11 JUMP JUMPDEST ISZERO DUP1 ISZERO PUSH2 0x102E JUMPI POP PUSH1 0x1 PUSH1 0x0 DUP1 SLOAD SWAP1 PUSH2 0x100 EXP SWAP1 DIV PUSH1 0xFF AND PUSH1 0xFF AND EQ JUMPDEST JUMPDEST PUSH2 0x106E JUMPI PUSH1 0x40 MLOAD PUSH32 0x8C379A000000000000000000000000000000000000000000000000000000000 DUP2 MSTORE PUSH1 0x4 ADD PUSH2 0x1065 SWAP1 PUSH2 0x3E44 JUMP JUMPDEST PUSH1 0x40 MLOAD DUP1 SWAP2 SUB SWAP1 REVERT JUMPDEST PUSH1 0x1 PUSH1 0x0 DUP1 PUSH2 0x100 EXP DUP2 SLOAD DUP2 PUSH1 0xFF MUL NOT AND SWAP1 DUP4 PUSH1 0xFF AND MUL OR SWAP1 SSTORE POP DUP1 ISZERO PUSH2 0x10AB JUMPI PUSH1 0x1 PUSH1 0x0 PUSH1 0x1 PUSH2 0x100 EXP DUP2 SLOAD DUP2 PUSH1 0xFF MUL NOT AND SWAP1 DUP4 ISZERO ISZERO MUL OR SWAP1 SSTORE POP JUMPDEST PUSH2 0x111F PUSH1 0x40 MLOAD DUP1 PUSH1 0x40 ADD PUSH1 0x40 MSTORE DUP1 PUSH1 0x4 DUP2 MSTORE PUSH1 0x20 ADD PUSH32 0x504B445200000000000000000000000000000000000000000000000000000000 DUP2 MSTORE POP PUSH1 0x40 MLOAD DUP1 PUSH1 0x40 ADD PUSH1 0x40 MSTORE DUP1 PUSH1 0x4 DUP2 MSTORE PUSH1 0x20 ADD PUSH32 0x504B445200000000000000000000000000000000000000000000000000000000 DUP2 MSTORE POP PUSH2 0x1F34 JUMP JUMPDEST PUSH2 0x1127 PUSH2 0x1F91 JUMP JUMPDEST PUSH2 0x112F PUSH2 0x1FE2 JUMP JUMPDEST PUSH2 0x1137 PUSH2 0x2033 JUMP JUMPDEST PUSH2 0x113F PUSH2 0x208C JUMP JUMPDEST PUSH2 0x117D PUSH1 0x40 MLOAD DUP1 PUSH1 0x40 ADD PUSH1 0x40 MSTORE DUP1 PUSH1 0x4 DUP2 MSTORE PUSH1 0x20 ADD PUSH32 0x504B445200000000000000000000000000000000000000000000000000000000 DUP2 MSTORE POP PUSH2 0x20E5 JUMP JUMPDEST PUSH2 0x1185 PUSH2 0x2176 JUMP JUMPDEST DUP1 ISZERO PUSH2 0x11DE JUMPI PUSH1 0x0 DUP1 PUSH1 0x1 PUSH2 0x100 EXP DUP2 SLOAD DUP2 PUSH1 0xFF MUL NOT AND SWAP1 DUP4 ISZERO ISZERO MUL OR SWAP1 SSTORE POP PUSH32 0x7F26B83FF96E1F2B6A682F133852F6798A09C465DA95921460CEFB3847402498 PUSH1 0x1 PUSH1 0x40 MLOAD PUSH2 0x11D5 SWAP2 SWAP1 PUSH2 0x3EA9 JUMP JUMPDEST PUSH1 0x40 MLOAD DUP1 SWAP2 SUB SWAP1 LOG1 JUMPDEST POP JUMP JUMPDEST PUSH1 0x0 PUSH2 0x11EB PUSH2 0x21C7 JUMP JUMPDEST SWAP1 POP SWAP1 JUMP JUMPDEST PUSH1 0x60 PUSH1 0x37 DUP1 SLOAD PUSH2 0x11FF SWAP1 PUSH2 0x3B7E JUMP JUMPDEST DUP1 PUSH1 0x1F ADD PUSH1 0x20 DUP1 SWAP2 DIV MUL PUSH1 0x20 ADD PUSH1 0x40 MLOAD SWAP1 DUP2 ADD PUSH1 0x40 MSTORE DUP1 SWAP3 SWAP2 SWAP1 DUP2 DUP2 MSTORE PUSH1 0x20 ADD DUP3 DUP1 SLOAD PUSH2 0x122B SWAP1 PUSH2 0x3B7E JUMP JUMPDEST DUP1 ISZERO PUSH2 0x1278 JUMPI DUP1 PUSH1 0x1F LT PUSH2 0x124D JUMPI PUSH2 0x100 DUP1 DUP4 SLOAD DIV MUL DUP4 MSTORE SWAP2 PUSH1 0x20 ADD SWAP2 PUSH2 0x1278 JUMP JUMPDEST DUP3 ADD SWAP2 SWAP1 PUSH1 0x0 MSTORE PUSH1 0x20 PUSH1 0x0 KECCAK256 SWAP1 JUMPDEST DUP2 SLOAD DUP2 MSTORE SWAP1 PUSH1 0x1 ADD SWAP1 PUSH1 0x20 ADD DUP1 DUP4 GT PUSH2 0x125B JUMPI DUP3 SWAP1 SUB PUSH1 0x1F AND DUP3 ADD SWAP2 JUMPDEST POP POP POP POP POP SWAP1 POP SWAP1 JUMP JUMPDEST PUSH1 0x0 DUP1 PUSH1 0x0 PUSH2 0x1292 DUP5 PUSH1 0x98 PUSH2 0x1D27 JUMP JUMPDEST SWAP2 POP SWAP2 POP DUP2 PUSH2 0x12A8 JUMPI PUSH2 0x12A3 PUSH2 0x874 JUMP JUMPDEST PUSH2 0x12AA JUMP JUMPDEST DUP1 JUMPDEST SWAP3 POP POP POP SWAP2 SWAP1 POP JUMP JUMPDEST PUSH1 0x0 DUP1 PUSH2 0x12BE PUSH2 0x16EF JUMP JUMPDEST SWAP1 POP PUSH1 0x0 PUSH2 0x12CC DUP3 DUP7 PUSH2 0x15E4 JUMP JUMPDEST SWAP1 POP DUP4 DUP2 LT ISZERO PUSH2 0x1311 JUMPI PUSH1 0x40 MLOAD PUSH32 0x8C379A000000000000000000000000000000000000000000000000000000000 DUP2 MSTORE PUSH1 0x4 ADD PUSH2 0x1308 SWAP1 PUSH2 0x3F36 JUMP JUMPDEST PUSH1 0x40 MLOAD DUP1 SWAP2 SUB SWAP1 REVERT JUMPDEST PUSH2 0x131E DUP3 DUP7 DUP7 DUP5 SUB PUSH2 0x16F7 JUMP JUMPDEST PUSH1 0x1 SWAP3 POP POP POP SWAP3 SWAP2 POP POP JUMP JUMPDEST PUSH1 0x0 PUSH2 0x1335 CALLER PUSH2 0x1940 JUMP JUMPDEST PUSH2 0x1374 JUMPI PUSH1 0x40 MLOAD PUSH32 0x8C379A000000000000000000000000000000000000000000000000000000000 DUP2 MSTORE PUSH1 0x4 ADD PUSH2 0x136B SWAP1 PUSH2 0x3FC8 JUMP JUMPDEST PUSH1 0x40 MLOAD DUP1 SWAP2 SUB SWAP1 REVERT JUMPDEST PUSH2 0x137D DUP4 PUSH2 0x1940 JUMP JUMPDEST PUSH2 0x13BC JUMPI PUSH1 0x40 MLOAD PUSH32 0x8C379A000000000000000000000000000000000000000000000000000000000 DUP2 MSTORE PUSH1 0x4 ADD PUSH2 0x13B3 SWAP1 PUSH2 0x405A JUMP JUMPDEST PUSH1 0x40 MLOAD DUP1 SWAP2 SUB SWAP1 REVERT JUMPDEST PUSH32 0x0 PUSH2 0x13E6 CALLER PUSH2 0x19FA JUMP JUMPDEST EQ PUSH2 0x1426 JUMPI PUSH1 0x40 MLOAD PUSH32 0x8C379A000000000000000000000000000000000000000000000000000000000 DUP2 MSTORE PUSH1 0x4 ADD PUSH2 0x141D SWAP1 PUSH2 0x40EC JUMP JUMPDEST PUSH1 0x40 MLOAD DUP1 SWAP2 SUB SWAP1 REVERT JUMPDEST PUSH32 0x0 PUSH2 0x1450 DUP5 PUSH2 0x19FA JUMP JUMPDEST EQ PUSH2 0x1490 JUMPI PUSH1 0x40 MLOAD PUSH32 0x8C379A000000000000000000000000000000000000000000000000000000000 DUP2 MSTORE PUSH1 0x4 ADD PUSH2 0x1487 SWAP1 PUSH2 0x417E JUMP JUMPDEST PUSH1 0x40 MLOAD DUP1 SWAP2 SUB SWAP1 REVERT JUMPDEST PUSH2 0x149A DUP4 DUP4 PUSH2 0x21F1 JUMP JUMPDEST SWAP1 POP SWAP3 SWAP2 POP POP JUMP JUMPDEST DUP4 TIMESTAMP GT ISZERO PUSH2 0x14E5 JUMPI PUSH1 0x40 MLOAD PUSH32 0x8C379A000000000000000000000000000000000000000000000000000000000 DUP2 MSTORE PUSH1 0x4 ADD PUSH2 0x14DC SWAP1 PUSH2 0x41EA JUMP JUMPDEST PUSH1 0x40 MLOAD DUP1 SWAP2 SUB SWAP1 REVERT JUMPDEST PUSH1 0x0 PUSH32 0x6E71EDAE12B1B97F4D1F60370FEF10105FA2FAAE0126114A169C64845D6126C9 DUP9 DUP9 DUP9 PUSH2 0x1514 DUP13 PUSH2 0x2214 JUMP JUMPDEST DUP10 PUSH1 0x40 MLOAD PUSH1 0x20 ADD PUSH2 0x152A SWAP7 SWAP6 SWAP5 SWAP4 SWAP3 SWAP2 SWAP1 PUSH2 0x420A JUMP JUMPDEST PUSH1 0x40 MLOAD PUSH1 0x20 DUP2 DUP4 SUB SUB DUP2 MSTORE SWAP1 PUSH1 0x40 MSTORE DUP1 MLOAD SWAP1 PUSH1 0x20 ADD KECCAK256 SWAP1 POP PUSH1 0x0 PUSH2 0x154D DUP3 PUSH2 0x2273 JUMP JUMPDEST SWAP1 POP PUSH1 0x0 PUSH2 0x155D DUP3 DUP8 DUP8 DUP8 PUSH2 0x228D JUMP JUMPDEST SWAP1 POP DUP10 PUSH20 0xFFFFFFFFFFFFFFFFFFFFFFFFFFFFFFFFFFFFFFFF AND DUP2 PUSH20 0xFFFFFFFFFFFFFFFFFFFFFFFFFFFFFFFFFFFFFFFF AND EQ PUSH2 0x15CD JUMPI PUSH1 0x40 MLOAD PUSH32 0x8C379A000000000000000000000000000000000000000000000000000000000 DUP2 MSTORE PUSH1 0x4 ADD PUSH2 0x15C4 SWAP1 PUSH2 0x42B7 JUMP JUMPDEST PUSH1 0x40 MLOAD DUP1 SWAP2 SUB SWAP1 REVERT JUMPDEST PUSH2 0x15D8 DUP11 DUP11 DUP11 PUSH2 0x16F7 JUMP JUMPDEST POP POP POP POP POP POP POP POP POP POP JUMP JUMPDEST PUSH1 0x0 PUSH1 0x34 PUSH1 0x0 DUP5 PUSH20 0xFFFFFFFFFFFFFFFFFFFFFFFFFFFFFFFFFFFFFFFF AND PUSH20 0xFFFFFFFFFFFFFFFFFFFFFFFFFFFFFFFFFFFFFFFF AND DUP2 MSTORE PUSH1 0x20 ADD SWAP1 DUP2 MSTORE PUSH1 0x20 ADD PUSH1 0x0 KECCAK256 PUSH1 0x0 DUP4 PUSH20 0xFFFFFFFFFFFFFFFFFFFFFFFFFFFFFFFFFFFFFFFF AND PUSH20 0xFFFFFFFFFFFFFFFFFFFFFFFFFFFFFFFFFFFFFFFF AND DUP2 MSTORE PUSH1 0x20 ADD SWAP1 DUP2 MSTORE PUSH1 0x20 ADD PUSH1 0x0 KECCAK256 SLOAD SWAP1 POP SWAP3 SWAP2 POP POP JUMP JUMPDEST PUSH2 0x1673 PUSH2 0x18C2 JUMP JUMPDEST PUSH1 0x0 PUSH20 0xFFFFFFFFFFFFFFFFFFFFFFFFFFFFFFFFFFFFFFFF AND DUP2 PUSH20 0xFFFFFFFFFFFFFFFFFFFFFFFFFFFFFFFFFFFFFFFF AND EQ ISZERO PUSH2 0x16E3 JUMPI PUSH1 0x40 MLOAD PUSH32 0x8C379A000000000000000000000000000000000000000000000000000000000 DUP2 MSTORE PUSH1 0x4 ADD PUSH2 0x16DA SWAP1 PUSH2 0x4349 JUMP JUMPDEST PUSH1 0x40 MLOAD DUP1 SWAP2 SUB SWAP1 REVERT JUMPDEST PUSH2 0x16EC DUP2 PUSH2 0x1E1D JUMP JUMPDEST POP JUMP JUMPDEST PUSH1 0x0 CALLER SWAP1 POP SWAP1 JUMP JUMPDEST PUSH1 0x0 PUSH20 0xFFFFFFFFFFFFFFFFFFFFFFFFFFFFFFFFFFFFFFFF AND DUP4 PUSH20 0xFFFFFFFFFFFFFFFFFFFFFFFFFFFFFFFFFFFFFFFF AND EQ ISZERO PUSH2 0x1767 JUMPI PUSH1 0x40 MLOAD PUSH32 0x8C379A000000000000000000000000000000000000000000000000000000000 DUP2 MSTORE PUSH1 0x4 ADD PUSH2 0x175E SWAP1 PUSH2 0x43DB JUMP JUMPDEST PUSH1 0x40 MLOAD DUP1 SWAP2 SUB SWAP1 REVERT JUMPDEST PUSH1 0x0 PUSH20 0xFFFFFFFFFFFFFFFFFFFFFFFFFFFFFFFFFFFFFFFF AND DUP3 PUSH20 0xFFFFFFFFFFFFFFFFFFFFFFFFFFFFFFFFFFFFFFFF AND EQ ISZERO PUSH2 0x17D7 JUMPI PUSH1 0x40 MLOAD PUSH32 0x8C379A000000000000000000000000000000000000000000000000000000000 DUP2 MSTORE PUSH1 0x4 ADD PUSH2 0x17CE SWAP1 PUSH2 0x446D JUMP JUMPDEST PUSH1 0x40 MLOAD DUP1 SWAP2 SUB SWAP1 REVERT JUMPDEST DUP1 PUSH1 0x34 PUSH1 0x0 DUP6 PUSH20 0xFFFFFFFFFFFFFFFFFFFFFFFFFFFFFFFFFFFFFFFF AND PUSH20 0xFFFFFFFFFFFFFFFFFFFFFFFFFFFFFFFFFFFFFFFF AND DUP2 MSTORE PUSH1 0x20 ADD SWAP1 DUP2 MSTORE PUSH1 0x20 ADD PUSH1 0x0 KECCAK256 PUSH1 0x0 DUP5 PUSH20 0xFFFFFFFFFFFFFFFFFFFFFFFFFFFFFFFFFFFFFFFF AND PUSH20 0xFFFFFFFFFFFFFFFFFFFFFFFFFFFFFFFFFFFFFFFF AND DUP2 MSTORE PUSH1 0x20 ADD SWAP1 DUP2 MSTORE PUSH1 0x20 ADD PUSH1 0x0 KECCAK256 DUP2 SWAP1 SSTORE POP DUP2 PUSH20 0xFFFFFFFFFFFFFFFFFFFFFFFFFFFFFFFFFFFFFFFF AND DUP4 PUSH20 0xFFFFFFFFFFFFFFFFFFFFFFFFFFFFFFFFFFFFFFFF AND PUSH32 0x8C5BE1E5EBEC7D5BD14F71427D1E84F3DD0314C0F7B2291E5B200AC8C7C3B925 DUP4 PUSH1 0x40 MLOAD PUSH2 0x18B5 SWAP2 SWAP1 PUSH2 0x34ED JUMP JUMPDEST PUSH1 0x40 MLOAD DUP1 SWAP2 SUB SWAP1 LOG3 POP POP POP JUMP JUMPDEST PUSH2 0x18CA PUSH2 0x16EF JUMP JUMPDEST PUSH20 0xFFFFFFFFFFFFFFFFFFFFFFFFFFFFFFFFFFFFFFFF AND PUSH2 0x18E8 PUSH2 0x11E1 JUMP JUMPDEST PUSH20 0xFFFFFFFFFFFFFFFFFFFFFFFFFFFFFFFFFFFFFFFF AND EQ PUSH2 0x193E JUMPI PUSH1 0x40 MLOAD PUSH32 0x8C379A000000000000000000000000000000000000000000000000000000000 DUP2 MSTORE PUSH1 0x4 ADD PUSH2 0x1935 SWAP1 PUSH2 0x44D9 JUMP JUMPDEST PUSH1 0x40 MLOAD DUP1 SWAP2 SUB SWAP1 REVERT JUMPDEST JUMP JUMPDEST PUSH1 0x0 DUP1 PUSH2 0x1F9 PUSH1 0x0 SWAP1 SLOAD SWAP1 PUSH2 0x100 EXP SWAP1 DIV PUSH20 0xFFFFFFFFFFFFFFFFFFFFFFFFFFFFFFFFFFFFFFFF AND PUSH20 0xFFFFFFFFFFFFFFFFFFFFFFFFFFFFFFFFFFFFFFFF AND PUSH4 0xD117FC99 DUP5 PUSH1 0x40 MLOAD DUP3 PUSH4 0xFFFFFFFF AND PUSH1 0xE0 SHL DUP2 MSTORE PUSH1 0x4 ADD PUSH2 0x199F SWAP2 SWAP1 PUSH2 0x3770 JUMP JUMPDEST PUSH1 0x20 PUSH1 0x40 MLOAD DUP1 DUP4 SUB DUP2 DUP7 DUP1 EXTCODESIZE ISZERO DUP1 ISZERO PUSH2 0x19B7 JUMPI PUSH1 0x0 DUP1 REVERT JUMPDEST POP GAS STATICCALL ISZERO DUP1 ISZERO PUSH2 0x19CB JUMPI RETURNDATASIZE PUSH1 0x0 DUP1 RETURNDATACOPY RETURNDATASIZE PUSH1 0x0 REVERT JUMPDEST POP POP POP POP PUSH1 0x40 MLOAD RETURNDATASIZE PUSH1 0x1F NOT PUSH1 0x1F DUP3 ADD AND DUP3 ADD DUP1 PUSH1 0x40 MSTORE POP DUP2 ADD SWAP1 PUSH2 0x19EF SWAP2 SWAP1 PUSH2 0x4525 JUMP JUMPDEST SWAP1 POP DUP1 SWAP2 POP POP SWAP2 SWAP1 POP JUMP JUMPDEST PUSH1 0x0 PUSH2 0x1F9 PUSH1 0x0 SWAP1 SLOAD SWAP1 PUSH2 0x100 EXP SWAP1 DIV PUSH20 0xFFFFFFFFFFFFFFFFFFFFFFFFFFFFFFFFFFFFFFFF AND PUSH20 0xFFFFFFFFFFFFFFFFFFFFFFFFFFFFFFFFFFFFFFFF AND PUSH4 0x1E9F3D5E DUP4 PUSH1 0x40 MLOAD DUP3 PUSH4 0xFFFFFFFF AND PUSH1 0xE0 SHL DUP2 MSTORE PUSH1 0x4 ADD PUSH2 0x1A58 SWAP2 SWAP1 PUSH2 0x3770 JUMP JUMPDEST PUSH1 0x20 PUSH1 0x40 MLOAD DUP1 DUP4 SUB DUP2 DUP7 DUP1 EXTCODESIZE ISZERO DUP1 ISZERO PUSH2 0x1A70 JUMPI PUSH1 0x0 DUP1 REVERT JUMPDEST POP GAS STATICCALL ISZERO DUP1 ISZERO PUSH2 0x1A84 JUMPI RETURNDATASIZE PUSH1 0x0 DUP1 RETURNDATACOPY RETURNDATASIZE PUSH1 0x0 REVERT JUMPDEST POP POP POP POP PUSH1 0x40 MLOAD RETURNDATASIZE PUSH1 0x1F NOT PUSH1 0x1F DUP3 ADD AND DUP3 ADD DUP1 PUSH1 0x40 MSTORE POP DUP2 ADD SWAP1 PUSH2 0x1AA8 SWAP2 SWAP1 PUSH2 0x4567 JUMP JUMPDEST SWAP1 POP SWAP2 SWAP1 POP JUMP JUMPDEST PUSH1 0x0 DUP1 PUSH2 0x1ABA PUSH2 0x16EF JUMP JUMPDEST SWAP1 POP PUSH2 0x1AC7 DUP6 DUP3 DUP6 PUSH2 0x22B8 JUMP JUMPDEST PUSH2 0x1AD2 DUP6 DUP6 DUP6 PUSH2 0x2344 JUMP JUMPDEST PUSH1 0x1 SWAP2 POP POP SWAP4 SWAP3 POP POP POP JUMP JUMPDEST PUSH1 0x0 PUSH2 0x1B19 PUSH32 0x8B73C3C69BB8FE3D512ECC4CF759CC79239F7B179B0FFACAA9A75D522B39400F PUSH2 0x1B0C PUSH2 0x25BF JUMP JUMPDEST PUSH2 0x1B14 PUSH2 0x25CA JUMP JUMPDEST PUSH2 0x25D5 JUMP JUMPDEST SWAP1 POP SWAP1 JUMP JUMPDEST PUSH1 0x0 PUSH2 0x1B4C PUSH32 0x360894A13BA1A3210667C828492DB98DCA3E2076CC3735A920A3CA505D382BBC PUSH1 0x0 SHL PUSH2 0x260F JUMP JUMPDEST PUSH1 0x0 ADD PUSH1 0x0 SWAP1 SLOAD SWAP1 PUSH2 0x100 EXP SWAP1 DIV PUSH20 0xFFFFFFFFFFFFFFFFFFFFFFFFFFFFFFFFFFFFFFFF AND SWAP1 POP SWAP1 JUMP JUMPDEST PUSH2 0x1B7D PUSH2 0x18C2 JUMP JUMPDEST POP JUMP JUMPDEST PUSH2 0x1BAC PUSH32 0x4910FDFA16FED3260ED0E7147F7CC6DA11A60208B5B9406D12A635614FFD9143 PUSH1 0x0 SHL PUSH2 0x2619 JUMP JUMPDEST PUSH1 0x0 ADD PUSH1 0x0 SWAP1 SLOAD SWAP1 PUSH2 0x100 EXP SWAP1 DIV PUSH1 0xFF AND ISZERO PUSH2 0x1BD0 JUMPI PUSH2 0x1BCB DUP4 PUSH2 0x2623 JUMP JUMPDEST PUSH2 0x1CF8 JUMP JUMPDEST DUP3 PUSH20 0xFFFFFFFFFFFFFFFFFFFFFFFFFFFFFFFFFFFFFFFF AND PUSH4 0x52D1902D PUSH1 0x40 MLOAD DUP2 PUSH4 0xFFFFFFFF AND PUSH1 0xE0 SHL DUP2 MSTORE PUSH1 0x4 ADD PUSH1 0x20 PUSH1 0x40 MLOAD DUP1 DUP4 SUB DUP2 DUP7 DUP1 EXTCODESIZE ISZERO DUP1 ISZERO PUSH2 0x1C16 JUMPI PUSH1 0x0 DUP1 REVERT JUMPDEST POP GAS STATICCALL SWAP3 POP POP POP DUP1 ISZERO PUSH2 0x1C47 JUMPI POP PUSH1 0x40 MLOAD RETURNDATASIZE PUSH1 0x1F NOT PUSH1 0x1F DUP3 ADD AND DUP3 ADD DUP1 PUSH1 0x40 MSTORE POP DUP2 ADD SWAP1 PUSH2 0x1C44 SWAP2 SWAP1 PUSH2 0x4567 JUMP JUMPDEST PUSH1 0x1 JUMPDEST PUSH2 0x1C86 JUMPI PUSH1 0x40 MLOAD PUSH32 0x8C379A000000000000000000000000000000000000000000000000000000000 DUP2 MSTORE PUSH1 0x4 ADD PUSH2 0x1C7D SWAP1 PUSH2 0x4606 JUMP JUMPDEST PUSH1 0x40 MLOAD DUP1 SWAP2 SUB SWAP1 REVERT JUMPDEST PUSH32 0x360894A13BA1A3210667C828492DB98DCA3E2076CC3735A920A3CA505D382BBC PUSH1 0x0 SHL DUP2 EQ PUSH2 0x1CEB JUMPI PUSH1 0x40 MLOAD PUSH32 0x8C379A000000000000000000000000000000000000000000000000000000000 DUP2 MSTORE PUSH1 0x4 ADD PUSH2 0x1CE2 SWAP1 PUSH2 0x4698 JUMP JUMPDEST PUSH1 0x40 MLOAD DUP1 SWAP2 SUB SWAP1 REVERT JUMPDEST POP PUSH2 0x1CF7 DUP4 DUP4 DUP4 PUSH2 0x26DC JUMP JUMPDEST JUMPDEST POP POP POP JUMP JUMPDEST PUSH2 0x1D0E PUSH2 0x1D08 PUSH2 0x16EF JUMP JUMPDEST DUP3 PUSH2 0x2708 JUMP JUMPDEST POP JUMP JUMPDEST PUSH2 0x1D19 PUSH2 0x18C2 JUMP JUMPDEST PUSH2 0x1D23 DUP3 DUP3 PUSH2 0x28D8 JUMP JUMPDEST POP POP JUMP JUMPDEST PUSH1 0x0 DUP1 PUSH1 0x0 DUP5 GT PUSH2 0x1D6D JUMPI PUSH1 0x40 MLOAD PUSH32 0x8C379A000000000000000000000000000000000000000000000000000000000 DUP2 MSTORE PUSH1 0x4 ADD PUSH2 0x1D64 SWAP1 PUSH2 0x4704 JUMP JUMPDEST PUSH1 0x40 MLOAD DUP1 SWAP2 SUB SWAP1 REVERT JUMPDEST PUSH2 0x1D75 PUSH2 0x2A30 JUMP JUMPDEST DUP5 GT ISZERO PUSH2 0x1DB7 JUMPI PUSH1 0x40 MLOAD PUSH32 0x8C379A000000000000000000000000000000000000000000000000000000000 DUP2 MSTORE PUSH1 0x4 ADD PUSH2 0x1DAE SWAP1 PUSH2 0x4770 JUMP JUMPDEST PUSH1 0x40 MLOAD DUP1 SWAP2 SUB SWAP1 REVERT JUMPDEST PUSH1 0x0 PUSH2 0x1DCF DUP6 DUP6 PUSH1 0x0 ADD PUSH2 0x2A41 SWAP1 SWAP2 SWAP1 PUSH4 0xFFFFFFFF AND JUMP JUMPDEST SWAP1 POP DUP4 PUSH1 0x0 ADD DUP1 SLOAD SWAP1 POP DUP2 EQ ISZERO PUSH2 0x1DED JUMPI PUSH1 0x0 DUP1 SWAP3 POP SWAP3 POP POP PUSH2 0x1E16 JUMP JUMPDEST PUSH1 0x1 DUP5 PUSH1 0x1 ADD DUP3 DUP2 SLOAD DUP2 LT PUSH2 0x1E05 JUMPI PUSH2 0x1E04 PUSH2 0x4790 JUMP JUMPDEST JUMPDEST SWAP1 PUSH1 0x0 MSTORE PUSH1 0x20 PUSH1 0x0 KECCAK256 ADD SLOAD SWAP3 POP SWAP3 POP POP JUMPDEST SWAP3 POP SWAP3 SWAP1 POP JUMP JUMPDEST PUSH1 0x0 PUSH1 0xC9 PUSH1 0x0 SWAP1 SLOAD SWAP1 PUSH2 0x100 EXP SWAP1 DIV PUSH20 0xFFFFFFFFFFFFFFFFFFFFFFFFFFFFFFFFFFFFFFFF AND SWAP1 POP DUP2 PUSH1 0xC9 PUSH1 0x0 PUSH2 0x100 EXP DUP2 SLOAD DUP2 PUSH20 0xFFFFFFFFFFFFFFFFFFFFFFFFFFFFFFFFFFFFFFFF MUL NOT AND SWAP1 DUP4 PUSH20 0xFFFFFFFFFFFFFFFFFFFFFFFFFFFFFFFFFFFFFFFF AND MUL OR SWAP1 SSTORE POP DUP2 PUSH20 0xFFFFFFFFFFFFFFFFFFFFFFFFFFFFFFFFFFFFFFFF AND DUP2 PUSH20 0xFFFFFFFFFFFFFFFFFFFFFFFFFFFFFFFFFFFFFFFF AND PUSH32 0x8BE0079C531659141344CD1FD0A4F28419497F9722A3DAAFE3B4186F6B6457E0 PUSH1 0x40 MLOAD PUSH1 0x40 MLOAD DUP1 SWAP2 SUB SWAP1 LOG3 POP POP JUMP JUMPDEST PUSH2 0x1EF5 DUP3 PUSH2 0x1EEF PUSH2 0x16EF JUMP JUMPDEST DUP4 PUSH2 0x22B8 JUMP JUMPDEST PUSH2 0x1EFF DUP3 DUP3 PUSH2 0x2708 JUMP JUMPDEST POP POP JUMP JUMPDEST PUSH1 0x0 DUP2 PUSH1 0x0 ADD SLOAD SWAP1 POP SWAP2 SWAP1 POP JUMP JUMPDEST PUSH1 0x0 DUP1 DUP3 PUSH20 0xFFFFFFFFFFFFFFFFFFFFFFFFFFFFFFFFFFFFFFFF AND EXTCODESIZE GT SWAP1 POP SWAP2 SWAP1 POP JUMP JUMPDEST PUSH1 0x0 PUSH1 0x1 SWAP1 SLOAD SWAP1 PUSH2 0x100 EXP SWAP1 DIV PUSH1 0xFF AND PUSH2 0x1F83 JUMPI PUSH1 0x40 MLOAD PUSH32 0x8C379A000000000000000000000000000000000000000000000000000000000 DUP2 MSTORE PUSH1 0x4 ADD PUSH2 0x1F7A SWAP1 PUSH2 0x4831 JUMP JUMPDEST PUSH1 0x40 MLOAD DUP1 SWAP2 SUB SWAP1 REVERT JUMPDEST PUSH2 0x1F8D DUP3 DUP3 PUSH2 0x2AFB JUMP JUMPDEST POP POP JUMP JUMPDEST PUSH1 0x0 PUSH1 0x1 SWAP1 SLOAD SWAP1 PUSH2 0x100 EXP SWAP1 DIV PUSH1 0xFF AND PUSH2 0x1FE0 JUMPI PUSH1 0x40 MLOAD PUSH32 0x8C379A000000000000000000000000000000000000000000000000000000000 DUP2 MSTORE PUSH1 0x4 ADD PUSH2 0x1FD7 SWAP1 PUSH2 0x4831 JUMP JUMPDEST PUSH1 0x40 MLOAD DUP1 SWAP2 SUB SWAP1 REVERT JUMPDEST JUMP JUMPDEST PUSH1 0x0 PUSH1 0x1 SWAP1 SLOAD SWAP1 PUSH2 0x100 EXP SWAP1 DIV PUSH1 0xFF AND PUSH2 0x2031 JUMPI PUSH1 0x40 MLOAD PUSH32 0x8C379A000000000000000000000000000000000000000000000000000000000 DUP2 MSTORE PUSH1 0x4 ADD PUSH2 0x2028 SWAP1 PUSH2 0x4831 JUMP JUMPDEST PUSH1 0x40 MLOAD DUP1 SWAP2 SUB SWAP1 REVERT JUMPDEST JUMP JUMPDEST PUSH1 0x0 PUSH1 0x1 SWAP1 SLOAD SWAP1 PUSH2 0x100 EXP SWAP1 DIV PUSH1 0xFF AND PUSH2 0x2082 JUMPI PUSH1 0x40 MLOAD PUSH32 0x8C379A000000000000000000000000000000000000000000000000000000000 DUP2 MSTORE PUSH1 0x4 ADD PUSH2 0x2079 SWAP1 PUSH2 0x4831 JUMP JUMPDEST PUSH1 0x40 MLOAD DUP1 SWAP2 SUB SWAP1 REVERT JUMPDEST PUSH2 0x208A PUSH2 0x2B7C JUMP JUMPDEST JUMP JUMPDEST PUSH1 0x0 PUSH1 0x1 SWAP1 SLOAD SWAP1 PUSH2 0x100 EXP SWAP1 DIV PUSH1 0xFF AND PUSH2 0x20DB JUMPI PUSH1 0x40 MLOAD PUSH32 0x8C379A000000000000000000000000000000000000000000000000000000000 DUP2 MSTORE PUSH1 0x4 ADD PUSH2 0x20D2 SWAP1 PUSH2 0x4831 JUMP JUMPDEST PUSH1 0x40 MLOAD DUP1 SWAP2 SUB SWAP1 REVERT JUMPDEST PUSH2 0x20E3 PUSH2 0x2BDD JUMP JUMPDEST JUMP JUMPDEST PUSH1 0x0 PUSH1 0x1 SWAP1 SLOAD SWAP1 PUSH2 0x100 EXP SWAP1 DIV PUSH1 0xFF AND PUSH2 0x2134 JUMPI PUSH1 0x40 MLOAD PUSH32 0x8C379A000000000000000000000000000000000000000000000000000000000 DUP2 MSTORE PUSH1 0x4 ADD PUSH2 0x212B SWAP1 PUSH2 0x4831 JUMP JUMPDEST PUSH1 0x40 MLOAD DUP1 SWAP2 SUB SWAP1 REVERT JUMPDEST PUSH2 0x2173 DUP2 PUSH1 0x40 MLOAD DUP1 PUSH1 0x40 ADD PUSH1 0x40 MSTORE DUP1 PUSH1 0x1 DUP2 MSTORE PUSH1 0x20 ADD PUSH32 0x3100000000000000000000000000000000000000000000000000000000000000 DUP2 MSTORE POP PUSH2 0x2C49 JUMP JUMPDEST POP JUMP JUMPDEST PUSH1 0x0 PUSH1 0x1 SWAP1 SLOAD SWAP1 PUSH2 0x100 EXP SWAP1 DIV PUSH1 0xFF AND PUSH2 0x21C5 JUMPI PUSH1 0x40 MLOAD PUSH32 0x8C379A000000000000000000000000000000000000000000000000000000000 DUP2 MSTORE PUSH1 0x4 ADD PUSH2 0x21BC SWAP1 PUSH2 0x4831 JUMP JUMPDEST PUSH1 0x40 MLOAD DUP1 SWAP2 SUB SWAP1 REVERT JUMPDEST JUMP JUMPDEST PUSH1 0x0 PUSH1 0xC9 PUSH1 0x0 SWAP1 SLOAD SWAP1 PUSH2 0x100 EXP SWAP1 DIV PUSH20 0xFFFFFFFFFFFFFFFFFFFFFFFFFFFFFFFFFFFFFFFF AND SWAP1 POP SWAP1 JUMP JUMPDEST PUSH1 0x0 DUP1 PUSH2 0x21FC PUSH2 0x16EF JUMP JUMPDEST SWAP1 POP PUSH2 0x2209 DUP2 DUP6 DUP6 PUSH2 0x2344 JUMP JUMPDEST PUSH1 0x1 SWAP2 POP POP SWAP3 SWAP2 POP POP JUMP JUMPDEST PUSH1 0x0 DUP1 PUSH2 0x161 PUSH1 0x0 DUP5 PUSH20 0xFFFFFFFFFFFFFFFFFFFFFFFFFFFFFFFFFFFFFFFF AND PUSH20 0xFFFFFFFFFFFFFFFFFFFFFFFFFFFFFFFFFFFFFFFF AND DUP2 MSTORE PUSH1 0x20 ADD SWAP1 DUP2 MSTORE PUSH1 0x20 ADD PUSH1 0x0 KECCAK256 SWAP1 POP PUSH2 0x2262 DUP2 PUSH2 0x1F03 JUMP JUMPDEST SWAP2 POP PUSH2 0x226D DUP2 PUSH2 0x2CC6 JUMP JUMPDEST POP SWAP2 SWAP1 POP JUMP JUMPDEST PUSH1 0x0 PUSH2 0x2286 PUSH2 0x2280 PUSH2 0x1ADE JUMP JUMPDEST DUP4 PUSH2 0x2CDC JUMP JUMPDEST SWAP1 POP SWAP2 SWAP1 POP JUMP JUMPDEST PUSH1 0x0 DUP1 PUSH1 0x0 PUSH2 0x229E DUP8 DUP8 DUP8 DUP8 PUSH2 0x2D0F JUMP JUMPDEST SWAP2 POP SWAP2 POP PUSH2 0x22AB DUP2 PUSH2 0x2DF2 JUMP JUMPDEST DUP2 SWAP3 POP POP POP SWAP5 SWAP4 POP POP POP POP JUMP JUMPDEST PUSH1 0x0 PUSH2 0x22C4 DUP5 DUP5 PUSH2 0x15E4 JUMP JUMPDEST SWAP1 POP PUSH32 0xFFFFFFFFFFFFFFFFFFFFFFFFFFFFFFFFFFFFFFFFFFFFFFFFFFFFFFFFFFFFFFFF DUP2 EQ PUSH2 0x233E JUMPI DUP2 DUP2 LT ISZERO PUSH2 0x2330 JUMPI PUSH1 0x40 MLOAD PUSH32 0x8C379A000000000000000000000000000000000000000000000000000000000 DUP2 MSTORE PUSH1 0x4 ADD PUSH2 0x2327 SWAP1 PUSH2 0x489D JUMP JUMPDEST PUSH1 0x40 MLOAD DUP1 SWAP2 SUB SWAP1 REVERT JUMPDEST PUSH2 0x233D DUP5 DUP5 DUP5 DUP5 SUB PUSH2 0x16F7 JUMP JUMPDEST JUMPDEST POP POP POP POP JUMP JUMPDEST PUSH1 0x0 PUSH20 0xFFFFFFFFFFFFFFFFFFFFFFFFFFFFFFFFFFFFFFFF AND DUP4 PUSH20 0xFFFFFFFFFFFFFFFFFFFFFFFFFFFFFFFFFFFFFFFF AND EQ ISZERO PUSH2 0x23B4 JUMPI PUSH1 0x40 MLOAD PUSH32 0x8C379A000000000000000000000000000000000000000000000000000000000 DUP2 MSTORE PUSH1 0x4 ADD PUSH2 0x23AB SWAP1 PUSH2 0x492F JUMP JUMPDEST PUSH1 0x40 MLOAD DUP1 SWAP2 SUB SWAP1 REVERT JUMPDEST PUSH1 0x0 PUSH20 0xFFFFFFFFFFFFFFFFFFFFFFFFFFFFFFFFFFFFFFFF AND DUP3 PUSH20 0xFFFFFFFFFFFFFFFFFFFFFFFFFFFFFFFFFFFFFFFF AND EQ ISZERO PUSH2 0x2424 JUMPI PUSH1 0x40 MLOAD PUSH32 0x8C379A000000000000000000000000000000000000000000000000000000000 DUP2 MSTORE PUSH1 0x4 ADD PUSH2 0x241B SWAP1 PUSH2 0x49C1 JUMP JUMPDEST PUSH1 0x40 MLOAD DUP1 SWAP2 SUB SWAP1 REVERT JUMPDEST PUSH2 0x242F DUP4 DUP4 DUP4 PUSH2 0x2F60 JUMP JUMPDEST PUSH1 0x0 PUSH1 0x33 PUSH1 0x0 DUP6 PUSH20 0xFFFFFFFFFFFFFFFFFFFFFFFFFFFFFFFFFFFFFFFF AND PUSH20 0xFFFFFFFFFFFFFFFFFFFFFFFFFFFFFFFFFFFFFFFF AND DUP2 MSTORE PUSH1 0x20 ADD SWAP1 DUP2 MSTORE PUSH1 0x20 ADD PUSH1 0x0 KECCAK256 SLOAD SWAP1 POP DUP2 DUP2 LT ISZERO PUSH2 0x24B6 JUMPI PUSH1 0x40 MLOAD PUSH32 0x8C379A000000000000000000000000000000000000000000000000000000000 DUP2 MSTORE PUSH1 0x4 ADD PUSH2 0x24AD SWAP1 PUSH2 0x4A53 JUMP JUMPDEST PUSH1 0x40 MLOAD DUP1 SWAP2 SUB SWAP1 REVERT JUMPDEST DUP2 DUP2 SUB PUSH1 0x33 PUSH1 0x0 DUP7 PUSH20 0xFFFFFFFFFFFFFFFFFFFFFFFFFFFFFFFFFFFFFFFF AND PUSH20 0xFFFFFFFFFFFFFFFFFFFFFFFFFFFFFFFFFFFFFFFF AND DUP2 MSTORE PUSH1 0x20 ADD SWAP1 DUP2 MSTORE PUSH1 0x20 ADD PUSH1 0x0 KECCAK256 DUP2 SWAP1 SSTORE POP DUP2 PUSH1 0x33 PUSH1 0x0 DUP6 PUSH20 0xFFFFFFFFFFFFFFFFFFFFFFFFFFFFFFFFFFFFFFFF AND PUSH20 0xFFFFFFFFFFFFFFFFFFFFFFFFFFFFFFFFFFFFFFFF AND DUP2 MSTORE PUSH1 0x20 ADD SWAP1 DUP2 MSTORE PUSH1 0x20 ADD PUSH1 0x0 KECCAK256 PUSH1 0x0 DUP3 DUP3 SLOAD ADD SWAP3 POP POP DUP2 SWAP1 SSTORE POP DUP3 PUSH20 0xFFFFFFFFFFFFFFFFFFFFFFFFFFFFFFFFFFFFFFFF AND DUP5 PUSH20 0xFFFFFFFFFFFFFFFFFFFFFFFFFFFFFFFFFFFFFFFF AND PUSH32 0xDDF252AD1BE2C89B69C2B068FC378DAA952BA7F163C4A11628F55A4DF523B3EF DUP5 PUSH1 0x40 MLOAD PUSH2 0x25A6 SWAP2 SWAP1 PUSH2 0x34ED JUMP JUMPDEST PUSH1 0x40 MLOAD DUP1 SWAP2 SUB SWAP1 LOG3 PUSH2 0x25B9 DUP5 DUP5 DUP5 PUSH2 0x2F78 JUMP JUMPDEST POP POP POP POP JUMP JUMPDEST PUSH1 0x0 PUSH2 0x12D SLOAD SWAP1 POP SWAP1 JUMP JUMPDEST PUSH1 0x0 PUSH2 0x12E SLOAD SWAP1 POP SWAP1 JUMP JUMPDEST PUSH1 0x0 DUP4 DUP4 DUP4 CHAINID ADDRESS PUSH1 0x40 MLOAD PUSH1 0x20 ADD PUSH2 0x25F0 SWAP6 SWAP5 SWAP4 SWAP3 SWAP2 SWAP1 PUSH2 0x4A73 JUMP JUMPDEST PUSH1 0x40 MLOAD PUSH1 0x20 DUP2 DUP4 SUB SUB DUP2 MSTORE SWAP1 PUSH1 0x40 MSTORE DUP1 MLOAD SWAP1 PUSH1 0x20 ADD KECCAK256 SWAP1 POP SWAP4 SWAP3 POP POP POP JUMP JUMPDEST PUSH1 0x0 DUP2 SWAP1 POP SWAP2 SWAP1 POP JUMP JUMPDEST PUSH1 0x0 DUP2 SWAP1 POP SWAP2 SWAP1 POP JUMP JUMPDEST PUSH2 0x262C DUP2 PUSH2 0x1F11 JUMP JUMPDEST PUSH2 0x266B JUMPI PUSH1 0x40 MLOAD PUSH32 0x8C379A000000000000000000000000000000000000000000000000000000000 DUP2 MSTORE PUSH1 0x4 ADD PUSH2 0x2662 SWAP1 PUSH2 0x4B38 JUMP JUMPDEST PUSH1 0x40 MLOAD DUP1 SWAP2 SUB SWAP1 REVERT JUMPDEST DUP1 PUSH2 0x2698 PUSH32 0x360894A13BA1A3210667C828492DB98DCA3E2076CC3735A920A3CA505D382BBC PUSH1 0x0 SHL PUSH2 0x260F JUMP JUMPDEST PUSH1 0x0 ADD PUSH1 0x0 PUSH2 0x100 EXP DUP2 SLOAD DUP2 PUSH20 0xFFFFFFFFFFFFFFFFFFFFFFFFFFFFFFFFFFFFFFFF MUL NOT AND SWAP1 DUP4 PUSH20 0xFFFFFFFFFFFFFFFFFFFFFFFFFFFFFFFFFFFFFFFF AND MUL OR SWAP1 SSTORE POP POP JUMP JUMPDEST PUSH2 0x26E5 DUP4 PUSH2 0x2F7D JUMP JUMPDEST PUSH1 0x0 DUP3 MLOAD GT DUP1 PUSH2 0x26F2 JUMPI POP DUP1 JUMPDEST ISZERO PUSH2 0x2703 JUMPI PUSH2 0x2701 DUP4 DUP4 PUSH2 0x2FCC JUMP JUMPDEST POP JUMPDEST POP POP POP JUMP JUMPDEST PUSH1 0x0 PUSH20 0xFFFFFFFFFFFFFFFFFFFFFFFFFFFFFFFFFFFFFFFF AND DUP3 PUSH20 0xFFFFFFFFFFFFFFFFFFFFFFFFFFFFFFFFFFFFFFFF AND EQ ISZERO PUSH2 0x2778 JUMPI PUSH1 0x40 MLOAD PUSH32 0x8C379A000000000000000000000000000000000000000000000000000000000 DUP2 MSTORE PUSH1 0x4 ADD PUSH2 0x276F SWAP1 PUSH2 0x4BCA JUMP JUMPDEST PUSH1 0x40 MLOAD DUP1 SWAP2 SUB SWAP1 REVERT JUMPDEST PUSH2 0x2784 DUP3 PUSH1 0x0 DUP4 PUSH2 0x2F60 JUMP JUMPDEST PUSH1 0x0 PUSH1 0x33 PUSH1 0x0 DUP5 PUSH20 0xFFFFFFFFFFFFFFFFFFFFFFFFFFFFFFFFFFFFFFFF AND PUSH20 0xFFFFFFFFFFFFFFFFFFFFFFFFFFFFFFFFFFFFFFFF AND DUP2 MSTORE PUSH1 0x20 ADD SWAP1 DUP2 MSTORE PUSH1 0x20 ADD PUSH1 0x0 KECCAK256 SLOAD SWAP1 POP DUP2 DUP2 LT ISZERO PUSH2 0x280B JUMPI PUSH1 0x40 MLOAD PUSH32 0x8C379A000000000000000000000000000000000000000000000000000000000 DUP2 MSTORE PUSH1 0x4 ADD PUSH2 0x2802 SWAP1 PUSH2 0x4C5C JUMP JUMPDEST PUSH1 0x40 MLOAD DUP1 SWAP2 SUB SWAP1 REVERT JUMPDEST DUP2 DUP2 SUB PUSH1 0x33 PUSH1 0x0 DUP6 PUSH20 0xFFFFFFFFFFFFFFFFFFFFFFFFFFFFFFFFFFFFFFFF AND PUSH20 0xFFFFFFFFFFFFFFFFFFFFFFFFFFFFFFFFFFFFFFFF AND DUP2 MSTORE PUSH1 0x20 ADD SWAP1 DUP2 MSTORE PUSH1 0x20 ADD PUSH1 0x0 KECCAK256 DUP2 SWAP1 SSTORE POP DUP2 PUSH1 0x35 PUSH1 0x0 DUP3 DUP3 SLOAD SUB SWAP3 POP POP DUP2 SWAP1 SSTORE POP PUSH1 0x0 PUSH20 0xFFFFFFFFFFFFFFFFFFFFFFFFFFFFFFFFFFFFFFFF AND DUP4 PUSH20 0xFFFFFFFFFFFFFFFFFFFFFFFFFFFFFFFFFFFFFFFF AND PUSH32 0xDDF252AD1BE2C89B69C2B068FC378DAA952BA7F163C4A11628F55A4DF523B3EF DUP5 PUSH1 0x40 MLOAD PUSH2 0x28BF SWAP2 SWAP1 PUSH2 0x34ED JUMP JUMPDEST PUSH1 0x40 MLOAD DUP1 SWAP2 SUB SWAP1 LOG3 PUSH2 0x28D3 DUP4 PUSH1 0x0 DUP5 PUSH2 0x2F78 JUMP JUMPDEST POP POP POP JUMP JUMPDEST PUSH1 0x0 PUSH20 0xFFFFFFFFFFFFFFFFFFFFFFFFFFFFFFFFFFFFFFFF AND DUP3 PUSH20 0xFFFFFFFFFFFFFFFFFFFFFFFFFFFFFFFFFFFFFFFF AND EQ ISZERO PUSH2 0x2948 JUMPI PUSH1 0x40 MLOAD PUSH32 0x8C379A000000000000000000000000000000000000000000000000000000000 DUP2 MSTORE PUSH1 0x4 ADD PUSH2 0x293F SWAP1 PUSH2 0x4CC8 JUMP JUMPDEST PUSH1 0x40 MLOAD DUP1 SWAP2 SUB SWAP1 REVERT JUMPDEST PUSH2 0x2954 PUSH1 0x0 DUP4 DUP4 PUSH2 0x2F60 JUMP JUMPDEST DUP1 PUSH1 0x35 PUSH1 0x0 DUP3 DUP3 SLOAD PUSH2 0x2966 SWAP2 SWAP1 PUSH2 0x3488 JUMP JUMPDEST SWAP3 POP POP DUP2 SWAP1 SSTORE POP DUP1 PUSH1 0x33 PUSH1 0x0 DUP5 PUSH20 0xFFFFFFFFFFFFFFFFFFFFFFFFFFFFFFFFFFFFFFFF AND PUSH20 0xFFFFFFFFFFFFFFFFFFFFFFFFFFFFFFFFFFFFFFFF AND DUP2 MSTORE PUSH1 0x20 ADD SWAP1 DUP2 MSTORE PUSH1 0x20 ADD PUSH1 0x0 KECCAK256 PUSH1 0x0 DUP3 DUP3 SLOAD ADD SWAP3 POP POP DUP2 SWAP1 SSTORE POP DUP2 PUSH20 0xFFFFFFFFFFFFFFFFFFFFFFFFFFFFFFFFFFFFFFFF AND PUSH1 0x0 PUSH20 0xFFFFFFFFFFFFFFFFFFFFFFFFFFFFFFFFFFFFFFFF AND PUSH32 0xDDF252AD1BE2C89B69C2B068FC378DAA952BA7F163C4A11628F55A4DF523B3EF DUP4 PUSH1 0x40 MLOAD PUSH2 0x2A18 SWAP2 SWAP1 PUSH2 0x34ED JUMP JUMPDEST PUSH1 0x40 MLOAD DUP1 SWAP2 SUB SWAP1 LOG3 PUSH2 0x2A2C PUSH1 0x0 DUP4 DUP4 PUSH2 0x2F78 JUMP JUMPDEST POP POP JUMP JUMPDEST PUSH1 0x0 PUSH2 0x2A3C PUSH1 0x9A PUSH2 0x1F03 JUMP JUMPDEST SWAP1 POP SWAP1 JUMP JUMPDEST PUSH1 0x0 DUP1 DUP4 DUP1 SLOAD SWAP1 POP EQ ISZERO PUSH2 0x2A58 JUMPI PUSH1 0x0 SWAP1 POP PUSH2 0x2AF5 JUMP JUMPDEST PUSH1 0x0 DUP1 DUP5 DUP1 SLOAD SWAP1 POP SWAP1 POP JUMPDEST DUP1 DUP3 LT ISZERO PUSH2 0x2AAC JUMPI PUSH1 0x0 PUSH2 0x2A77 DUP4 DUP4 PUSH2 0x30B0 JUMP JUMPDEST SWAP1 POP DUP5 PUSH2 0x2A84 DUP8 DUP4 PUSH2 0x30D6 JUMP JUMPDEST PUSH1 0x0 ADD SLOAD GT ISZERO PUSH2 0x2A96 JUMPI DUP1 SWAP2 POP PUSH2 0x2AA6 JUMP JUMPDEST PUSH1 0x1 DUP2 PUSH2 0x2AA3 SWAP2 SWAP1 PUSH2 0x3488 JUMP JUMPDEST SWAP3 POP JUMPDEST POP PUSH2 0x2A63 JUMP JUMPDEST PUSH1 0x0 DUP3 GT DUP1 ISZERO PUSH2 0x2AD4 JUMPI POP DUP4 PUSH2 0x2ACE DUP7 PUSH1 0x1 DUP6 PUSH2 0x2AC9 SWAP2 SWAP1 PUSH2 0x4CE8 JUMP JUMPDEST PUSH2 0x30D6 JUMP JUMPDEST PUSH1 0x0 ADD SLOAD EQ JUMPDEST ISZERO PUSH2 0x2AEF JUMPI PUSH1 0x1 DUP3 PUSH2 0x2AE6 SWAP2 SWAP1 PUSH2 0x4CE8 JUMP JUMPDEST SWAP3 POP POP POP PUSH2 0x2AF5 JUMP JUMPDEST DUP2 SWAP3 POP POP POP JUMPDEST SWAP3 SWAP2 POP POP JUMP JUMPDEST PUSH1 0x0 PUSH1 0x1 SWAP1 SLOAD SWAP1 PUSH2 0x100 EXP SWAP1 DIV PUSH1 0xFF AND PUSH2 0x2B4A JUMPI PUSH1 0x40 MLOAD PUSH32 0x8C379A000000000000000000000000000000000000000000000000000000000 DUP2 MSTORE PUSH1 0x4 ADD PUSH2 0x2B41 SWAP1 PUSH2 0x4831 JUMP JUMPDEST PUSH1 0x40 MLOAD DUP1 SWAP2 SUB SWAP1 REVERT JUMPDEST DUP2 PUSH1 0x36 SWAP1 DUP1 MLOAD SWAP1 PUSH1 0x20 ADD SWAP1 PUSH2 0x2B60 SWAP3 SWAP2 SWAP1 PUSH2 0x33AC JUMP JUMPDEST POP DUP1 PUSH1 0x37 SWAP1 DUP1 MLOAD SWAP1 PUSH1 0x20 ADD SWAP1 PUSH2 0x2B77 SWAP3 SWAP2 SWAP1 PUSH2 0x33AC JUMP JUMPDEST POP POP POP JUMP JUMPDEST PUSH1 0x0 PUSH1 0x1 SWAP1 SLOAD SWAP1 PUSH2 0x100 EXP SWAP1 DIV PUSH1 0xFF AND PUSH2 0x2BCB JUMPI PUSH1 0x40 MLOAD PUSH32 0x8C379A000000000000000000000000000000000000000000000000000000000 DUP2 MSTORE PUSH1 0x4 ADD PUSH2 0x2BC2 SWAP1 PUSH2 0x4831 JUMP JUMPDEST PUSH1 0x40 MLOAD DUP1 SWAP2 SUB SWAP1 REVERT JUMPDEST PUSH2 0x2BDB PUSH2 0x2BD6 PUSH2 0x16EF JUMP JUMPDEST PUSH2 0x1E1D JUMP JUMPDEST JUMP JUMPDEST PUSH1 0x0 PUSH1 0x1 SWAP1 SLOAD SWAP1 PUSH2 0x100 EXP SWAP1 DIV PUSH1 0xFF AND PUSH2 0x2C2C JUMPI PUSH1 0x40 MLOAD PUSH32 0x8C379A000000000000000000000000000000000000000000000000000000000 DUP2 MSTORE PUSH1 0x4 ADD PUSH2 0x2C23 SWAP1 PUSH2 0x4831 JUMP JUMPDEST PUSH1 0x40 MLOAD DUP1 SWAP2 SUB SWAP1 REVERT JUMPDEST PUSH1 0x0 PUSH1 0xFB PUSH1 0x0 PUSH2 0x100 EXP DUP2 SLOAD DUP2 PUSH1 0xFF MUL NOT AND SWAP1 DUP4 ISZERO ISZERO MUL OR SWAP1 SSTORE POP JUMP JUMPDEST PUSH1 0x0 PUSH1 0x1 SWAP1 SLOAD SWAP1 PUSH2 0x100 EXP SWAP1 DIV PUSH1 0xFF AND PUSH2 0x2C98 JUMPI PUSH1 0x40 MLOAD PUSH32 0x8C379A000000000000000000000000000000000000000000000000000000000 DUP2 MSTORE PUSH1 0x4 ADD PUSH2 0x2C8F SWAP1 PUSH2 0x4831 JUMP JUMPDEST PUSH1 0x40 MLOAD DUP1 SWAP2 SUB SWAP1 REVERT JUMPDEST PUSH1 0x0 DUP3 DUP1 MLOAD SWAP1 PUSH1 0x20 ADD KECCAK256 SWAP1 POP PUSH1 0x0 DUP3 DUP1 MLOAD SWAP1 PUSH1 0x20 ADD KECCAK256 SWAP1 POP DUP2 PUSH2 0x12D DUP2 SWAP1 SSTORE POP DUP1 PUSH2 0x12E DUP2 SWAP1 SSTORE POP POP POP POP POP JUMP JUMPDEST PUSH1 0x1 DUP2 PUSH1 0x0 ADD PUSH1 0x0 DUP3 DUP3 SLOAD ADD SWAP3 POP POP DUP2 SWAP1 SSTORE POP POP JUMP JUMPDEST PUSH1 0x0 DUP3 DUP3 PUSH1 0x40 MLOAD PUSH1 0x20 ADD PUSH2 0x2CF1 SWAP3 SWAP2 SWAP1 PUSH2 0x4D94 JUMP JUMPDEST PUSH1 0x40 MLOAD PUSH1 0x20 DUP2 DUP4 SUB SUB DUP2 MSTORE SWAP1 PUSH1 0x40 MSTORE DUP1 MLOAD SWAP1 PUSH1 0x20 ADD KECCAK256 SWAP1 POP SWAP3 SWAP2 POP POP JUMP JUMPDEST PUSH1 0x0 DUP1 PUSH32 0x7FFFFFFFFFFFFFFFFFFFFFFFFFFFFFFF5D576E7357A4501DDFE92F46681B20A0 DUP4 PUSH1 0x0 SHR GT ISZERO PUSH2 0x2D4A JUMPI PUSH1 0x0 PUSH1 0x3 SWAP2 POP SWAP2 POP PUSH2 0x2DE9 JUMP JUMPDEST PUSH1 0x0 PUSH1 0x1 DUP8 DUP8 DUP8 DUP8 PUSH1 0x40 MLOAD PUSH1 0x0 DUP2 MSTORE PUSH1 0x20 ADD PUSH1 0x40 MSTORE PUSH1 0x40 MLOAD PUSH2 0x2D6F SWAP5 SWAP4 SWAP3 SWAP2 SWAP1 PUSH2 0x4DCB JUMP JUMPDEST PUSH1 0x20 PUSH1 0x40 MLOAD PUSH1 0x20 DUP2 SUB SWAP1 DUP1 DUP5 SUB SWAP1 DUP6 GAS STATICCALL ISZERO DUP1 ISZERO PUSH2 0x2D91 JUMPI RETURNDATASIZE PUSH1 0x0 DUP1 RETURNDATACOPY RETURNDATASIZE PUSH1 0x0 REVERT JUMPDEST POP POP POP PUSH1 0x20 PUSH1 0x40 MLOAD SUB MLOAD SWAP1 POP PUSH1 0x0 PUSH20 0xFFFFFFFFFFFFFFFFFFFFFFFFFFFFFFFFFFFFFFFF AND DUP2 PUSH20 0xFFFFFFFFFFFFFFFFFFFFFFFFFFFFFFFFFFFFFFFF AND EQ ISZERO PUSH2 0x2DE0 JUMPI PUSH1 0x0 PUSH1 0x1 SWAP3 POP SWAP3 POP POP PUSH2 0x2DE9 JUMP JUMPDEST DUP1 PUSH1 0x0 SWAP3 POP SWAP3 POP POP JUMPDEST SWAP5 POP SWAP5 SWAP3 POP POP POP JUMP JUMPDEST PUSH1 0x0 PUSH1 0x4 DUP2 GT ISZERO PUSH2 0x2E06 JUMPI PUSH2 0x2E05 PUSH2 0x4E10 JUMP JUMPDEST JUMPDEST DUP2 PUSH1 0x4 DUP2 GT ISZERO PUSH2 0x2E19 JUMPI PUSH2 0x2E18 PUSH2 0x4E10 JUMP JUMPDEST JUMPDEST EQ ISZERO PUSH2 0x2E24 JUMPI PUSH2 0x2F5D JUMP JUMPDEST PUSH1 0x1 PUSH1 0x4 DUP2 GT ISZERO PUSH2 0x2E38 JUMPI PUSH2 0x2E37 PUSH2 0x4E10 JUMP JUMPDEST JUMPDEST DUP2 PUSH1 0x4 DUP2 GT ISZERO PUSH2 0x2E4B JUMPI PUSH2 0x2E4A PUSH2 0x4E10 JUMP JUMPDEST JUMPDEST EQ ISZERO PUSH2 0x2E8C JUMPI PUSH1 0x40 MLOAD PUSH32 0x8C379A000000000000000000000000000000000000000000000000000000000 DUP2 MSTORE PUSH1 0x4 ADD PUSH2 0x2E83 SWAP1 PUSH2 0x4E8B JUMP JUMPDEST PUSH1 0x40 MLOAD DUP1 SWAP2 SUB SWAP1 REVERT JUMPDEST PUSH1 0x2 PUSH1 0x4 DUP2 GT ISZERO PUSH2 0x2EA0 JUMPI PUSH2 0x2E9F PUSH2 0x4E10 JUMP JUMPDEST JUMPDEST DUP2 PUSH1 0x4 DUP2 GT ISZERO PUSH2 0x2EB3 JUMPI PUSH2 0x2EB2 PUSH2 0x4E10 JUMP JUMPDEST JUMPDEST EQ ISZERO PUSH2 0x2EF4 JUMPI PUSH1 0x40 MLOAD PUSH32 0x8C379A000000000000000000000000000000000000000000000000000000000 DUP2 MSTORE PUSH1 0x4 ADD PUSH2 0x2EEB SWAP1 PUSH2 0x4EF7 JUMP JUMPDEST PUSH1 0x40 MLOAD DUP1 SWAP2 SUB SWAP1 REVERT JUMPDEST PUSH1 0x3 PUSH1 0x4 DUP2 GT ISZERO PUSH2 0x2F08 JUMPI PUSH2 0x2F07 PUSH2 0x4E10 JUMP JUMPDEST JUMPDEST DUP2 PUSH1 0x4 DUP2 GT ISZERO PUSH2 0x2F1B JUMPI PUSH2 0x2F1A PUSH2 0x4E10 JUMP JUMPDEST JUMPDEST EQ ISZERO PUSH2 0x2F5C JUMPI PUSH1 0x40 MLOAD PUSH32 0x8C379A000000000000000000000000000000000000000000000000000000000 DUP2 MSTORE PUSH1 0x4 ADD PUSH2 0x2F53 SWAP1 PUSH2 0x4F89 JUMP JUMPDEST PUSH1 0x40 MLOAD DUP1 SWAP2 SUB SWAP1 REVERT JUMPDEST JUMPDEST POP JUMP JUMPDEST PUSH2 0x2F68 PUSH2 0x30F8 JUMP JUMPDEST PUSH2 0x2F73 DUP4 DUP4 DUP4 PUSH2 0x3142 JUMP JUMPDEST POP POP POP JUMP JUMPDEST POP POP POP JUMP JUMPDEST PUSH2 0x2F86 DUP2 PUSH2 0x2623 JUMP JUMPDEST DUP1 PUSH20 0xFFFFFFFFFFFFFFFFFFFFFFFFFFFFFFFFFFFFFFFF AND PUSH32 0xBC7CD75A20EE27FD9ADEBAB32041F755214DBC6BFFA90CC0225B39DA2E5C2D3B PUSH1 0x40 MLOAD PUSH1 0x40 MLOAD DUP1 SWAP2 SUB SWAP1 LOG2 POP JUMP JUMPDEST PUSH1 0x60 PUSH2 0x2FD7 DUP4 PUSH2 0x1F11 JUMP JUMPDEST PUSH2 0x3016 JUMPI PUSH1 0x40 MLOAD PUSH32 0x8C379A000000000000000000000000000000000000000000000000000000000 DUP2 MSTORE PUSH1 0x4 ADD PUSH2 0x300D SWAP1 PUSH2 0x501B JUMP JUMPDEST PUSH1 0x40 MLOAD DUP1 SWAP2 SUB SWAP1 REVERT JUMPDEST PUSH1 0x0 DUP1 DUP5 PUSH20 0xFFFFFFFFFFFFFFFFFFFFFFFFFFFFFFFFFFFFFFFF AND DUP5 PUSH1 0x40 MLOAD PUSH2 0x303E SWAP2 SWAP1 PUSH2 0x5082 JUMP JUMPDEST PUSH1 0x0 PUSH1 0x40 MLOAD DUP1 DUP4 SUB DUP2 DUP6 GAS DELEGATECALL SWAP2 POP POP RETURNDATASIZE DUP1 PUSH1 0x0 DUP2 EQ PUSH2 0x3079 JUMPI PUSH1 0x40 MLOAD SWAP2 POP PUSH1 0x1F NOT PUSH1 0x3F RETURNDATASIZE ADD AND DUP3 ADD PUSH1 0x40 MSTORE RETURNDATASIZE DUP3 MSTORE RETURNDATASIZE PUSH1 0x0 PUSH1 0x20 DUP5 ADD RETURNDATACOPY PUSH2 0x307E JUMP JUMPDEST PUSH1 0x60 SWAP2 POP JUMPDEST POP SWAP2 POP SWAP2 POP PUSH2 0x30A6 DUP3 DUP3 PUSH1 0x40 MLOAD DUP1 PUSH1 0x60 ADD PUSH1 0x40 MSTORE DUP1 PUSH1 0x27 DUP2 MSTORE PUSH1 0x20 ADD PUSH2 0x5166 PUSH1 0x27 SWAP2 CODECOPY PUSH2 0x31FC JUMP JUMPDEST SWAP3 POP POP POP SWAP3 SWAP2 POP POP JUMP JUMPDEST PUSH1 0x0 PUSH1 0x2 DUP3 DUP5 XOR PUSH2 0x30C1 SWAP2 SWAP1 PUSH2 0x50C8 JUMP JUMPDEST DUP3 DUP5 AND PUSH2 0x30CE SWAP2 SWAP1 PUSH2 0x3488 JUMP JUMPDEST SWAP1 POP SWAP3 SWAP2 POP POP JUMP JUMPDEST PUSH1 0x0 DUP1 DUP4 PUSH1 0x0 MSTORE DUP3 PUSH1 0x20 PUSH1 0x0 KECCAK256 ADD SWAP1 POP PUSH2 0x30EF DUP2 PUSH2 0x321E JUMP JUMPDEST SWAP2 POP POP SWAP3 SWAP2 POP POP JUMP JUMPDEST PUSH2 0x3100 PUSH2 0xEF6 JUMP JUMPDEST ISZERO PUSH2 0x3140 JUMPI PUSH1 0x40 MLOAD PUSH32 0x8C379A000000000000000000000000000000000000000000000000000000000 DUP2 MSTORE PUSH1 0x4 ADD PUSH2 0x3137 SWAP1 PUSH2 0x5145 JUMP JUMPDEST PUSH1 0x40 MLOAD DUP1 SWAP2 SUB SWAP1 REVERT JUMPDEST JUMP JUMPDEST PUSH2 0x314D DUP4 DUP4 DUP4 PUSH2 0x3228 JUMP JUMPDEST PUSH1 0x0 PUSH20 0xFFFFFFFFFFFFFFFFFFFFFFFFFFFFFFFFFFFFFFFF AND DUP4 PUSH20 0xFFFFFFFFFFFFFFFFFFFFFFFFFFFFFFFFFFFFFFFF AND EQ ISZERO PUSH2 0x3198 JUMPI PUSH2 0x318B DUP3 PUSH2 0x322D JUMP JUMPDEST PUSH2 0x3193 PUSH2 0x3280 JUMP JUMPDEST PUSH2 0x31F7 JUMP JUMPDEST PUSH1 0x0 PUSH20 0xFFFFFFFFFFFFFFFFFFFFFFFFFFFFFFFFFFFFFFFF AND DUP3 PUSH20 0xFFFFFFFFFFFFFFFFFFFFFFFFFFFFFFFFFFFFFFFF AND EQ ISZERO PUSH2 0x31E3 JUMPI PUSH2 0x31D6 DUP4 PUSH2 0x322D JUMP JUMPDEST PUSH2 0x31DE PUSH2 0x3280 JUMP JUMPDEST PUSH2 0x31F6 JUMP JUMPDEST PUSH2 0x31EC DUP4 PUSH2 0x322D JUMP JUMPDEST PUSH2 0x31F5 DUP3 PUSH2 0x322D JUMP JUMPDEST JUMPDEST JUMPDEST POP POP POP JUMP JUMPDEST PUSH1 0x60 DUP4 ISZERO PUSH2 0x320C JUMPI DUP3 SWAP1 POP PUSH2 0x3217 JUMP JUMPDEST PUSH2 0x3216 DUP4 DUP4 PUSH2 0x3294 JUMP JUMPDEST JUMPDEST SWAP4 SWAP3 POP POP POP JUMP JUMPDEST PUSH1 0x0 DUP2 SWAP1 POP SWAP2 SWAP1 POP JUMP JUMPDEST POP POP POP JUMP JUMPDEST PUSH2 0x327D PUSH1 0x97 PUSH1 0x0 DUP4 PUSH20 0xFFFFFFFFFFFFFFFFFFFFFFFFFFFFFFFFFFFFFFFF AND PUSH20 0xFFFFFFFFFFFFFFFFFFFFFFFFFFFFFFFFFFFFFFFF AND DUP2 MSTORE PUSH1 0x20 ADD SWAP1 DUP2 MSTORE PUSH1 0x20 ADD PUSH1 0x0 KECCAK256 PUSH2 0x3278 DUP4 PUSH2 0xF0D JUMP JUMPDEST PUSH2 0x32E4 JUMP JUMPDEST POP JUMP JUMPDEST PUSH2 0x3292 PUSH1 0x98 PUSH2 0x328D PUSH2 0x874 JUMP JUMPDEST PUSH2 0x32E4 JUMP JUMPDEST JUMP JUMPDEST PUSH1 0x0 DUP3 MLOAD GT ISZERO PUSH2 0x32A7 JUMPI DUP2 MLOAD DUP1 DUP4 PUSH1 0x20 ADD REVERT JUMPDEST DUP1 PUSH1 0x40 MLOAD PUSH32 0x8C379A000000000000000000000000000000000000000000000000000000000 DUP2 MSTORE PUSH1 0x4 ADD PUSH2 0x32DB SWAP2 SWAP1 PUSH2 0x35A1 JUMP JUMPDEST PUSH1 0x40 MLOAD DUP1 SWAP2 SUB SWAP1 REVERT JUMPDEST PUSH1 0x0 PUSH2 0x32EE PUSH2 0x2A30 JUMP JUMPDEST SWAP1 POP DUP1 PUSH2 0x32FD DUP5 PUSH1 0x0 ADD PUSH2 0x335F JUMP JUMPDEST LT ISZERO PUSH2 0x335A JUMPI DUP3 PUSH1 0x0 ADD DUP2 SWAP1 DUP1 PUSH1 0x1 DUP2 SLOAD ADD DUP1 DUP3 SSTORE DUP1 SWAP2 POP POP PUSH1 0x1 SWAP1 SUB SWAP1 PUSH1 0x0 MSTORE PUSH1 0x20 PUSH1 0x0 KECCAK256 ADD PUSH1 0x0 SWAP1 SWAP2 SWAP1 SWAP2 SWAP1 SWAP2 POP SSTORE DUP3 PUSH1 0x1 ADD DUP3 SWAP1 DUP1 PUSH1 0x1 DUP2 SLOAD ADD DUP1 DUP3 SSTORE DUP1 SWAP2 POP POP PUSH1 0x1 SWAP1 SUB SWAP1 PUSH1 0x0 MSTORE PUSH1 0x20 PUSH1 0x0 KECCAK256 ADD PUSH1 0x0 SWAP1 SWAP2 SWAP1 SWAP2 SWAP1 SWAP2 POP SSTORE JUMPDEST POP POP POP JUMP JUMPDEST PUSH1 0x0 DUP1 DUP3 DUP1 SLOAD SWAP1 POP EQ ISZERO PUSH2 0x3376 JUMPI PUSH1 0x0 SWAP1 POP PUSH2 0x33A7 JUMP JUMPDEST DUP2 PUSH1 0x1 DUP4 DUP1 SLOAD SWAP1 POP PUSH2 0x3388 SWAP2 SWAP1 PUSH2 0x4CE8 JUMP JUMPDEST DUP2 SLOAD DUP2 LT PUSH2 0x3399 JUMPI PUSH2 0x3398 PUSH2 0x4790 JUMP JUMPDEST JUMPDEST SWAP1 PUSH1 0x0 MSTORE PUSH1 0x20 PUSH1 0x0 KECCAK256 ADD SLOAD SWAP1 POP JUMPDEST SWAP2 SWAP1 POP JUMP JUMPDEST DUP3 DUP1 SLOAD PUSH2 0x33B8 SWAP1 PUSH2 0x3B7E JUMP JUMPDEST SWAP1 PUSH1 0x0 MSTORE PUSH1 0x20 PUSH1 0x0 KECCAK256 SWAP1 PUSH1 0x1F ADD PUSH1 0x20 SWAP1 DIV DUP2 ADD SWAP3 DUP3 PUSH2 0x33DA JUMPI PUSH1 0x0 DUP6 SSTORE PUSH2 0x3421 JUMP JUMPDEST DUP3 PUSH1 0x1F LT PUSH2 0x33F3 JUMPI DUP1 MLOAD PUSH1 0xFF NOT AND DUP4 DUP1 ADD OR DUP6 SSTORE PUSH2 0x3421 JUMP JUMPDEST DUP3 DUP1 ADD PUSH1 0x1 ADD DUP6 SSTORE DUP3 ISZERO PUSH2 0x3421 JUMPI SWAP2 DUP3 ADD JUMPDEST DUP3 DUP2 GT ISZERO PUSH2 0x3420 JUMPI DUP3 MLOAD DUP3 SSTORE SWAP2 PUSH1 0x20 ADD SWAP2 SWAP1 PUSH1 0x1 ADD SWAP1 PUSH2 0x3405 JUMP JUMPDEST JUMPDEST POP SWAP1 POP PUSH2 0x342E SWAP2 SWAP1 PUSH2 0x3432 JUMP JUMPDEST POP SWAP1 JUMP JUMPDEST JUMPDEST DUP1 DUP3 GT ISZERO PUSH2 0x344B JUMPI PUSH1 0x0 DUP2 PUSH1 0x0 SWAP1 SSTORE POP PUSH1 0x1 ADD PUSH2 0x3433 JUMP JUMPDEST POP SWAP1 JUMP JUMPDEST PUSH1 0x0 DUP2 SWAP1 POP SWAP2 SWAP1 POP JUMP JUMPDEST PUSH32 0x4E487B7100000000000000000000000000000000000000000000000000000000 PUSH1 0x0 MSTORE PUSH1 0x11 PUSH1 0x4 MSTORE PUSH1 0x24 PUSH1 0x0 REVERT JUMPDEST PUSH1 0x0 PUSH2 0x3493 DUP3 PUSH2 0x344F JUMP JUMPDEST SWAP2 POP PUSH2 0x349E DUP4 PUSH2 0x344F JUMP JUMPDEST SWAP3 POP DUP3 PUSH32 0xFFFFFFFFFFFFFFFFFFFFFFFFFFFFFFFFFFFFFFFFFFFFFFFFFFFFFFFFFFFFFFFF SUB DUP3 GT ISZERO PUSH2 0x34D3 JUMPI PUSH2 0x34D2 PUSH2 0x3459 JUMP JUMPDEST JUMPDEST DUP3 DUP3 ADD SWAP1 POP SWAP3 SWAP2 POP POP JUMP JUMPDEST PUSH2 0x34E7 DUP2 PUSH2 0x344F JUMP JUMPDEST DUP3 MSTORE POP POP JUMP JUMPDEST PUSH1 0x0 PUSH1 0x20 DUP3 ADD SWAP1 POP PUSH2 0x3502 PUSH1 0x0 DUP4 ADD DUP5 PUSH2 0x34DE JUMP JUMPDEST SWAP3 SWAP2 POP POP JUMP JUMPDEST PUSH1 0x0 DUP2 MLOAD SWAP1 POP SWAP2 SWAP1 POP JUMP JUMPDEST PUSH1 0x0 DUP3 DUP3 MSTORE PUSH1 0x20 DUP3 ADD SWAP1 POP SWAP3 SWAP2 POP POP JUMP JUMPDEST PUSH1 0x0 JUMPDEST DUP4 DUP2 LT ISZERO PUSH2 0x3542 JUMPI DUP1 DUP3 ADD MLOAD DUP2 DUP5 ADD MSTORE PUSH1 0x20 DUP2 ADD SWAP1 POP PUSH2 0x3527 JUMP JUMPDEST DUP4 DUP2 GT ISZERO PUSH2 0x3551 JUMPI PUSH1 0x0 DUP5 DUP5 ADD MSTORE JUMPDEST POP POP POP POP JUMP JUMPDEST PUSH1 0x0 PUSH1 0x1F NOT PUSH1 0x1F DUP4 ADD AND SWAP1 POP SWAP2 SWAP1 POP JUMP JUMPDEST PUSH1 0x0 PUSH2 0x3573 DUP3 PUSH2 0x3508 JUMP JUMPDEST PUSH2 0x357D DUP2 DUP6 PUSH2 0x3513 JUMP JUMPDEST SWAP4 POP PUSH2 0x358D DUP2 DUP6 PUSH1 0x20 DUP7 ADD PUSH2 0x3524 JUMP JUMPDEST PUSH2 0x3596 DUP2 PUSH2 0x3557 JUMP JUMPDEST DUP5 ADD SWAP2 POP POP SWAP3 SWAP2 POP POP JUMP JUMPDEST PUSH1 0x0 PUSH1 0x20 DUP3 ADD SWAP1 POP DUP2 DUP2 SUB PUSH1 0x0 DUP4 ADD MSTORE PUSH2 0x35BB DUP2 DUP5 PUSH2 0x3568 JUMP JUMPDEST SWAP1 POP SWAP3 SWAP2 POP POP JUMP JUMPDEST PUSH1 0x0 PUSH1 0x40 MLOAD SWAP1 POP SWAP1 JUMP JUMPDEST PUSH1 0x0 DUP1 REVERT JUMPDEST PUSH1 0x0 DUP1 REVERT JUMPDEST PUSH1 0x0 PUSH20 0xFFFFFFFFFFFFFFFFFFFFFFFFFFFFFFFFFFFFFFFF DUP3 AND SWAP1 POP SWAP2 SWAP1 POP JUMP JUMPDEST PUSH1 0x0 PUSH2 0x3602 DUP3 PUSH2 0x35D7 JUMP JUMPDEST SWAP1 POP SWAP2 SWAP1 POP JUMP JUMPDEST PUSH2 0x3612 DUP2 PUSH2 0x35F7 JUMP JUMPDEST DUP2 EQ PUSH2 0x361D JUMPI PUSH1 0x0 DUP1 REVERT JUMPDEST POP JUMP JUMPDEST PUSH1 0x0 DUP2 CALLDATALOAD SWAP1 POP PUSH2 0x362F DUP2 PUSH2 0x3609 JUMP JUMPDEST SWAP3 SWAP2 POP POP JUMP JUMPDEST PUSH2 0x363E DUP2 PUSH2 0x344F JUMP JUMPDEST DUP2 EQ PUSH2 0x3649 JUMPI PUSH1 0x0 DUP1 REVERT JUMPDEST POP JUMP JUMPDEST PUSH1 0x0 DUP2 CALLDATALOAD SWAP1 POP PUSH2 0x365B DUP2 PUSH2 0x3635 JUMP JUMPDEST SWAP3 SWAP2 POP POP JUMP JUMPDEST PUSH1 0x0 DUP1 PUSH1 0x40 DUP4 DUP6 SUB SLT ISZERO PUSH2 0x3678 JUMPI PUSH2 0x3677 PUSH2 0x35CD JUMP JUMPDEST JUMPDEST PUSH1 0x0 PUSH2 0x3686 DUP6 DUP3 DUP7 ADD PUSH2 0x3620 JUMP JUMPDEST SWAP3 POP POP PUSH1 0x20 PUSH2 0x3697 DUP6 DUP3 DUP7 ADD PUSH2 0x364C JUMP JUMPDEST SWAP2 POP POP SWAP3 POP SWAP3 SWAP1 POP JUMP JUMPDEST PUSH1 0x0 DUP2 ISZERO ISZERO SWAP1 POP SWAP2 SWAP1 POP JUMP JUMPDEST PUSH2 0x36B6 DUP2 PUSH2 0x36A1 JUMP JUMPDEST DUP3 MSTORE POP POP JUMP JUMPDEST PUSH1 0x0 PUSH1 0x20 DUP3 ADD SWAP1 POP PUSH2 0x36D1 PUSH1 0x0 DUP4 ADD DUP5 PUSH2 0x36AD JUMP JUMPDEST SWAP3 SWAP2 POP POP JUMP JUMPDEST PUSH1 0x0 DUP1 PUSH1 0x0 PUSH1 0x60 DUP5 DUP7 SUB SLT ISZERO PUSH2 0x36F0 JUMPI PUSH2 0x36EF PUSH2 0x35CD JUMP JUMPDEST JUMPDEST PUSH1 0x0 PUSH2 0x36FE DUP7 DUP3 DUP8 ADD PUSH2 0x3620 JUMP JUMPDEST SWAP4 POP POP PUSH1 0x20 PUSH2 0x370F DUP7 DUP3 DUP8 ADD PUSH2 0x3620 JUMP JUMPDEST SWAP3 POP POP PUSH1 0x40 PUSH2 0x3720 DUP7 DUP3 DUP8 ADD PUSH2 0x364C JUMP JUMPDEST SWAP2 POP POP SWAP3 POP SWAP3 POP SWAP3 JUMP JUMPDEST PUSH1 0x0 PUSH1 0xFF DUP3 AND SWAP1 POP SWAP2 SWAP1 POP JUMP JUMPDEST PUSH2 0x3740 DUP2 PUSH2 0x372A JUMP JUMPDEST DUP3 MSTORE POP POP JUMP JUMPDEST PUSH1 0x0 PUSH1 0x20 DUP3 ADD SWAP1 POP PUSH2 0x375B PUSH1 0x0 DUP4 ADD DUP5 PUSH2 0x3737 JUMP JUMPDEST SWAP3 SWAP2 POP POP JUMP JUMPDEST PUSH2 0x376A DUP2 PUSH2 0x35F7 JUMP JUMPDEST DUP3 MSTORE POP POP JUMP JUMPDEST PUSH1 0x0 PUSH1 0x20 DUP3 ADD SWAP1 POP PUSH2 0x3785 PUSH1 0x0 DUP4 ADD DUP5 PUSH2 0x3761 JUMP JUMPDEST SWAP3 SWAP2 POP POP JUMP JUMPDEST PUSH1 0x0 DUP2 SWAP1 POP SWAP2 SWAP1 POP JUMP JUMPDEST PUSH2 0x379E DUP2 PUSH2 0x378B JUMP JUMPDEST DUP3 MSTORE POP POP JUMP JUMPDEST PUSH1 0x0 PUSH1 0x20 DUP3 ADD SWAP1 POP PUSH2 0x37B9 PUSH1 0x0 DUP4 ADD DUP5 PUSH2 0x3795 JUMP JUMPDEST SWAP3 SWAP2 POP POP JUMP JUMPDEST PUSH1 0x0 PUSH1 0x20 DUP3 DUP5 SUB SLT ISZERO PUSH2 0x37D5 JUMPI PUSH2 0x37D4 PUSH2 0x35CD JUMP JUMPDEST JUMPDEST PUSH1 0x0 PUSH2 0x37E3 DUP5 DUP3 DUP6 ADD PUSH2 0x3620 JUMP JUMPDEST SWAP2 POP POP SWAP3 SWAP2 POP POP JUMP JUMPDEST PUSH1 0x0 PUSH1 0x20 DUP3 DUP5 SUB SLT ISZERO PUSH2 0x3802 JUMPI PUSH2 0x3801 PUSH2 0x35CD JUMP JUMPDEST JUMPDEST PUSH1 0x0 PUSH2 0x3810 DUP5 DUP3 DUP6 ADD PUSH2 0x364C JUMP JUMPDEST SWAP2 POP POP SWAP3 SWAP2 POP POP JUMP JUMPDEST PUSH1 0x0 DUP1 REVERT JUMPDEST PUSH1 0x0 DUP1 REVERT JUMPDEST PUSH32 0x4E487B7100000000000000000000000000000000000000000000000000000000 PUSH1 0x0 MSTORE PUSH1 0x41 PUSH1 0x4 MSTORE PUSH1 0x24 PUSH1 0x0 REVERT JUMPDEST PUSH2 0x385B DUP3 PUSH2 0x3557 JUMP JUMPDEST DUP2 ADD DUP2 DUP2 LT PUSH8 0xFFFFFFFFFFFFFFFF DUP3 GT OR ISZERO PUSH2 0x387A JUMPI PUSH2 0x3879 PUSH2 0x3823 JUMP JUMPDEST JUMPDEST DUP1 PUSH1 0x40 MSTORE POP POP POP JUMP JUMPDEST PUSH1 0x0 PUSH2 0x388D PUSH2 0x35C3 JUMP JUMPDEST SWAP1 POP PUSH2 0x3899 DUP3 DUP3 PUSH2 0x3852 JUMP JUMPDEST SWAP2 SWAP1 POP JUMP JUMPDEST PUSH1 0x0 PUSH8 0xFFFFFFFFFFFFFFFF DUP3 GT ISZERO PUSH2 0x38B9 JUMPI PUSH2 0x38B8 PUSH2 0x3823 JUMP JUMPDEST JUMPDEST PUSH2 0x38C2 DUP3 PUSH2 0x3557 JUMP JUMPDEST SWAP1 POP PUSH1 0x20 DUP2 ADD SWAP1 POP SWAP2 SWAP1 POP JUMP JUMPDEST DUP3 DUP2 DUP4 CALLDATACOPY PUSH1 0x0 DUP4 DUP4 ADD MSTORE POP POP POP JUMP JUMPDEST PUSH1 0x0 PUSH2 0x38F1 PUSH2 0x38EC DUP5 PUSH2 0x389E JUMP JUMPDEST PUSH2 0x3883 JUMP JUMPDEST SWAP1 POP DUP3 DUP2 MSTORE PUSH1 0x20 DUP2 ADD DUP5 DUP5 DUP5 ADD GT ISZERO PUSH2 0x390D JUMPI PUSH2 0x390C PUSH2 0x381E JUMP JUMPDEST JUMPDEST PUSH2 0x3918 DUP5 DUP3 DUP6 PUSH2 0x38CF JUMP JUMPDEST POP SWAP4 SWAP3 POP POP POP JUMP JUMPDEST PUSH1 0x0 DUP3 PUSH1 0x1F DUP4 ADD SLT PUSH2 0x3935 JUMPI PUSH2 0x3934 PUSH2 0x3819 JUMP JUMPDEST JUMPDEST DUP2 CALLDATALOAD PUSH2 0x3945 DUP5 DUP3 PUSH1 0x20 DUP7 ADD PUSH2 0x38DE JUMP JUMPDEST SWAP2 POP POP SWAP3 SWAP2 POP POP JUMP JUMPDEST PUSH1 0x0 DUP1 PUSH1 0x40 DUP4 DUP6 SUB SLT ISZERO PUSH2 0x3965 JUMPI PUSH2 0x3964 PUSH2 0x35CD JUMP JUMPDEST JUMPDEST PUSH1 0x0 PUSH2 0x3973 DUP6 DUP3 DUP7 ADD PUSH2 0x3620 JUMP JUMPDEST SWAP3 POP POP PUSH1 0x20 DUP4 ADD CALLDATALOAD PUSH8 0xFFFFFFFFFFFFFFFF DUP2 GT ISZERO PUSH2 0x3994 JUMPI PUSH2 0x3993 PUSH2 0x35D2 JUMP JUMPDEST JUMPDEST PUSH2 0x39A0 DUP6 DUP3 DUP7 ADD PUSH2 0x3920 JUMP JUMPDEST SWAP2 POP POP SWAP3 POP SWAP3 SWAP1 POP JUMP JUMPDEST PUSH1 0x0 PUSH2 0x39B5 DUP3 PUSH2 0x35D7 JUMP JUMPDEST SWAP1 POP SWAP2 SWAP1 POP JUMP JUMPDEST PUSH2 0x39C5 DUP2 PUSH2 0x39AA JUMP JUMPDEST DUP2 EQ PUSH2 0x39D0 JUMPI PUSH1 0x0 DUP1 REVERT JUMPDEST POP JUMP JUMPDEST PUSH1 0x0 DUP2 CALLDATALOAD SWAP1 POP PUSH2 0x39E2 DUP2 PUSH2 0x39BC JUMP JUMPDEST SWAP3 SWAP2 POP POP JUMP JUMPDEST PUSH1 0x0 PUSH1 0x20 DUP3 DUP5 SUB SLT ISZERO PUSH2 0x39FE JUMPI PUSH2 0x39FD PUSH2 0x35CD JUMP JUMPDEST JUMPDEST PUSH1 0x0 PUSH2 0x3A0C DUP5 DUP3 DUP6 ADD PUSH2 0x39D3 JUMP JUMPDEST SWAP2 POP POP SWAP3 SWAP2 POP POP JUMP JUMPDEST PUSH2 0x3A1E DUP2 PUSH2 0x372A JUMP JUMPDEST DUP2 EQ PUSH2 0x3A29 JUMPI PUSH1 0x0 DUP1 REVERT JUMPDEST POP JUMP JUMPDEST PUSH1 0x0 DUP2 CALLDATALOAD SWAP1 POP PUSH2 0x3A3B DUP2 PUSH2 0x3A15 JUMP JUMPDEST SWAP3 SWAP2 POP POP JUMP JUMPDEST PUSH2 0x3A4A DUP2 PUSH2 0x378B JUMP JUMPDEST DUP2 EQ PUSH2 0x3A55 JUMPI PUSH1 0x0 DUP1 REVERT JUMPDEST POP JUMP JUMPDEST PUSH1 0x0 DUP2 CALLDATALOAD SWAP1 POP PUSH2 0x3A67 DUP2 PUSH2 0x3A41 JUMP JUMPDEST SWAP3 SWAP2 POP POP JUMP JUMPDEST PUSH1 0x0 DUP1 PUSH1 0x0 DUP1 PUSH1 0x0 DUP1 PUSH1 0x0 PUSH1 0xE0 DUP9 DUP11 SUB SLT ISZERO PUSH2 0x3A8C JUMPI PUSH2 0x3A8B PUSH2 0x35CD JUMP JUMPDEST JUMPDEST PUSH1 0x0 PUSH2 0x3A9A DUP11 DUP3 DUP12 ADD PUSH2 0x3620 JUMP JUMPDEST SWAP8 POP POP PUSH1 0x20 PUSH2 0x3AAB DUP11 DUP3 DUP12 ADD PUSH2 0x3620 JUMP JUMPDEST SWAP7 POP POP PUSH1 0x40 PUSH2 0x3ABC DUP11 DUP3 DUP12 ADD PUSH2 0x364C JUMP JUMPDEST SWAP6 POP POP PUSH1 0x60 PUSH2 0x3ACD DUP11 DUP3 DUP12 ADD PUSH2 0x364C JUMP JUMPDEST SWAP5 POP POP PUSH1 0x80 PUSH2 0x3ADE DUP11 DUP3 DUP12 ADD PUSH2 0x3A2C JUMP JUMPDEST SWAP4 POP POP PUSH1 0xA0 PUSH2 0x3AEF DUP11 DUP3 DUP12 ADD PUSH2 0x3A58 JUMP JUMPDEST SWAP3 POP POP PUSH1 0xC0 PUSH2 0x3B00 DUP11 DUP3 DUP12 ADD PUSH2 0x3A58 JUMP JUMPDEST SWAP2 POP POP SWAP3 SWAP6 SWAP9 SWAP2 SWAP5 SWAP8 POP SWAP3 SWAP6 POP JUMP JUMPDEST PUSH1 0x0 DUP1 PUSH1 0x40 DUP4 DUP6 SUB SLT ISZERO PUSH2 0x3B26 JUMPI PUSH2 0x3B25 PUSH2 0x35CD JUMP JUMPDEST JUMPDEST PUSH1 0x0 PUSH2 0x3B34 DUP6 DUP3 DUP7 ADD PUSH2 0x3620 JUMP JUMPDEST SWAP3 POP POP PUSH1 0x20 PUSH2 0x3B45 DUP6 DUP3 DUP7 ADD PUSH2 0x3620 JUMP JUMPDEST SWAP2 POP POP SWAP3 POP SWAP3 SWAP1 POP JUMP JUMPDEST PUSH32 0x4E487B7100000000000000000000000000000000000000000000000000000000 PUSH1 0x0 MSTORE PUSH1 0x22 PUSH1 0x4 MSTORE PUSH1 0x24 PUSH1 0x0 REVERT JUMPDEST PUSH1 0x0 PUSH1 0x2 DUP3 DIV SWAP1 POP PUSH1 0x1 DUP3 AND DUP1 PUSH2 0x3B96 JUMPI PUSH1 0x7F DUP3 AND SWAP2 POP JUMPDEST PUSH1 0x20 DUP3 LT DUP2 EQ ISZERO PUSH2 0x3BAA JUMPI PUSH2 0x3BA9 PUSH2 0x3B4F JUMP JUMPDEST JUMPDEST POP SWAP2 SWAP1 POP JUMP JUMPDEST PUSH32 0x555345525F4E4F545F5645524946494544000000000000000000000000000000 PUSH1 0x0 DUP3 ADD MSTORE POP JUMP JUMPDEST PUSH1 0x0 PUSH2 0x3BE6 PUSH1 0x11 DUP4 PUSH2 0x3513 JUMP JUMPDEST SWAP2 POP PUSH2 0x3BF1 DUP3 PUSH2 0x3BB0 JUMP JUMPDEST PUSH1 0x20 DUP3 ADD SWAP1 POP SWAP2 SWAP1 POP JUMP JUMPDEST PUSH1 0x0 PUSH1 0x20 DUP3 ADD SWAP1 POP DUP2 DUP2 SUB PUSH1 0x0 DUP4 ADD MSTORE PUSH2 0x3C15 DUP2 PUSH2 0x3BD9 JUMP JUMPDEST SWAP1 POP SWAP2 SWAP1 POP JUMP JUMPDEST PUSH32 0x46756E6374696F6E206D7573742062652063616C6C6564207468726F75676820 PUSH1 0x0 DUP3 ADD MSTORE PUSH32 0x64656C656761746563616C6C0000000000000000000000000000000000000000 PUSH1 0x20 DUP3 ADD MSTORE POP JUMP JUMPDEST PUSH1 0x0 PUSH2 0x3C78 PUSH1 0x2C DUP4 PUSH2 0x3513 JUMP JUMPDEST SWAP2 POP PUSH2 0x3C83 DUP3 PUSH2 0x3C1C JUMP JUMPDEST PUSH1 0x40 DUP3 ADD SWAP1 POP SWAP2 SWAP1 POP JUMP JUMPDEST PUSH1 0x0 PUSH1 0x20 DUP3 ADD SWAP1 POP DUP2 DUP2 SUB PUSH1 0x0 DUP4 ADD MSTORE PUSH2 0x3CA7 DUP2 PUSH2 0x3C6B JUMP JUMPDEST SWAP1 POP SWAP2 SWAP1 POP JUMP JUMPDEST PUSH32 0x46756E6374696F6E206D7573742062652063616C6C6564207468726F75676820 PUSH1 0x0 DUP3 ADD MSTORE PUSH32 0x6163746976652070726F78790000000000000000000000000000000000000000 PUSH1 0x20 DUP3 ADD MSTORE POP JUMP JUMPDEST PUSH1 0x0 PUSH2 0x3D0A PUSH1 0x2C DUP4 PUSH2 0x3513 JUMP JUMPDEST SWAP2 POP PUSH2 0x3D15 DUP3 PUSH2 0x3CAE JUMP JUMPDEST PUSH1 0x40 DUP3 ADD SWAP1 POP SWAP2 SWAP1 POP JUMP JUMPDEST PUSH1 0x0 PUSH1 0x20 DUP3 ADD SWAP1 POP DUP2 DUP2 SUB PUSH1 0x0 DUP4 ADD MSTORE PUSH2 0x3D39 DUP2 PUSH2 0x3CFD JUMP JUMPDEST SWAP1 POP SWAP2 SWAP1 POP JUMP JUMPDEST PUSH32 0x555550535570677261646561626C653A206D757374206E6F742062652063616C PUSH1 0x0 DUP3 ADD MSTORE PUSH32 0x6C6564207468726F7567682064656C656761746563616C6C0000000000000000 PUSH1 0x20 DUP3 ADD MSTORE POP JUMP JUMPDEST PUSH1 0x0 PUSH2 0x3D9C PUSH1 0x38 DUP4 PUSH2 0x3513 JUMP JUMPDEST SWAP2 POP PUSH2 0x3DA7 DUP3 PUSH2 0x3D40 JUMP JUMPDEST PUSH1 0x40 DUP3 ADD SWAP1 POP SWAP2 SWAP1 POP JUMP JUMPDEST PUSH1 0x0 PUSH1 0x20 DUP3 ADD SWAP1 POP DUP2 DUP2 SUB PUSH1 0x0 DUP4 ADD MSTORE PUSH2 0x3DCB DUP2 PUSH2 0x3D8F JUMP JUMPDEST SWAP1 POP SWAP2 SWAP1 POP JUMP JUMPDEST PUSH32 0x496E697469616C697A61626C653A20636F6E747261637420697320616C726561 PUSH1 0x0 DUP3 ADD MSTORE PUSH32 0x647920696E697469616C697A6564000000000000000000000000000000000000 PUSH1 0x20 DUP3 ADD MSTORE POP JUMP JUMPDEST PUSH1 0x0 PUSH2 0x3E2E PUSH1 0x2E DUP4 PUSH2 0x3513 JUMP JUMPDEST SWAP2 POP PUSH2 0x3E39 DUP3 PUSH2 0x3DD2 JUMP JUMPDEST PUSH1 0x40 DUP3 ADD SWAP1 POP SWAP2 SWAP1 POP JUMP JUMPDEST PUSH1 0x0 PUSH1 0x20 DUP3 ADD SWAP1 POP DUP2 DUP2 SUB PUSH1 0x0 DUP4 ADD MSTORE PUSH2 0x3E5D DUP2 PUSH2 0x3E21 JUMP JUMPDEST SWAP1 POP SWAP2 SWAP1 POP JUMP JUMPDEST PUSH1 0x0 DUP2 SWAP1 POP SWAP2 SWAP1 POP JUMP JUMPDEST PUSH1 0x0 DUP2 SWAP1 POP SWAP2 SWAP1 POP JUMP JUMPDEST PUSH1 0x0 PUSH2 0x3E93 PUSH2 0x3E8E PUSH2 0x3E89 DUP5 PUSH2 0x3E64 JUMP JUMPDEST PUSH2 0x3E6E JUMP JUMPDEST PUSH2 0x372A JUMP JUMPDEST SWAP1 POP SWAP2 SWAP1 POP JUMP JUMPDEST PUSH2 0x3EA3 DUP2 PUSH2 0x3E78 JUMP JUMPDEST DUP3 MSTORE POP POP JUMP JUMPDEST PUSH1 0x0 PUSH1 0x20 DUP3 ADD SWAP1 POP PUSH2 0x3EBE PUSH1 0x0 DUP4 ADD DUP5 PUSH2 0x3E9A JUMP JUMPDEST SWAP3 SWAP2 POP POP JUMP JUMPDEST PUSH32 0x45524332303A2064656372656173656420616C6C6F77616E63652062656C6F77 PUSH1 0x0 DUP3 ADD MSTORE PUSH32 0x207A65726F000000000000000000000000000000000000000000000000000000 PUSH1 0x20 DUP3 ADD MSTORE POP JUMP JUMPDEST PUSH1 0x0 PUSH2 0x3F20 PUSH1 0x25 DUP4 PUSH2 0x3513 JUMP JUMPDEST SWAP2 POP PUSH2 0x3F2B DUP3 PUSH2 0x3EC4 JUMP JUMPDEST PUSH1 0x40 DUP3 ADD SWAP1 POP SWAP2 SWAP1 POP JUMP JUMPDEST PUSH1 0x0 PUSH1 0x20 DUP3 ADD SWAP1 POP DUP2 DUP2 SUB PUSH1 0x0 DUP4 ADD MSTORE PUSH2 0x3F4F DUP2 PUSH2 0x3F13 JUMP JUMPDEST SWAP1 POP SWAP2 SWAP1 POP JUMP JUMPDEST PUSH32 0x66726F6D3A205452414E534645525F52455155495245445F5645524946494341 PUSH1 0x0 DUP3 ADD MSTORE PUSH32 0x54494F4E5F490000000000000000000000000000000000000000000000000000 PUSH1 0x20 DUP3 ADD MSTORE POP JUMP JUMPDEST PUSH1 0x0 PUSH2 0x3FB2 PUSH1 0x26 DUP4 PUSH2 0x3513 JUMP JUMPDEST SWAP2 POP PUSH2 0x3FBD DUP3 PUSH2 0x3F56 JUMP JUMPDEST PUSH1 0x40 DUP3 ADD SWAP1 POP SWAP2 SWAP1 POP JUMP JUMPDEST PUSH1 0x0 PUSH1 0x20 DUP3 ADD SWAP1 POP DUP2 DUP2 SUB PUSH1 0x0 DUP4 ADD MSTORE PUSH2 0x3FE1 DUP2 PUSH2 0x3FA5 JUMP JUMPDEST SWAP1 POP SWAP2 SWAP1 POP JUMP JUMPDEST PUSH32 0x746F203A205452414E534645525F52455155495245445F564552494649434154 PUSH1 0x0 DUP3 ADD MSTORE PUSH32 0x494F4E5F49000000000000000000000000000000000000000000000000000000 PUSH1 0x20 DUP3 ADD MSTORE POP JUMP JUMPDEST PUSH1 0x0 PUSH2 0x4044 PUSH1 0x25 DUP4 PUSH2 0x3513 JUMP JUMPDEST SWAP2 POP PUSH2 0x404F DUP3 PUSH2 0x3FE8 JUMP JUMPDEST PUSH1 0x40 DUP3 ADD SWAP1 POP SWAP2 SWAP1 POP JUMP JUMPDEST PUSH1 0x0 PUSH1 0x20 DUP3 ADD SWAP1 POP DUP2 DUP2 SUB PUSH1 0x0 DUP4 ADD MSTORE PUSH2 0x4073 DUP2 PUSH2 0x4037 JUMP JUMPDEST SWAP1 POP SWAP2 SWAP1 POP JUMP JUMPDEST PUSH32 0x66726F6D3A205452414E534645525F52455155495245445F4D554C54495F5349 PUSH1 0x0 DUP3 ADD MSTORE PUSH32 0x474E415455524500000000000000000000000000000000000000000000000000 PUSH1 0x20 DUP3 ADD MSTORE POP JUMP JUMPDEST PUSH1 0x0 PUSH2 0x40D6 PUSH1 0x27 DUP4 PUSH2 0x3513 JUMP JUMPDEST SWAP2 POP PUSH2 0x40E1 DUP3 PUSH2 0x407A JUMP JUMPDEST PUSH1 0x40 DUP3 ADD SWAP1 POP SWAP2 SWAP1 POP JUMP JUMPDEST PUSH1 0x0 PUSH1 0x20 DUP3 ADD SWAP1 POP DUP2 DUP2 SUB PUSH1 0x0 DUP4 ADD MSTORE PUSH2 0x4105 DUP2 PUSH2 0x40C9 JUMP JUMPDEST SWAP1 POP SWAP2 SWAP1 POP JUMP JUMPDEST PUSH32 0x746F3A205452414E534645525F52455155495245445F4D554C54495F5349474E PUSH1 0x0 DUP3 ADD MSTORE PUSH32 0x4154555245000000000000000000000000000000000000000000000000000000 PUSH1 0x20 DUP3 ADD MSTORE POP JUMP JUMPDEST PUSH1 0x0 PUSH2 0x4168 PUSH1 0x25 DUP4 PUSH2 0x3513 JUMP JUMPDEST SWAP2 POP PUSH2 0x4173 DUP3 PUSH2 0x410C JUMP JUMPDEST PUSH1 0x40 DUP3 ADD SWAP1 POP SWAP2 SWAP1 POP JUMP JUMPDEST PUSH1 0x0 PUSH1 0x20 DUP3 ADD SWAP1 POP DUP2 DUP2 SUB PUSH1 0x0 DUP4 ADD MSTORE PUSH2 0x4197 DUP2 PUSH2 0x415B JUMP JUMPDEST SWAP1 POP SWAP2 SWAP1 POP JUMP JUMPDEST PUSH32 0x45524332305065726D69743A206578706972656420646561646C696E65000000 PUSH1 0x0 DUP3 ADD MSTORE POP JUMP JUMPDEST PUSH1 0x0 PUSH2 0x41D4 PUSH1 0x1D DUP4 PUSH2 0x3513 JUMP JUMPDEST SWAP2 POP PUSH2 0x41DF DUP3 PUSH2 0x419E JUMP JUMPDEST PUSH1 0x20 DUP3 ADD SWAP1 POP SWAP2 SWAP1 POP JUMP JUMPDEST PUSH1 0x0 PUSH1 0x20 DUP3 ADD SWAP1 POP DUP2 DUP2 SUB PUSH1 0x0 DUP4 ADD MSTORE PUSH2 0x4203 DUP2 PUSH2 0x41C7 JUMP JUMPDEST SWAP1 POP SWAP2 SWAP1 POP JUMP JUMPDEST PUSH1 0x0 PUSH1 0xC0 DUP3 ADD SWAP1 POP PUSH2 0x421F PUSH1 0x0 DUP4 ADD DUP10 PUSH2 0x3795 JUMP JUMPDEST PUSH2 0x422C PUSH1 0x20 DUP4 ADD DUP9 PUSH2 0x3761 JUMP JUMPDEST PUSH2 0x4239 PUSH1 0x40 DUP4 ADD DUP8 PUSH2 0x3761 JUMP JUMPDEST PUSH2 0x4246 PUSH1 0x60 DUP4 ADD DUP7 PUSH2 0x34DE JUMP JUMPDEST PUSH2 0x4253 PUSH1 0x80 DUP4 ADD DUP6 PUSH2 0x34DE JUMP JUMPDEST PUSH2 0x4260 PUSH1 0xA0 DUP4 ADD DUP5 PUSH2 0x34DE JUMP JUMPDEST SWAP8 SWAP7 POP POP POP POP POP POP POP JUMP JUMPDEST PUSH32 0x45524332305065726D69743A20696E76616C6964207369676E61747572650000 PUSH1 0x0 DUP3 ADD MSTORE POP JUMP JUMPDEST PUSH1 0x0 PUSH2 0x42A1 PUSH1 0x1E DUP4 PUSH2 0x3513 JUMP JUMPDEST SWAP2 POP PUSH2 0x42AC DUP3 PUSH2 0x426B JUMP JUMPDEST PUSH1 0x20 DUP3 ADD SWAP1 POP SWAP2 SWAP1 POP JUMP JUMPDEST PUSH1 0x0 PUSH1 0x20 DUP3 ADD SWAP1 POP DUP2 DUP2 SUB PUSH1 0x0 DUP4 ADD MSTORE PUSH2 0x42D0 DUP2 PUSH2 0x4294 JUMP JUMPDEST SWAP1 POP SWAP2 SWAP1 POP JUMP JUMPDEST PUSH32 0x4F776E61626C653A206E6577206F776E657220697320746865207A65726F2061 PUSH1 0x0 DUP3 ADD MSTORE PUSH32 0x6464726573730000000000000000000000000000000000000000000000000000 PUSH1 0x20 DUP3 ADD MSTORE POP JUMP JUMPDEST PUSH1 0x0 PUSH2 0x4333 PUSH1 0x26 DUP4 PUSH2 0x3513 JUMP JUMPDEST SWAP2 POP PUSH2 0x433E DUP3 PUSH2 0x42D7 JUMP JUMPDEST PUSH1 0x40 DUP3 ADD SWAP1 POP SWAP2 SWAP1 POP JUMP JUMPDEST PUSH1 0x0 PUSH1 0x20 DUP3 ADD SWAP1 POP DUP2 DUP2 SUB PUSH1 0x0 DUP4 ADD MSTORE PUSH2 0x4362 DUP2 PUSH2 0x4326 JUMP JUMPDEST SWAP1 POP SWAP2 SWAP1 POP JUMP JUMPDEST PUSH32 0x45524332303A20617070726F76652066726F6D20746865207A65726F20616464 PUSH1 0x0 DUP3 ADD MSTORE PUSH32 0x7265737300000000000000000000000000000000000000000000000000000000 PUSH1 0x20 DUP3 ADD MSTORE POP JUMP JUMPDEST PUSH1 0x0 PUSH2 0x43C5 PUSH1 0x24 DUP4 PUSH2 0x3513 JUMP JUMPDEST SWAP2 POP PUSH2 0x43D0 DUP3 PUSH2 0x4369 JUMP JUMPDEST PUSH1 0x40 DUP3 ADD SWAP1 POP SWAP2 SWAP1 POP JUMP JUMPDEST PUSH1 0x0 PUSH1 0x20 DUP3 ADD SWAP1 POP DUP2 DUP2 SUB PUSH1 0x0 DUP4 ADD MSTORE PUSH2 0x43F4 DUP2 PUSH2 0x43B8 JUMP JUMPDEST SWAP1 POP SWAP2 SWAP1 POP JUMP JUMPDEST PUSH32 0x45524332303A20617070726F766520746F20746865207A65726F206164647265 PUSH1 0x0 DUP3 ADD MSTORE PUSH32 0x7373000000000000000000000000000000000000000000000000000000000000 PUSH1 0x20 DUP3 ADD MSTORE POP JUMP JUMPDEST PUSH1 0x0 PUSH2 0x4457 PUSH1 0x22 DUP4 PUSH2 0x3513 JUMP JUMPDEST SWAP2 POP PUSH2 0x4462 DUP3 PUSH2 0x43FB JUMP JUMPDEST PUSH1 0x40 DUP3 ADD SWAP1 POP SWAP2 SWAP1 POP JUMP JUMPDEST PUSH1 0x0 PUSH1 0x20 DUP3 ADD SWAP1 POP DUP2 DUP2 SUB PUSH1 0x0 DUP4 ADD MSTORE PUSH2 0x4486 DUP2 PUSH2 0x444A JUMP JUMPDEST SWAP1 POP SWAP2 SWAP1 POP JUMP JUMPDEST PUSH32 0x4F776E61626C653A2063616C6C6572206973206E6F7420746865206F776E6572 PUSH1 0x0 DUP3 ADD MSTORE POP JUMP JUMPDEST PUSH1 0x0 PUSH2 0x44C3 PUSH1 0x20 DUP4 PUSH2 0x3513 JUMP JUMPDEST SWAP2 POP PUSH2 0x44CE DUP3 PUSH2 0x448D JUMP JUMPDEST PUSH1 0x20 DUP3 ADD SWAP1 POP SWAP2 SWAP1 POP JUMP JUMPDEST PUSH1 0x0 PUSH1 0x20 DUP3 ADD SWAP1 POP DUP2 DUP2 SUB PUSH1 0x0 DUP4 ADD MSTORE PUSH2 0x44F2 DUP2 PUSH2 0x44B6 JUMP JUMPDEST SWAP1 POP SWAP2 SWAP1 POP JUMP JUMPDEST PUSH2 0x4502 DUP2 PUSH2 0x36A1 JUMP JUMPDEST DUP2 EQ PUSH2 0x450D JUMPI PUSH1 0x0 DUP1 REVERT JUMPDEST POP JUMP JUMPDEST PUSH1 0x0 DUP2 MLOAD SWAP1 POP PUSH2 0x451F DUP2 PUSH2 0x44F9 JUMP JUMPDEST SWAP3 SWAP2 POP POP JUMP JUMPDEST PUSH1 0x0 PUSH1 0x20 DUP3 DUP5 SUB SLT ISZERO PUSH2 0x453B JUMPI PUSH2 0x453A PUSH2 0x35CD JUMP JUMPDEST JUMPDEST PUSH1 0x0 PUSH2 0x4549 DUP5 DUP3 DUP6 ADD PUSH2 0x4510 JUMP JUMPDEST SWAP2 POP POP SWAP3 SWAP2 POP POP JUMP JUMPDEST PUSH1 0x0 DUP2 MLOAD SWAP1 POP PUSH2 0x4561 DUP2 PUSH2 0x3A41 JUMP JUMPDEST SWAP3 SWAP2 POP POP JUMP JUMPDEST PUSH1 0x0 PUSH1 0x20 DUP3 DUP5 SUB SLT ISZERO PUSH2 0x457D JUMPI PUSH2 0x457C PUSH2 0x35CD JUMP JUMPDEST JUMPDEST PUSH1 0x0 PUSH2 0x458B DUP5 DUP3 DUP6 ADD PUSH2 0x4552 JUMP JUMPDEST SWAP2 POP POP SWAP3 SWAP2 POP POP JUMP JUMPDEST PUSH32 0x45524331393637557067726164653A206E657720696D706C656D656E74617469 PUSH1 0x0 DUP3 ADD MSTORE PUSH32 0x6F6E206973206E6F742055555053000000000000000000000000000000000000 PUSH1 0x20 DUP3 ADD MSTORE POP JUMP JUMPDEST PUSH1 0x0 PUSH2 0x45F0 PUSH1 0x2E DUP4 PUSH2 0x3513 JUMP JUMPDEST SWAP2 POP PUSH2 0x45FB DUP3 PUSH2 0x4594 JUMP JUMPDEST PUSH1 0x40 DUP3 ADD SWAP1 POP SWAP2 SWAP1 POP JUMP JUMPDEST PUSH1 0x0 PUSH1 0x20 DUP3 ADD SWAP1 POP DUP2 DUP2 SUB PUSH1 0x0 DUP4 ADD MSTORE PUSH2 0x461F DUP2 PUSH2 0x45E3 JUMP JUMPDEST SWAP1 POP SWAP2 SWAP1 POP JUMP JUMPDEST PUSH32 0x45524331393637557067726164653A20756E737570706F727465642070726F78 PUSH1 0x0 DUP3 ADD MSTORE PUSH32 0x6961626C65555549440000000000000000000000000000000000000000000000 PUSH1 0x20 DUP3 ADD MSTORE POP JUMP JUMPDEST PUSH1 0x0 PUSH2 0x4682 PUSH1 0x29 DUP4 PUSH2 0x3513 JUMP JUMPDEST SWAP2 POP PUSH2 0x468D DUP3 PUSH2 0x4626 JUMP JUMPDEST PUSH1 0x40 DUP3 ADD SWAP1 POP SWAP2 SWAP1 POP JUMP JUMPDEST PUSH1 0x0 PUSH1 0x20 DUP3 ADD SWAP1 POP DUP2 DUP2 SUB PUSH1 0x0 DUP4 ADD MSTORE PUSH2 0x46B1 DUP2 PUSH2 0x4675 JUMP JUMPDEST SWAP1 POP SWAP2 SWAP1 POP JUMP JUMPDEST PUSH32 0x4552433230536E617073686F743A206964206973203000000000000000000000 PUSH1 0x0 DUP3 ADD MSTORE POP JUMP JUMPDEST PUSH1 0x0 PUSH2 0x46EE PUSH1 0x16 DUP4 PUSH2 0x3513 JUMP JUMPDEST SWAP2 POP PUSH2 0x46F9 DUP3 PUSH2 0x46B8 JUMP JUMPDEST PUSH1 0x20 DUP3 ADD SWAP1 POP SWAP2 SWAP1 POP JUMP JUMPDEST PUSH1 0x0 PUSH1 0x20 DUP3 ADD SWAP1 POP DUP2 DUP2 SUB PUSH1 0x0 DUP4 ADD MSTORE PUSH2 0x471D DUP2 PUSH2 0x46E1 JUMP JUMPDEST SWAP1 POP SWAP2 SWAP1 POP JUMP JUMPDEST PUSH32 0x4552433230536E617073686F743A206E6F6E6578697374656E74206964000000 PUSH1 0x0 DUP3 ADD MSTORE POP JUMP JUMPDEST PUSH1 0x0 PUSH2 0x475A PUSH1 0x1D DUP4 PUSH2 0x3513 JUMP JUMPDEST SWAP2 POP PUSH2 0x4765 DUP3 PUSH2 0x4724 JUMP JUMPDEST PUSH1 0x20 DUP3 ADD SWAP1 POP SWAP2 SWAP1 POP JUMP JUMPDEST PUSH1 0x0 PUSH1 0x20 DUP3 ADD SWAP1 POP DUP2 DUP2 SUB PUSH1 0x0 DUP4 ADD MSTORE PUSH2 0x4789 DUP2 PUSH2 0x474D JUMP JUMPDEST SWAP1 POP SWAP2 SWAP1 POP JUMP JUMPDEST PUSH32 0x4E487B7100000000000000000000000000000000000000000000000000000000 PUSH1 0x0 MSTORE PUSH1 0x32 PUSH1 0x4 MSTORE PUSH1 0x24 PUSH1 0x0 REVERT JUMPDEST PUSH32 0x496E697469616C697A61626C653A20636F6E7472616374206973206E6F742069 PUSH1 0x0 DUP3 ADD MSTORE PUSH32 0x6E697469616C697A696E67000000000000000000000000000000000000000000 PUSH1 0x20 DUP3 ADD MSTORE POP JUMP JUMPDEST PUSH1 0x0 PUSH2 0x481B PUSH1 0x2B DUP4 PUSH2 0x3513 JUMP JUMPDEST SWAP2 POP PUSH2 0x4826 DUP3 PUSH2 0x47BF JUMP JUMPDEST PUSH1 0x40 DUP3 ADD SWAP1 POP SWAP2 SWAP1 POP JUMP JUMPDEST PUSH1 0x0 PUSH1 0x20 DUP3 ADD SWAP1 POP DUP2 DUP2 SUB PUSH1 0x0 DUP4 ADD MSTORE PUSH2 0x484A DUP2 PUSH2 0x480E JUMP JUMPDEST SWAP1 POP SWAP2 SWAP1 POP JUMP JUMPDEST PUSH32 0x45524332303A20696E73756666696369656E7420616C6C6F77616E6365000000 PUSH1 0x0 DUP3 ADD MSTORE POP JUMP JUMPDEST PUSH1 0x0 PUSH2 0x4887 PUSH1 0x1D DUP4 PUSH2 0x3513 JUMP JUMPDEST SWAP2 POP PUSH2 0x4892 DUP3 PUSH2 0x4851 JUMP JUMPDEST PUSH1 0x20 DUP3 ADD SWAP1 POP SWAP2 SWAP1 POP JUMP JUMPDEST PUSH1 0x0 PUSH1 0x20 DUP3 ADD SWAP1 POP DUP2 DUP2 SUB PUSH1 0x0 DUP4 ADD MSTORE PUSH2 0x48B6 DUP2 PUSH2 0x487A JUMP JUMPDEST SWAP1 POP SWAP2 SWAP1 POP JUMP JUMPDEST PUSH32 0x45524332303A207472616E736665722066726F6D20746865207A65726F206164 PUSH1 0x0 DUP3 ADD MSTORE PUSH32 0x6472657373000000000000000000000000000000000000000000000000000000 PUSH1 0x20 DUP3 ADD MSTORE POP JUMP JUMPDEST PUSH1 0x0 PUSH2 0x4919 PUSH1 0x25 DUP4 PUSH2 0x3513 JUMP JUMPDEST SWAP2 POP PUSH2 0x4924 DUP3 PUSH2 0x48BD JUMP JUMPDEST PUSH1 0x40 DUP3 ADD SWAP1 POP SWAP2 SWAP1 POP JUMP JUMPDEST PUSH1 0x0 PUSH1 0x20 DUP3 ADD SWAP1 POP DUP2 DUP2 SUB PUSH1 0x0 DUP4 ADD MSTORE PUSH2 0x4948 DUP2 PUSH2 0x490C JUMP JUMPDEST SWAP1 POP SWAP2 SWAP1 POP JUMP JUMPDEST PUSH32 0x45524332303A207472616E7366657220746F20746865207A65726F2061646472 PUSH1 0x0 DUP3 ADD MSTORE PUSH32 0x6573730000000000000000000000000000000000000000000000000000000000 PUSH1 0x20 DUP3 ADD MSTORE POP JUMP JUMPDEST PUSH1 0x0 PUSH2 0x49AB PUSH1 0x23 DUP4 PUSH2 0x3513 JUMP JUMPDEST SWAP2 POP PUSH2 0x49B6 DUP3 PUSH2 0x494F JUMP JUMPDEST PUSH1 0x40 DUP3 ADD SWAP1 POP SWAP2 SWAP1 POP JUMP JUMPDEST PUSH1 0x0 PUSH1 0x20 DUP3 ADD SWAP1 POP DUP2 DUP2 SUB PUSH1 0x0 DUP4 ADD MSTORE PUSH2 0x49DA DUP2 PUSH2 0x499E JUMP JUMPDEST SWAP1 POP SWAP2 SWAP1 POP JUMP JUMPDEST PUSH32 0x45524332303A207472616E7366657220616D6F756E7420657863656564732062 PUSH1 0x0 DUP3 ADD MSTORE PUSH32 0x616C616E63650000000000000000000000000000000000000000000000000000 PUSH1 0x20 DUP3 ADD MSTORE POP JUMP JUMPDEST PUSH1 0x0 PUSH2 0x4A3D PUSH1 0x26 DUP4 PUSH2 0x3513 JUMP JUMPDEST SWAP2 POP PUSH2 0x4A48 DUP3 PUSH2 0x49E1 JUMP JUMPDEST PUSH1 0x40 DUP3 ADD SWAP1 POP SWAP2 SWAP1 POP JUMP JUMPDEST PUSH1 0x0 PUSH1 0x20 DUP3 ADD SWAP1 POP DUP2 DUP2 SUB PUSH1 0x0 DUP4 ADD MSTORE PUSH2 0x4A6C DUP2 PUSH2 0x4A30 JUMP JUMPDEST SWAP1 POP SWAP2 SWAP1 POP JUMP JUMPDEST PUSH1 0x0 PUSH1 0xA0 DUP3 ADD SWAP1 POP PUSH2 0x4A88 PUSH1 0x0 DUP4 ADD DUP9 PUSH2 0x3795 JUMP JUMPDEST PUSH2 0x4A95 PUSH1 0x20 DUP4 ADD DUP8 PUSH2 0x3795 JUMP JUMPDEST PUSH2 0x4AA2 PUSH1 0x40 DUP4 ADD DUP7 PUSH2 0x3795 JUMP JUMPDEST PUSH2 0x4AAF PUSH1 0x60 DUP4 ADD DUP6 PUSH2 0x34DE JUMP JUMPDEST PUSH2 0x4ABC PUSH1 0x80 DUP4 ADD DUP5 PUSH2 0x3761 JUMP JUMPDEST SWAP7 SWAP6 POP POP POP POP POP POP JUMP JUMPDEST PUSH32 0x455243313936373A206E657720696D706C656D656E746174696F6E206973206E PUSH1 0x0 DUP3 ADD MSTORE PUSH32 0x6F74206120636F6E747261637400000000000000000000000000000000000000 PUSH1 0x20 DUP3 ADD MSTORE POP JUMP JUMPDEST PUSH1 0x0 PUSH2 0x4B22 PUSH1 0x2D DUP4 PUSH2 0x3513 JUMP JUMPDEST SWAP2 POP PUSH2 0x4B2D DUP3 PUSH2 0x4AC6 JUMP JUMPDEST PUSH1 0x40 DUP3 ADD SWAP1 POP SWAP2 SWAP1 POP JUMP JUMPDEST PUSH1 0x0 PUSH1 0x20 DUP3 ADD SWAP1 POP DUP2 DUP2 SUB PUSH1 0x0 DUP4 ADD MSTORE PUSH2 0x4B51 DUP2 PUSH2 0x4B15 JUMP JUMPDEST SWAP1 POP SWAP2 SWAP1 POP JUMP JUMPDEST PUSH32 0x45524332303A206275726E2066726F6D20746865207A65726F20616464726573 PUSH1 0x0 DUP3 ADD MSTORE PUSH32 0x7300000000000000000000000000000000000000000000000000000000000000 PUSH1 0x20 DUP3 ADD MSTORE POP JUMP JUMPDEST PUSH1 0x0 PUSH2 0x4BB4 PUSH1 0x21 DUP4 PUSH2 0x3513 JUMP JUMPDEST SWAP2 POP PUSH2 0x4BBF DUP3 PUSH2 0x4B58 JUMP JUMPDEST PUSH1 0x40 DUP3 ADD SWAP1 POP SWAP2 SWAP1 POP JUMP JUMPDEST PUSH1 0x0 PUSH1 0x20 DUP3 ADD SWAP1 POP DUP2 DUP2 SUB PUSH1 0x0 DUP4 ADD MSTORE PUSH2 0x4BE3 DUP2 PUSH2 0x4BA7 JUMP JUMPDEST SWAP1 POP SWAP2 SWAP1 POP JUMP JUMPDEST PUSH32 0x45524332303A206275726E20616D6F756E7420657863656564732062616C616E PUSH1 0x0 DUP3 ADD MSTORE PUSH32 0x6365000000000000000000000000000000000000000000000000000000000000 PUSH1 0x20 DUP3 ADD MSTORE POP JUMP JUMPDEST PUSH1 0x0 PUSH2 0x4C46 PUSH1 0x22 DUP4 PUSH2 0x3513 JUMP JUMPDEST SWAP2 POP PUSH2 0x4C51 DUP3 PUSH2 0x4BEA JUMP JUMPDEST PUSH1 0x40 DUP3 ADD SWAP1 POP SWAP2 SWAP1 POP JUMP JUMPDEST PUSH1 0x0 PUSH1 0x20 DUP3 ADD SWAP1 POP DUP2 DUP2 SUB PUSH1 0x0 DUP4 ADD MSTORE PUSH2 0x4C75 DUP2 PUSH2 0x4C39 JUMP JUMPDEST SWAP1 POP SWAP2 SWAP1 POP JUMP JUMPDEST PUSH32 0x45524332303A206D696E7420746F20746865207A65726F206164647265737300 PUSH1 0x0 DUP3 ADD MSTORE POP JUMP JUMPDEST PUSH1 0x0 PUSH2 0x4CB2 PUSH1 0x1F DUP4 PUSH2 0x3513 JUMP JUMPDEST SWAP2 POP PUSH2 0x4CBD DUP3 PUSH2 0x4C7C JUMP JUMPDEST PUSH1 0x20 DUP3 ADD SWAP1 POP SWAP2 SWAP1 POP JUMP JUMPDEST PUSH1 0x0 PUSH1 0x20 DUP3 ADD SWAP1 POP DUP2 DUP2 SUB PUSH1 0x0 DUP4 ADD MSTORE PUSH2 0x4CE1 DUP2 PUSH2 0x4CA5 JUMP JUMPDEST SWAP1 POP SWAP2 SWAP1 POP JUMP JUMPDEST PUSH1 0x0 PUSH2 0x4CF3 DUP3 PUSH2 0x344F JUMP JUMPDEST SWAP2 POP PUSH2 0x4CFE DUP4 PUSH2 0x344F JUMP JUMPDEST SWAP3 POP DUP3 DUP3 LT ISZERO PUSH2 0x4D11 JUMPI PUSH2 0x4D10 PUSH2 0x3459 JUMP JUMPDEST JUMPDEST DUP3 DUP3 SUB SWAP1 POP SWAP3 SWAP2 POP POP JUMP JUMPDEST PUSH1 0x0 DUP2 SWAP1 POP SWAP3 SWAP2 POP POP JUMP JUMPDEST PUSH32 0x1901000000000000000000000000000000000000000000000000000000000000 PUSH1 0x0 DUP3 ADD MSTORE POP JUMP JUMPDEST PUSH1 0x0 PUSH2 0x4D5D PUSH1 0x2 DUP4 PUSH2 0x4D1C JUMP JUMPDEST SWAP2 POP PUSH2 0x4D68 DUP3 PUSH2 0x4D27 JUMP JUMPDEST PUSH1 0x2 DUP3 ADD SWAP1 POP SWAP2 SWAP1 POP JUMP JUMPDEST PUSH1 0x0 DUP2 SWAP1 POP SWAP2 SWAP1 POP JUMP JUMPDEST PUSH2 0x4D8E PUSH2 0x4D89 DUP3 PUSH2 0x378B JUMP JUMPDEST PUSH2 0x4D73 JUMP JUMPDEST DUP3 MSTORE POP POP JUMP JUMPDEST PUSH1 0x0 PUSH2 0x4D9F DUP3 PUSH2 0x4D50 JUMP JUMPDEST SWAP2 POP PUSH2 0x4DAB DUP3 DUP6 PUSH2 0x4D7D JUMP JUMPDEST PUSH1 0x20 DUP3 ADD SWAP2 POP PUSH2 0x4DBB DUP3 DUP5 PUSH2 0x4D7D JUMP JUMPDEST PUSH1 0x20 DUP3 ADD SWAP2 POP DUP2 SWAP1 POP SWAP4 SWAP3 POP POP POP JUMP JUMPDEST PUSH1 0x0 PUSH1 0x80 DUP3 ADD SWAP1 POP PUSH2 0x4DE0 PUSH1 0x0 DUP4 ADD DUP8 PUSH2 0x3795 JUMP JUMPDEST PUSH2 0x4DED PUSH1 0x20 DUP4 ADD DUP7 PUSH2 0x3737 JUMP JUMPDEST PUSH2 0x4DFA PUSH1 0x40 DUP4 ADD DUP6 PUSH2 0x3795 JUMP JUMPDEST PUSH2 0x4E07 PUSH1 0x60 DUP4 ADD DUP5 PUSH2 0x3795 JUMP JUMPDEST SWAP6 SWAP5 POP POP POP POP POP JUMP JUMPDEST PUSH32 0x4E487B7100000000000000000000000000000000000000000000000000000000 PUSH1 0x0 MSTORE PUSH1 0x21 PUSH1 0x4 MSTORE PUSH1 0x24 PUSH1 0x0 REVERT JUMPDEST PUSH32 0x45434453413A20696E76616C6964207369676E61747572650000000000000000 PUSH1 0x0 DUP3 ADD MSTORE POP JUMP JUMPDEST PUSH1 0x0 PUSH2 0x4E75 PUSH1 0x18 DUP4 PUSH2 0x3513 JUMP JUMPDEST SWAP2 POP PUSH2 0x4E80 DUP3 PUSH2 0x4E3F JUMP JUMPDEST PUSH1 0x20 DUP3 ADD SWAP1 POP SWAP2 SWAP1 POP JUMP JUMPDEST PUSH1 0x0 PUSH1 0x20 DUP3 ADD SWAP1 POP DUP2 DUP2 SUB PUSH1 0x0 DUP4 ADD MSTORE PUSH2 0x4EA4 DUP2 PUSH2 0x4E68 JUMP JUMPDEST SWAP1 POP SWAP2 SWAP1 POP JUMP JUMPDEST PUSH32 0x45434453413A20696E76616C6964207369676E6174757265206C656E67746800 PUSH1 0x0 DUP3 ADD MSTORE POP JUMP JUMPDEST PUSH1 0x0 PUSH2 0x4EE1 PUSH1 0x1F DUP4 PUSH2 0x3513 JUMP JUMPDEST SWAP2 POP PUSH2 0x4EEC DUP3 PUSH2 0x4EAB JUMP JUMPDEST PUSH1 0x20 DUP3 ADD SWAP1 POP SWAP2 SWAP1 POP JUMP JUMPDEST PUSH1 0x0 PUSH1 0x20 DUP3 ADD SWAP1 POP DUP2 DUP2 SUB PUSH1 0x0 DUP4 ADD MSTORE PUSH2 0x4F10 DUP2 PUSH2 0x4ED4 JUMP JUMPDEST SWAP1 POP SWAP2 SWAP1 POP JUMP JUMPDEST PUSH32 0x45434453413A20696E76616C6964207369676E6174757265202773272076616C PUSH1 0x0 DUP3 ADD MSTORE PUSH32 0x7565000000000000000000000000000000000000000000000000000000000000 PUSH1 0x20 DUP3 ADD MSTORE POP JUMP JUMPDEST PUSH1 0x0 PUSH2 0x4F73 PUSH1 0x22 DUP4 PUSH2 0x3513 JUMP JUMPDEST SWAP2 POP PUSH2 0x4F7E DUP3 PUSH2 0x4F17 JUMP JUMPDEST PUSH1 0x40 DUP3 ADD SWAP1 POP SWAP2 SWAP1 POP JUMP JUMPDEST PUSH1 0x0 PUSH1 0x20 DUP3 ADD SWAP1 POP DUP2 DUP2 SUB PUSH1 0x0 DUP4 ADD MSTORE PUSH2 0x4FA2 DUP2 PUSH2 0x4F66 JUMP JUMPDEST SWAP1 POP SWAP2 SWAP1 POP JUMP JUMPDEST PUSH32 0x416464726573733A2064656C65676174652063616C6C20746F206E6F6E2D636F PUSH1 0x0 DUP3 ADD MSTORE PUSH32 0x6E74726163740000000000000000000000000000000000000000000000000000 PUSH1 0x20 DUP3 ADD MSTORE POP JUMP JUMPDEST PUSH1 0x0 PUSH2 0x5005 PUSH1 0x26 DUP4 PUSH2 0x3513 JUMP JUMPDEST SWAP2 POP PUSH2 0x5010 DUP3 PUSH2 0x4FA9 JUMP JUMPDEST PUSH1 0x40 DUP3 ADD SWAP1 POP SWAP2 SWAP1 POP JUMP JUMPDEST PUSH1 0x0 PUSH1 0x20 DUP3 ADD SWAP1 POP DUP2 DUP2 SUB PUSH1 0x0 DUP4 ADD MSTORE PUSH2 0x5034 DUP2 PUSH2 0x4FF8 JUMP JUMPDEST SWAP1 POP SWAP2 SWAP1 POP JUMP JUMPDEST PUSH1 0x0 DUP2 MLOAD SWAP1 POP SWAP2 SWAP1 POP JUMP JUMPDEST PUSH1 0x0 DUP2 SWAP1 POP SWAP3 SWAP2 POP POP JUMP JUMPDEST PUSH1 0x0 PUSH2 0x505C DUP3 PUSH2 0x503B JUMP JUMPDEST PUSH2 0x5066 DUP2 DUP6 PUSH2 0x5046 JUMP JUMPDEST SWAP4 POP PUSH2 0x5076 DUP2 DUP6 PUSH1 0x20 DUP7 ADD PUSH2 0x3524 JUMP JUMPDEST DUP1 DUP5 ADD SWAP2 POP POP SWAP3 SWAP2 POP POP JUMP JUMPDEST PUSH1 0x0 PUSH2 0x508E DUP3 DUP5 PUSH2 0x5051 JUMP JUMPDEST SWAP2 POP DUP2 SWAP1 POP SWAP3 SWAP2 POP POP JUMP JUMPDEST PUSH32 0x4E487B7100000000000000000000000000000000000000000000000000000000 PUSH1 0x0 MSTORE PUSH1 0x12 PUSH1 0x4 MSTORE PUSH1 0x24 PUSH1 0x0 REVERT JUMPDEST PUSH1 0x0 PUSH2 0x50D3 DUP3 PUSH2 0x344F JUMP JUMPDEST SWAP2 POP PUSH2 0x50DE DUP4 PUSH2 0x344F JUMP JUMPDEST SWAP3 POP DUP3 PUSH2 0x50EE JUMPI PUSH2 0x50ED PUSH2 0x5099 JUMP JUMPDEST JUMPDEST DUP3 DUP3 DIV SWAP1 POP SWAP3 SWAP2 POP POP JUMP JUMPDEST PUSH32 0x5061757361626C653A2070617573656400000000000000000000000000000000 PUSH1 0x0 DUP3 ADD MSTORE POP JUMP JUMPDEST PUSH1 0x0 PUSH2 0x512F PUSH1 0x10 DUP4 PUSH2 0x3513 JUMP JUMPDEST SWAP2 POP PUSH2 0x513A DUP3 PUSH2 0x50F9 JUMP JUMPDEST PUSH1 0x20 DUP3 ADD SWAP1 POP SWAP2 SWAP1 POP JUMP JUMPDEST PUSH1 0x0 PUSH1 0x20 DUP3 ADD SWAP1 POP DUP2 DUP2 SUB PUSH1 0x0 DUP4 ADD MSTORE PUSH2 0x515E DUP2 PUSH2 0x5122 JUMP JUMPDEST SWAP1 POP SWAP2 SWAP1 POP JUMP INVALID COINBASE PUSH5 0x6472657373 GASPRICE KECCAK256 PUSH13 0x6F772D6C6576656C2064656C65 PUSH8 0x6174652063616C6C KECCAK256 PUSH7 0x61696C6564A264 PUSH10 0x70667358221220208832 SELFBALANCE 0x24 PUSH2 0xC0B 0xD6 0xB9 LT GASPRICE 0x27 PUSH26 0xF50CD9631E49BF8AEA6313043161256161B064736F6C63430008 MULMOD STOP CALLER "},"gasEstimates":{"creation":{"codeDepositCost":"4186000","executionCost":"infinite","totalCost":"infinite"},"external":{"":"infinite","DOMAIN_SEPARATOR()":"infinite","allowance(address,address)":"infinite","approve(address,uint256)":"infinite","balanceOf(address)":"2931","balanceOfAt(address,uint256)":"infinite","burn(uint256)":"infinite","burnFrom(address,uint256)":"infinite","decimals()":"411","decreaseAllowance(address,uint256)":"infinite","getProfileAddress()":"4911","increaseAllowance(address,uint256)":"infinite","initialize()":"infinite","mintTo(address,uint256)":"infinite","name()":"infinite","nonces(address)":"2979","owner()":"2602","paused()":"2547","permit(address,address,uint256,uint256,uint8,bytes32,bytes32)":"infinite","proxiableUUID()":"infinite","renounceOwnership()":"30478","setProfileAddress(address)":"27067","symbol()":"infinite","totalSupply()":"2528","totalSupplyAt(uint256)":"infinite","transfer(address,uint256)":"infinite","transferFrom(address,address,uint256)":"infinite","transferOwnership(address)":"30892","upgradeTo(address)":"infinite","upgradeToAndCall(address,bytes)":"infinite"},"internal":{"_authorizeUpgrade(address)":"infinite","_beforeTokenTransfer(address,address,uint256)":"infinite","_getMultiSig(address)":"infinite","_isVerified(address)":"infinite","mint(address,uint256)":"infinite","pause()":"infinite","snapshot()":"infinite","unpause()":"infinite"}},"methodIdentifiers":{"DOMAIN_SEPARATOR()":"3644e515","allowance(address,address)":"dd62ed3e","approve(address,uint256)":"095ea7b3","balanceOf(address)":"70a08231","balanceOfAt(address,uint256)":"4ee2cd7e","burn(uint256)":"42966c68","burnFrom(address,uint256)":"79cc6790","decimals()":"313ce567","decreaseAllowance(address,uint256)":"a457c2d7","getProfileAddress()":"345a903f","increaseAllowance(address,uint256)":"39509351","initialize()":"8129fc1c","mintTo(address,uint256)":"449a52f8","name()":"06fdde03","nonces(address)":"7ecebe00","owner()":"8da5cb5b","paused()":"5c975abb","permit(address,address,uint256,uint256,uint8,bytes32,bytes32)":"d505accf","proxiableUUID()":"52d1902d","renounceOwnership()":"715018a6","setProfileAddress(address)":"59e78460","symbol()":"95d89b41","totalSupply()":"18160ddd","totalSupplyAt(uint256)":"981b24d0","transfer(address,uint256)":"a9059cbb","transferFrom(address,address,uint256)":"23b872dd","transferOwnership(address)":"f2fde38b","upgradeTo(address)":"3659cfe6","upgradeToAndCall(address,bytes)":"4f1ef286"}},"storageLayout":{"storage":[{"astId":527,"contract":"contracts/PKDR.sol:PKDR","label":"_initialized","offset":0,"slot":"0","type":"t_uint8"},{"astId":530,"contract":"contracts/PKDR.sol:PKDR","label":"_initializing","offset":1,"slot":"0","type":"t_bool"},{"astId":2787,"contract":"contracts/PKDR.sol:PKDR","label":"__gap","offset":0,"slot":"1","type":"t_array(t_uint256)50_storage"},{"astId":971,"contract":"contracts/PKDR.sol:PKDR","label":"_balances","offset":0,"slot":"51","type":"t_mapping(t_address,t_uint256)"},{"astId":977,"contract":"contracts/PKDR.sol:PKDR","label":"_allowances","offset":0,"slot":"52","type":"t_mapping(t_address,t_mapping(t_address,t_uint256))"},{"astId":979,"contract":"contracts/PKDR.sol:PKDR","label":"_totalSupply","offset":0,"slot":"53","type":"t_uint256"},{"astId":981,"contract":"contracts/PKDR.sol:PKDR","label":"_name","offset":0,"slot":"54","type":"t_string_storage"},{"astId":983,"contract":"contracts/PKDR.sol:PKDR","label":"_symbol","offset":0,"slot":"55","type":"t_string_storage"},{"astId":1563,"contract":"contracts/PKDR.sol:PKDR","label":"__gap","offset":0,"slot":"56","type":"t_array(t_uint256)45_storage"},{"astId":1705,"contract":"contracts/PKDR.sol:PKDR","label":"__gap","offset":0,"slot":"101","type":"t_array(t_uint256)50_storage"},{"astId":1749,"contract":"contracts/PKDR.sol:PKDR","label":"_accountBalanceSnapshots","offset":0,"slot":"151","type":"t_mapping(t_address,t_struct(Snapshots)1744_storage)"},{"astId":1752,"contract":"contracts/PKDR.sol:PKDR","label":"_totalSupplySnapshots","offset":0,"slot":"152","type":"t_struct(Snapshots)1744_storage"},{"astId":1755,"contract":"contracts/PKDR.sol:PKDR","label":"_currentSnapshotId","offset":0,"slot":"154","type":"t_struct(Counter)2794_storage"},{"astId":2053,"contract":"contracts/PKDR.sol:PKDR","label":"__gap","offset":0,"slot":"155","type":"t_array(t_uint256)46_storage"},{"astId":10,"contract":"contracts/PKDR.sol:PKDR","label":"_owner","offset":0,"slot":"201","type":"t_address"},{"astId":130,"contract":"contracts/PKDR.sol:PKDR","label":"__gap","offset":0,"slot":"202","type":"t_array(t_uint256)49_storage"},{"astId":846,"contract":"contracts/PKDR.sol:PKDR","label":"_paused","offset":0,"slot":"251","type":"t_bool"},{"astId":951,"contract":"contracts/PKDR.sol:PKDR","label":"__gap","offset":0,"slot":"252","type":"t_array(t_uint256)49_storage"},{"astId":3467,"contract":"contracts/PKDR.sol:PKDR","label":"_HASHED_NAME","offset":0,"slot":"301","type":"t_bytes32"},{"astId":3469,"contract":"contracts/PKDR.sol:PKDR","label":"_HASHED_VERSION","offset":0,"slot":"302","type":"t_bytes32"},{"astId":3607,"contract":"contracts/PKDR.sol:PKDR","label":"__gap","offset":0,"slot":"303","type":"t_array(t_uint256)50_storage"},{"astId":2105,"contract":"contracts/PKDR.sol:PKDR","label":"_nonces","offset":0,"slot":"353","type":"t_mapping(t_address,t_struct(Counter)2794_storage)"},{"astId":2113,"contract":"contracts/PKDR.sol:PKDR","label":"_PERMIT_TYPEHASH_DEPRECATED_SLOT","offset":0,"slot":"354","type":"t_bytes32"},{"astId":2269,"contract":"contracts/PKDR.sol:PKDR","label":"__gap","offset":0,"slot":"355","type":"t_array(t_uint256)49_storage"},{"astId":509,"contract":"contracts/PKDR.sol:PKDR","label":"__gap","offset":0,"slot":"404","type":"t_array(t_uint256)50_storage"},{"astId":824,"contract":"contracts/PKDR.sol:PKDR","label":"__gap","offset":0,"slot":"454","type":"t_array(t_uint256)50_storage"},{"astId":5321,"contract":"contracts/PKDR.sol:PKDR","label":"_contractValue","offset":0,"slot":"504","type":"t_uint256"},{"astId":5340,"contract":"contracts/PKDR.sol:PKDR","label":"profiles","offset":0,"slot":"505","type":"t_contract(Profiles)6234"}],"types":{"t_address":{"encoding":"inplace","label":"address","numberOfBytes":"20"},"t_array(t_uint256)45_storage":{"base":"t_uint256","encoding":"inplace","label":"uint256[45]","numberOfBytes":"1440"},"t_array(t_uint256)46_storage":{"base":"t_uint256","encoding":"inplace","label":"uint256[46]","numberOfBytes":"1472"},"t_array(t_uint256)49_storage":{"base":"t_uint256","encoding":"inplace","label":"uint256[49]","numberOfBytes":"1568"},"t_array(t_uint256)50_storage":{"base":"t_uint256","encoding":"inplace","label":"uint256[50]","numberOfBytes":"1600"},"t_array(t_uint256)dyn_storage":{"base":"t_uint256","encoding":"dynamic_array","label":"uint256[]","numberOfBytes":"32"},"t_bool":{"encoding":"inplace","label":"bool","numberOfBytes":"1"},"t_bytes32":{"encoding":"inplace","label":"bytes32","numberOfBytes":"32"},"t_contract(Profiles)6234":{"encoding":"inplace","label":"contract Profiles","numberOfBytes":"20"},"t_mapping(t_address,t_mapping(t_address,t_uint256))":{"encoding":"mapping","key":"t_address","label":"mapping(address => mapping(address => uint256))","numberOfBytes":"32","value":"t_mapping(t_address,t_uint256)"},"t_mapping(t_address,t_struct(Counter)2794_storage)":{"encoding":"mapping","key":"t_address","label":"mapping(address => struct CountersUpgradeable.Counter)","numberOfBytes":"32","value":"t_struct(Counter)2794_storage"},"t_mapping(t_address,t_struct(Snapshots)1744_storage)":{"encoding":"mapping","key":"t_address","label":"mapping(address => struct ERC20SnapshotUpgradeable.Snapshots)","numberOfBytes":"32","value":"t_struct(Snapshots)1744_storage"},"t_mapping(t_address,t_uint256)":{"encoding":"mapping","key":"t_address","label":"mapping(address => uint256)","numberOfBytes":"32","value":"t_uint256"},"t_string_storage":{"encoding":"bytes","label":"string","numberOfBytes":"32"},"t_struct(Counter)2794_storage":{"encoding":"inplace","label":"struct CountersUpgradeable.Counter","members":[{"astId":2793,"contract":"contracts/PKDR.sol:PKDR","label":"_value","offset":0,"slot":"0","type":"t_uint256"}],"numberOfBytes":"32"},"t_struct(Snapshots)1744_storage":{"encoding":"inplace","label":"struct ERC20SnapshotUpgradeable.Snapshots","members":[{"astId":1740,"contract":"contracts/PKDR.sol:PKDR","label":"ids","offset":0,"slot":"0","type":"t_array(t_uint256)dyn_storage"},{"astId":1743,"contract":"contracts/PKDR.sol:PKDR","label":"values","offset":0,"slot":"1","type":"t_array(t_uint256)dyn_storage"}],"numberOfBytes":"64"},"t_uint256":{"encoding":"inplace","label":"uint256","numberOfBytes":"32"},"t_uint8":{"encoding":"inplace","label":"uint8","numberOfBytes":"1"}}},"userdoc":{"kind":"user","methods":{},"version":1}}}}